{
	"data": {
		"bytecode": {
			"linkReferences": {},
			"object": "60806040526113886008556103e8600955600a80556107d0600b5562093a80600f553480156200002e57600080fd5b5060405162004d2938038062004d29833981016040819052620000519162000077565b600080546001600160a01b0319166001600160a01b0392909216919091179055620000a9565b6000602082840312156200008a57600080fd5b81516001600160a01b0381168114620000a257600080fd5b9392505050565b614c7080620000b96000396000f3fe6080604052600436106104255760003560e01c80637da8135211610229578063af718bd41161012e578063cea97446116100b6578063e6d17ef41161007a578063e6d17ef414610c84578063e888891514610c97578063eebac25814610cb7578063f8b2cb4f14610cd7578063fc62952314610d0d57600080fd5b8063cea9744614610b61578063d09ef24114610bf7578063d106e2fe14610c24578063d80b32bd14610c44578063e5a6b10f14610c6457600080fd5b8063bc063e1a116100fd578063bc063e1a14610b61578063c247d90914610b77578063c2daf49614610b97578063c31c9c0714610bb7578063c6bbd5a714610bd757600080fd5b8063af718bd414610ae9578063afb1289d14610aff578063b1ad0fa014610b14578063ba124fe314610b4157600080fd5b806396365d44116101b1578063a82a239d11610180578063a82a239d14610a30578063ac2a067d14610a46578063acb6e3de14610a73578063ad0e90ff14610a93578063ada16cce14610ab357600080fd5b806396365d44146109ba5780639645337a146109d05780639cd4b71f146109f0578063a5bce37914610a1057600080fd5b80638b71cac6116101f85780638b71cac6146109245780638eea87aa146109445780638fedc6031461095a578063925bb4761461097a57806395d65d111461099a57600080fd5b80637da81352146108af5780638097f3f9146108cf57806381f0ed78146108ef578063871371821461090457600080fd5b80633a0e81b01161032f578063626674f6116102b7578063720ee37c11610286578063720ee37c1461081957806376890c58146108395780637acbd18e146108595780637c4283bc146108795780637d86549f1461088f57600080fd5b8063626674f6146107a357806363c69f08146107c3578063650b1b27146107e357806371fb31451461080357600080fd5b806355efb287116102fe57806355efb28714610715578063569e62901461072b57806359bca6671461074b5780635b9907a4146107615780635f80fed01461078357600080fd5b80633a0e81b01461069f5780633e27c34b146106bf5780633fc8cef3146106d557806352e238fc146106f557600080fd5b8063194c119d116103b2578063232b956c11610381578063232b956c146105e35780632a6bc2dd146106105780632e2dc43e1461063d5780632f45580c1461065f578063384bc4661461067f57600080fd5b8063194c119d1461056d5780631967fc07146105835780631f0ba6c9146105a35780632313c231146105c357600080fd5b806312d43a51116103f957806312d43a51146104b557806316ee91bc146104ed57806316f0115b1461050d578063171167c71461052d57806318dcdcfa1461054d57600080fd5b8062922d0c1461042a5780630271fd0f1461044c5780630b33ba7a1461046c5780631298f13c1461048c575b600080fd5b34801561043657600080fd5b5061044a610445366004613906565b610d2d565b005b34801561045857600080fd5b5061044a610467366004613984565b610eec565b34801561047857600080fd5b5061044a6104873660046139b0565b610f96565b34801561049857600080fd5b506104a2600c5481565b6040519081526020015b60405180910390f35b3480156104c157600080fd5b506000546104d5906001600160a01b031681565b6040516001600160a01b0390911681526020016104ac565b3480156104f957600080fd5b5061044a6105083660046139cd565b611051565b34801561051957600080fd5b506007546104d5906001600160a01b031681565b34801561053957600080fd5b5061044a6105483660046139e6565b6110aa565b34801561055957600080fd5b506002546104d5906001600160a01b031681565b34801561057957600080fd5b506104a26107d081565b34801561058f57600080fd5b5061044a61059e3660046139cd565b611111565b3480156105af57600080fd5b506006546104d5906001600160a01b031681565b3480156105cf57600080fd5b5061044a6105de366004613a4a565b611140565b3480156105ef57600080fd5b506106036105fe3660046139cd565b61120e565b6040516104ac9190613ace565b34801561061c57600080fd5b5061063061062b3660046139b0565b6112ba565b6040516104ac9190613b5d565b34801561064957600080fd5b506106526114ae565b6040516104ac9190613ca2565b34801561066b57600080fd5b5061044a61067a366004613984565b6116b7565b34801561068b57600080fd5b5061044a61069a366004613984565b611790565b3480156106ab57600080fd5b5061044a6106ba3660046139e6565b611800565b3480156106cb57600080fd5b506104a2600e5481565b3480156106e157600080fd5b506005546104d5906001600160a01b031681565b34801561070157600080fd5b506104d56107103660046139cd565b611879565b34801561072157600080fd5b506104a2610e1081565b34801561073757600080fd5b5061044a610746366004613984565b61188c565b34801561075757600080fd5b506104a2600f5481565b34801561076d57600080fd5b50610776611904565b6040516104ac9190613cf7565b34801561078f57600080fd5b5061044a61079e3660046139cd565b6119dd565b3480156107af57600080fd5b506104a26107be366004613d4c565b611a0c565b3480156107cf57600080fd5b506106526107de3660046139b0565b611a37565b3480156107ef57600080fd5b5061044a6107fe3660046139cd565b611c69565b34801561080f57600080fd5b506104a2600a5481565b34801561082557600080fd5b5061044a610834366004613984565b611c98565b34801561084557600080fd5b5061044a610854366004613984565b611d52565b34801561086557600080fd5b506104a2610874366004613d4c565b611da8565b34801561088557600080fd5b506104a261271081565b34801561089b57600080fd5b5061044a6108aa3660046139cd565b611dbc565b3480156108bb57600080fd5b506104a26108ca366004613d4c565b611e0d565b3480156108db57600080fd5b506104a26108ea366004613ed2565b611e21565b3480156108fb57600080fd5b506104a2611fd2565b34801561091057600080fd5b5061044a61091f366004613fd9565b611fe3565b34801561093057600080fd5b506104a261093f366004613d4c565b61205d565b34801561095057600080fd5b506104a2600b5481565b34801561096657600080fd5b506104a261097536600461403d565b612071565b34801561098657600080fd5b5061044a61099536600461407b565b612113565b3480156109a657600080fd5b5061044a6109b53660046139cd565b61218a565b3480156109c657600080fd5b506104a2600d5481565b3480156109dc57600080fd5b5061044a6109eb3660046139cd565b6121db565b3480156109fc57600080fd5b5061044a610a0b3660046139cd565b6123f5565b348015610a1c57600080fd5b5061044a610a2b366004613984565b612476565b348015610a3c57600080fd5b506104a260085481565b348015610a5257600080fd5b50610a66610a61366004613d4c565b6124ee565b6040516104ac91906140b6565b348015610a7f57600080fd5b5061044a610a8e3660046139cd565b61265b565b348015610a9f57600080fd5b5061044a610aae366004613906565b6126d4565b348015610abf57600080fd5b506104a2610ace3660046139b0565b6001600160a01b03166000908152601e602052604090205490565b348015610af557600080fd5b506104a260095481565b348015610b0b57600080fd5b506104a261281c565b348015610b2057600080fd5b50610b34610b2f36600461414f565b61288a565b6040516104ac91906141a3565b348015610b4d57600080fd5b506104a2610b5c3660046139b0565b6129be565b348015610b6d57600080fd5b506104a26101f481565b348015610b8357600080fd5b5061044a610b923660046141b6565b612ad8565b348015610ba357600080fd5b5061044a610bb23660046139cd565b612b41565b348015610bc357600080fd5b506003546104d5906001600160a01b031681565b348015610be357600080fd5b506004546104d5906001600160a01b031681565b348015610c0357600080fd5b50610c17610c123660046139cd565b612b85565b6040516104ac9190614201565b348015610c3057600080fd5b5061044a610c3f366004614214565b612ce3565b348015610c5057600080fd5b506104a2610c5f366004613d4c565b612e62565b348015610c7057600080fd5b506001546104d5906001600160a01b031681565b6104a2610c9236600461427c565b612e9f565b348015610ca357600080fd5b5061044a610cb2366004613984565b6130a0565b348015610cc357600080fd5b5061044a610cd236600461414f565b6130f7565b348015610ce357600080fd5b506104a2610cf23660046139b0565b6001600160a01b03166000908152601d602052604090205490565b348015610d1957600080fd5b5061044a610d283660046139cd565b6131c3565b6006546001600160a01b0316331480610d5057506007546001600160a01b031633145b610d755760405162461bcd60e51b8152600401610d6c906142d7565b60405180910390fd5b8015610e335781601b8585604051610d8e9291906142fa565b90815260200160405180910390206000828254610dab9190614320565b9091555050604051601b90610dc390869086906142fa565b90815260200160405180910390205460168585604051610de49291906142fa565b9081526020016040518091039020600201541015610e2e5760405162461bcd60e51b8152602060048201526007602482015266216d61782d6f6960c81b6044820152606401610d6c565b610ee6565b81601c8585604051610e469291906142fa565b90815260200160405180910390206000828254610e639190614320565b9091555050604051601c90610e7b90869086906142fa565b90815260200160405180910390205460168585604051610e9c9291906142fa565b9081526020016040518091039020600201541015610ee65760405162461bcd60e51b8152602060048201526007602482015266216d61782d6f6960c81b6044820152606401610d6c565b50505050565b6006546001600160a01b0316331480610f0f57506007546001600160a01b031633145b610f2b5760405162461bcd60e51b8152600401610d6c906142d7565b6002546040516340c10f1960e01b81526001600160a01b03848116600483015260248201849052909116906340c10f19906044015b600060405180830381600087803b158015610f7a57600080fd5b505af1158015610f8e573d6000803e3d6000fd5b505050505050565b6000546001600160a01b03163314610fc05760405162461bcd60e51b8152600401610d6c90614333565b6001600160a01b0381166110015760405162461bcd60e51b8152602060048201526008602482015267216164647265737360c01b6044820152606401610d6c565b600080546001600160a01b038381166001600160a01b0319831681178455604051919092169283917f434a2db650703b36c824e745330d6397cdaa9ee2cc891a4938ae853e1c50b68d9190a35050565b6006546001600160a01b031633148061107457506007546001600160a01b031633145b6110905760405162461bcd60e51b8152600401610d6c906142d7565b80600c60008282546110a29190614358565b909155505050565b6006546001600160a01b03163314806110cd57506007546001600160a01b031633145b6110e95760405162461bcd60e51b8152600401610d6c906142d7565b80602284846040516110fc9291906142fa565b90815260405190819003602001902055505050565b6000546001600160a01b0316331461113b5760405162461bcd60e51b8152600401610d6c90614333565b600855565b6006546001600160a01b031633148061116357506007546001600160a01b031633145b61117f5760405162461bcd60e51b8152600401610d6c906142d7565b60006111a661119460608401604085016139b0565b6111a1606085018561436b565b613214565b600081815260176020526040902090915082906111c38282614521565b506111fd905081601a60006111de60608701604088016139b0565b6001600160a01b0316815260208101919091526040016000209061324a565b5061120960188261324a565b505050565b6015818154811061121e57600080fd5b906000526020600020016000915090508054611239906143d8565b80601f0160208091040260200160405190810160405280929190818152602001828054611265906143d8565b80156112b25780601f10611287576101008083540402835291602001916112b2565b820191906000526020600020905b81548152906001019060200180831161129557829003601f168201915b505050505081565b6001600160a01b0381166000908152601a60205260408120606091906112df90613256565b9050806001600160401b038111156112f9576112f9613d8d565b60405190808252806020026020018201604052801561133257816020015b61131f6137a3565b8152602001906001900390816113175790505b50915060005b818110156114a7576001600160a01b0384166000908152601a60205260408120601791906113669084613260565b8152602080820192909252604090810160002081516101008082018452825460ff8116151583529081046001600160401b031694820194909452600160481b9093046001600160a01b0316918301919091526001810180546060840191906113cd906143d8565b80601f01602080910402602001604051908101604052809291908181526020018280546113f9906143d8565b80156114465780601f1061141b57610100808354040283529160200191611446565b820191906000526020600020905b81548152906001019060200180831161142957829003601f168201915b5050505050815260200160028201548152602001600382015481526020016004820154815260200160058201548152505083828151811061148957611489614609565b6020026020010181905250808061149f9061461f565b915050611338565b5050919050565b606060006114bc6013613256565b9050806001600160401b038111156114d6576114d6613d8d565b60405190808252806020026020018201604052801561150f57816020015b6114fc6137fc565b8152602001906001900390816114f45790505b50915060005b818110156116b2576011600061152c601384613260565b81526020808201929092526040908101600020815161016081018352815460ff808216151583526101008204811615159583019590955262010000810490941692810192909252630100000083046001600160481b03166060830152600160601b9092046001600160a01b0316608082015260018201805491929160a0840191906115b6906143d8565b80601f01602080910402602001604051908101604052809291908181526020018280546115e2906143d8565b801561162f5780601f106116045761010080835404028352916020019161162f565b820191906000526020600020905b81548152906001019060200180831161161257829003601f168201915b505050918352505060028201546001600160401b0381166020830152600160401b90046001600160c01b03166040820152600382015460608201526004820154608082015260059091015460a090910152835184908390811061169457611694614609565b602002602001018190525080806116aa9061461f565b915050611515565b505090565b6006546001600160a01b03163314806116da57506007546001600160a01b031633145b6116f65760405162461bcd60e51b8152600401610d6c906142d7565b6001600160a01b0382166000908152601e6020526040902054811115611734576001600160a01b0382166000908152601e6020526040812055611762565b6001600160a01b0382166000908152601e60205260408120805483929061175c908490614358565b90915550505b6001600160a01b0382166000908152601e6020526040812054900361178c57611209601f8361326c565b5050565b6006546001600160a01b03163314806117b357506007546001600160a01b031633145b6117cf5760405162461bcd60e51b8152600401610d6c906142d7565b6001600160a01b0382166000908152601d6020526040812080548392906117f7908490614320565b90915550505050565b6006546001600160a01b031633148061182357506007546001600160a01b031633145b61183f5760405162461bcd60e51b8152600401610d6c906142d7565b80602184846040516118529291906142fa565b9081526020016040518091039020600082825461186f9190614638565b9091555050505050565b6000611886601f83613260565b92915050565b6006546001600160a01b03163314806118af57506007546001600160a01b031633145b6118cb5760405162461bcd60e51b8152600401610d6c906142d7565b600254604051632770a7eb60e21b81526001600160a01b0384811660048301526024820184905290911690639dc29fac90604401610f60565b60606015805480602002602001604051908101604052809291908181526020016000905b828210156119d4578382906000526020600020018054611947906143d8565b80601f0160208091040260200160405190810160405280929190818152602001828054611973906143d8565b80156119c05780601f10611995576101008083540402835291602001916119c0565b820191906000526020600020905b8154815290600101906020018083116119a357829003601f168201915b505050505081526020019060010190611928565b50505050905090565b6000546001600160a01b03163314611a075760405162461bcd60e51b8152600401610d6c90614333565b600b55565b600060228383604051611a209291906142fa565b908152602001604051809103902054905092915050565b6001600160a01b038116600090815260126020526040812060609190611a5c90613256565b9050806001600160401b03811115611a7657611a76613d8d565b604051908082528060200260200182016040528015611aaf57816020015b611a9c6137fc565b815260200190600190039081611a945790505b50915060005b818110156114a7576001600160a01b038416600090815260126020526040812060119190611ae39084613260565b81526020808201929092526040908101600020815161016081018352815460ff808216151583526101008204811615159583019590955262010000810490941692810192909252630100000083046001600160481b03166060830152600160601b9092046001600160a01b0316608082015260018201805491929160a084019190611b6d906143d8565b80601f0160208091040260200160405190810160405280929190818152602001828054611b99906143d8565b8015611be65780601f10611bbb57610100808354040283529160200191611be6565b820191906000526020600020905b815481529060010190602001808311611bc957829003601f168201915b505050918352505060028201546001600160401b0381166020830152600160401b90046001600160c01b03166040820152600382015460608201526004820154608082015260059091015460a0909101528351849083908110611c4b57611c4b614609565b60200260200101819052508080611c619061461f565b915050611ab5565b6000546001600160a01b03163314611c935760405162461bcd60e51b8152600401610d6c90614333565b600f55565b6006546001600160a01b0316331480611cbb57506007546001600160a01b031633145b611cd75760405162461bcd60e51b8152600401610d6c906142d7565b6001600160a01b0382166000908152601d6020526040902054811115611d2a5760405162461bcd60e51b81526020600482015260086024820152672162616c616e636560c01b6044820152606401610d6c565b6001600160a01b0382166000908152601d6020526040812080548392906117f7908490614358565b6006546001600160a01b0316331480611d7557506007546001600160a01b031633145b611d915760405162461bcd60e51b8152600401610d6c906142d7565b60015461178c906001600160a01b03168383613281565b600060218383604051611a209291906142fa565b6006546001600160a01b0316331480611ddf57506007546001600160a01b031633145b611dfb5760405162461bcd60e51b8152600401610d6c906142d7565b80600d60008282546110a29190614358565b6000601c8383604051611a209291906142fa565b6006546000906001600160a01b0316331480611e4757506007546001600160a01b031633145b611e635760405162461bcd60e51b8152600401610d6c906142d7565b6000601060008154611e749061461f565b91829055506001600160481b038082166060860190815260008381526011602090815260409182902088518154928a0151938a0151945160808b01516001600160a01b0316600160601b026001600160601b03919097166301000000026bffffffffffffffffff0000001960ff979097166201000002969096166bffffffffffffffffffff0000199515156101000261ff00199315159390931661ffff1990951694909417919091179390931691909117929092171691909117815560a085015191925084916001820190611f499082614660565b5060c082015160e08301516001600160c01b0316600160401b026001600160401b03909116176002820155610100820151600382015561012082015160048201556101409091015160059091015560808301516001600160a01b03166000908152601260205260409020611fbd908261324a565b50611fc960138261324a565b5090505b919050565b6000611fde601f613256565b905090565b6000546001600160a01b0316331461200d5760405162461bcd60e51b8152600401610d6c90614333565b600680546001600160a01b039586166001600160a01b0319918216179091556007805494861694821694909417909355600180549285169284169290921790915560028054919093169116179055565b6000601b8383604051611a209291906142fa565b6004805460015460405163f7729d4360e01b81526001600160a01b0386811694820194909452908316602482015262ffffff8416604482015260648101869052600060848201819052929091169063f7729d439060a4016020604051808303816000875af11580156120e7573d6000803e3d6000fd5b505050506040513d601f19601f8201168201806040525081019061210b9190614719565b949350505050565b6006546001600160a01b031633148061213657506007546001600160a01b031633145b6121525760405162461bcd60e51b8152600401610d6c906142d7565b80601160006121676080840160608501614732565b6001600160481b0316815260200190815260200160002081816112099190614776565b6006546001600160a01b03163314806121ad57506007546001600160a01b031633145b6121c95760405162461bcd60e51b8152600401610d6c906142d7565b80600d60008282546110a29190614320565b6006546001600160a01b03163314806121fe57506007546001600160a01b031633145b61221a5760405162461bcd60e51b8152600401610d6c906142d7565b6000818152601160209081526040808320815161016081018352815460ff808216151583526101008204811615159583019590955262010000810490941692810192909252630100000083046001600160481b03166060830152600160601b9092046001600160a01b0316608082015260018201805491929160a0840191906122a2906143d8565b80601f01602080910402602001604051908101604052809291908181526020018280546122ce906143d8565b801561231b5780601f106122f05761010080835404028352916020019161231b565b820191906000526020600020905b8154815290600101906020018083116122fe57829003601f168201915b505050918352505060028201546001600160401b0381166020830152600160401b90046001600160c01b03166040820152600382015460608201526004820154608082015260059091015460a090910152610140810151909150600003612380575050565b60808101516001600160a01b031660009081526012602052604090206123a690836132e4565b506123b26013836132e4565b506000828152601160205260408120818155906123d26001830182613857565b506000600282018190556003820181905560048201819055600590910155505b50565b6000546001600160a01b0316331461241f5760405162461bcd60e51b8152600401610d6c90614333565b6101f48111156124715760405162461bcd60e51b815260206004820152601860248201527f216d61782d706f6f6c2d7769746864726177616c2d66656500000000000000006044820152606401610d6c565b600a55565b6006546001600160a01b031633148061249957506007546001600160a01b031633145b6124b55760405162461bcd60e51b8152600401610d6c906142d7565b6001600160a01b0382166000908152601e6020526040812080548392906124dd908490614320565b909155506112099050601f836132f0565b604080516101008101825260608082526000602083018190528284018190529082018190526080820181905260a0820181905260c0820181905260e0820152905160169061253f90859085906142fa565b908152602001604051809103902060405180610100016040529081600082018054612569906143d8565b80601f0160208091040260200160405190810160405280929190818152602001828054612595906143d8565b80156125e25780601f106125b7576101008083540402835291602001916125e2565b820191906000526020600020905b8154815290600101906020018083116125c557829003601f168201915b505050918352505060018201546001600160a01b038116602083015261ffff600160a01b820481166040840152600160b01b820416606083015263ffffffff600160c01b820481166080840152600160e01b9091041660a0820152600282015460c082015260039091015460e090910152905092915050565b6000546001600160a01b031633146126855760405162461bcd60e51b8152600401610d6c90614333565b6107d08111156126cf5760405162461bcd60e51b8152602060048201526015602482015274216d61782d6b65657065722d6665652d736861726560581b6044820152606401610d6c565b600955565b6006546001600160a01b03163314806126f757506007546001600160a01b031633145b6127135760405162461bcd60e51b8152600401610d6c906142d7565b80156127a557601b848460405161272b9291906142fa565b90815260200160405180910390205482111561276a576000601b85856040516127559291906142fa565b90815260405190819003602001902055610ee6565b81601b858560405161277d9291906142fa565b9081526020016040518091039020600082825461279a9190614358565b90915550610ee69050565b601c84846040516127b79291906142fa565b9081526020016040518091039020548211156127e1576000601c85856040516127559291906142fa565b81601c85856040516127f49291906142fa565b908152602001604051809103902060008282546128119190614358565b909155505050505050565b600254604080516318160ddd60e01b815290516000926001600160a01b0316916318160ddd9160048083019260209291908290030181865afa158015612866573d6000803e3d6000fd5b505050506040513d601f19601f82011682018060405250810190611fde9190614719565b6128926137a3565b600061289f858585613214565b60008181526017602090815260409182902082516101008082018552825460ff8116151583529081046001600160401b031693820193909352600160481b9092046001600160a01b031692820192909252600182018054939450909260608401919061290a906143d8565b80601f0160208091040260200160405190810160405280929190818152602001828054612936906143d8565b80156129835780601f1061295857610100808354040283529160200191612983565b820191906000526020600020905b81548152906001019060200180831161296657829003601f168201915b505050505081526020016002820154815260200160038201548152602001600482015481526020016005820154815250509150509392505050565b600080600260009054906101000a90046001600160a01b03166001600160a01b03166318160ddd6040518163ffffffff1660e01b8152600401602060405180830381865afa158015612a14573d6000803e3d6000fd5b505050506040513d601f19601f82011682018060405250810190612a389190614719565b905080600003612a4b5750600092915050565b600d546002546040516370a0823160e01b81526001600160a01b03868116600483015284939216906370a0823190602401602060405180830381865afa158015612a99573d6000803e3d6000fd5b505050506040513d601f19601f82011682018060405250810190612abd9190614719565b612ac791906148f7565b612ad1919061490e565b9392505050565b6000546001600160a01b03163314612b025760405162461bcd60e51b8152600401610d6c90614333565b600380546001600160a01b039485166001600160a01b031991821617909155600480549385169382169390931790925560058054919093169116179055565b6006546001600160a01b0316331480612b6457506007546001600160a01b031633145b612b805760405162461bcd60e51b8152600401610d6c906142d7565b600e55565b612b8d6137fc565b600082815260116020908152604091829020825161016081018452815460ff808216151583526101008204811615159483019490945262010000810490931693810193909352630100000082046001600160481b03166060840152600160601b9091046001600160a01b0316608083015260018101805460a084019190612c13906143d8565b80601f0160208091040260200160405190810160405280929190818152602001828054612c3f906143d8565b8015612c8c5780601f10612c6157610100808354040283529160200191612c8c565b820191906000526020600020905b815481529060010190602001808311612c6f57829003601f168201915b505050918352505060028201546001600160401b0381166020830152600160401b90046001600160c01b03166040820152600382015460608201526004820154608082015260059091015460a09091015292915050565b6000546001600160a01b03163314612d0d5760405162461bcd60e51b8152600401610d6c90614333565b6101f4612d2060a0830160808401614942565b63ffffffff161115612d5f5760405162461bcd60e51b8152602060048201526008602482015267216d61782d66656560c01b6044820152606401610d6c565b8060168484604051612d729291906142fa565b908152604051908190036020019020612d8b8282614980565b90505060005b601554811015612e24578383604051602001612dae9291906142fa565b6040516020818303038152906040528051906020012060158281548110612dd757612dd7614609565b90600052602060002001604051602001612df19190614b4e565b6040516020818303038152906040528051906020012003612e125750505050565b80612e1c8161461f565b915050612d91565b50601580546001810182556000919091527f55f448fdea98c4d29eb340757ef0a66cd03dbb9538908a6a81d96026b71ec47501610ee6838583614467565b600060168383604051612e769291906142fa565b9081526040519081900360200190206001015463ffffffff600160e01b90910416905092915050565b6006546000906001600160a01b0316331480612ec557506007546001600160a01b031633145b612ee15760405162461bcd60e51b8152600401610d6c906142d7565b6003546001600160a01b0316612f275760405162461bcd60e51b815260206004820152600b60248201526a10b9bbb0b82937baba32b960a91b6044820152606401610d6c565b3415612f43576005543495506001600160a01b03169250612f72565b612f586001600160a01b038416873088613305565b600354612f72906001600160a01b0385811691168761333d565b60408051610100810182526001600160a01b03808616825260015416602082015262ffffff84169181019190915230606082015260009060808101612fb842600f614320565b8152602080820189905260408083018990526000606093840152600354815163414bf38960e01b815285516001600160a01b03908116600483015293860151841660248201529185015162ffffff16604483015292840151821660648201526080840151608482015260a084015160a482015260c084015160c482015260e0840151821660e4820152929350169063414bf3899034906101040160206040518083038185885af1158015613070573d6000803e3d6000fd5b50505050506040513d601f19601f820116820180604052508101906130959190614719565b979650505050505050565b6006546001600160a01b03163314806130c357506007546001600160a01b031633145b6130df5760405162461bcd60e51b8152600401610d6c906142d7565b60015461178c906001600160a01b0316833084613305565b6006546001600160a01b031633148061311a57506007546001600160a01b031633145b6131365760405162461bcd60e51b8152600401610d6c906142d7565b6000613143848484613214565b6001600160a01b0385166000908152601a6020526040902090915061316890826132e4565b506131746018826132e4565b50600081815260176020526040812080546001600160e81b03191681559061319f6001830182613857565b50600060028201819055600382018190556004820181905560059091015550505050565b6006546001600160a01b03163314806131e657506007546001600160a01b031633145b6132025760405162461bcd60e51b8152600401610d6c906142d7565b80600c60008282546110a29190614320565b600083838360405160200161322b93929190614bc4565b6040516020818303038152906040528051906020012090509392505050565b6000612ad18383613452565b6000611886825490565b6000612ad183836134a1565b6000612ad1836001600160a01b0384166134cb565b6040516001600160a01b03831660248201526044810182905261120990849063a9059cbb60e01b906064015b60408051601f198184030181529190526020810180516001600160e01b03166001600160e01b0319909316929092179091526135be565b6000612ad183836134cb565b6000612ad1836001600160a01b038416613452565b6040516001600160a01b0380851660248301528316604482015260648101829052610ee69085906323b872dd60e01b906084016132ad565b8015806133b75750604051636eb1769f60e11b81523060048201526001600160a01b03838116602483015284169063dd62ed3e90604401602060405180830381865afa158015613391573d6000803e3d6000fd5b505050506040513d601f19601f820116820180604052508101906133b59190614719565b155b6134225760405162461bcd60e51b815260206004820152603660248201527f5361666545524332303a20617070726f76652066726f6d206e6f6e2d7a65726f60448201527520746f206e6f6e2d7a65726f20616c6c6f77616e636560501b6064820152608401610d6c565b6040516001600160a01b03831660248201526044810182905261120990849063095ea7b360e01b906064016132ad565b600081815260018301602052604081205461349957508154600181810184556000848152602080822090930184905584548482528286019093526040902091909155611886565b506000611886565b60008260000182815481106134b8576134b8614609565b9060005260206000200154905092915050565b600081815260018301602052604081205480156135b45760006134ef600183614358565b855490915060009061350390600190614358565b905081811461356857600086600001828154811061352357613523614609565b906000526020600020015490508087600001848154811061354657613546614609565b6000918252602080832090910192909255918252600188019052604090208390555b855486908061357957613579614beb565b600190038181906000526020600020016000905590558560010160008681526020019081526020016000206000905560019350505050611886565b6000915050611886565b6000613613826040518060400160405280602081526020017f5361666545524332303a206c6f772d6c6576656c2063616c6c206661696c6564815250856001600160a01b03166136909092919063ffffffff16565b80519091501561120957808060200190518101906136319190614c01565b6112095760405162461bcd60e51b815260206004820152602a60248201527f5361666545524332303a204552433230206f7065726174696f6e20646964206e6044820152691bdd081cdd58d8d9595960b21b6064820152608401610d6c565b606061210b848460008585600080866001600160a01b031685876040516136b79190614c1e565b60006040518083038185875af1925050503d80600081146136f4576040519150601f19603f3d011682016040523d82523d6000602084013e6136f9565b606091505b5091509150613095878383876060831561377457825160000361376d576001600160a01b0385163b61376d5760405162461bcd60e51b815260206004820152601d60248201527f416464726573733a2063616c6c20746f206e6f6e2d636f6e74726163740000006044820152606401610d6c565b508161210b565b61210b83838151156137895781518083602001fd5b8060405162461bcd60e51b8152600401610d6c9190613ace565b60405180610100016040528060001515815260200160006001600160401b0316815260200160006001600160a01b0316815260200160608152602001600081526020016000815260200160008152602001600081525090565b604080516101608101825260008082526020820181905291810182905260608082018390526080820183905260a082015260c0810182905260e081018290526101008101829052610120810182905261014081019190915290565b508054613863906143d8565b6000825580601f10613873575050565b601f0160209004906000526020600020908101906123f291905b808211156138a1576000815560010161388d565b5090565b60008083601f8401126138b757600080fd5b5081356001600160401b038111156138ce57600080fd5b6020830191508360208285010111156138e657600080fd5b9250929050565b80151581146123f257600080fd5b8035611fcd816138ed565b6000806000806060858703121561391c57600080fd5b84356001600160401b0381111561393257600080fd5b61393e878288016138a5565b909550935050602085013591506040850135613959816138ed565b939692955090935050565b6001600160a01b03811681146123f257600080fd5b8035611fcd81613964565b6000806040838503121561399757600080fd5b82356139a281613964565b946020939093013593505050565b6000602082840312156139c257600080fd5b8135612ad181613964565b6000602082840312156139df57600080fd5b5035919050565b6000806000604084860312156139fb57600080fd5b83356001600160401b03811115613a1157600080fd5b613a1d868287016138a5565b909790965060209590950135949350505050565b60006101008284031215613a4457600080fd5b50919050565b600060208284031215613a5c57600080fd5b81356001600160401b03811115613a7257600080fd5b61210b84828501613a31565b60005b83811015613a99578181015183820152602001613a81565b50506000910152565b60008151808452613aba816020860160208601613a7e565b601f01601f19169290920160200192915050565b602081526000612ad16020830184613aa2565b60006101008251151584526001600160401b03602084015116602085015260018060a01b0360408401511660408501526060830151816060860152613b2882860182613aa2565b9150506080830151608085015260a083015160a085015260c083015160c085015260e083015160e08501528091505092915050565b6000602080830181845280855180835260408601915060408160051b870101925083870160005b82811015613bb257603f19888603018452613ba0858351613ae1565b94509285019290850190600101613b84565b5092979650505050505050565b80511515825260006101606020830151613bdd602086018215159052565b506040830151613bf2604086018260ff169052565b506060830151613c0d60608601826001600160481b03169052565b506080830151613c2860808601826001600160a01b03169052565b5060a08301518160a0860152613c4082860182613aa2565b91505060c0830151613c5d60c08601826001600160401b03169052565b5060e0830151613c7860e08601826001600160c01b03169052565b50610100838101519085015261012080840151908501526101409283015192909301919091525090565b6000602080830181845280855180835260408601915060408160051b870101925083870160005b82811015613bb257603f19888603018452613ce5858351613bbf565b94509285019290850190600101613cc9565b6000602080830181845280855180835260408601915060408160051b870101925083870160005b82811015613bb257603f19888603018452613d3a858351613aa2565b94509285019290850190600101613d1e565b60008060208385031215613d5f57600080fd5b82356001600160401b03811115613d7557600080fd5b613d81858286016138a5565b90969095509350505050565b634e487b7160e01b600052604160045260246000fd5b60405161016081016001600160401b0381118282101715613dc657613dc6613d8d565b60405290565b60ff811681146123f257600080fd5b8035611fcd81613dcc565b6001600160481b03811681146123f257600080fd5b8035611fcd81613de6565b600082601f830112613e1757600080fd5b81356001600160401b0380821115613e3157613e31613d8d565b604051601f8301601f19908116603f01168101908282118183101715613e5957613e59613d8d565b81604052838152866020858801011115613e7257600080fd5b836020870160208301376000602085830101528094505050505092915050565b6001600160401b03811681146123f257600080fd5b8035611fcd81613e92565b6001600160c01b03811681146123f257600080fd5b8035611fcd81613eb2565b600060208284031215613ee457600080fd5b81356001600160401b0380821115613efb57600080fd5b908301906101608286031215613f1057600080fd5b613f18613da3565b613f21836138fb565b8152613f2f602084016138fb565b6020820152613f4060408401613ddb565b6040820152613f5160608401613dfb565b6060820152613f6260808401613979565b608082015260a083013582811115613f7957600080fd5b613f8587828601613e06565b60a083015250613f9760c08401613ea7565b60c0820152613fa860e08401613ec7565b60e0820152610100838101359082015261012080840135908201526101409283013592810192909252509392505050565b60008060008060808587031215613fef57600080fd5b8435613ffa81613964565b9350602085013561400a81613964565b9250604085013561401a81613964565b9150606085013561395981613964565b803562ffffff81168114611fcd57600080fd5b60008060006060848603121561405257600080fd5b83359250602084013561406481613964565b91506140726040850161402a565b90509250925092565b60006020828403121561408d57600080fd5b81356001600160401b038111156140a357600080fd5b82016101608185031215612ad157600080fd5b60208152600082516101008060208501526140d5610120850183613aa2565b915060018060a01b03602086015116604085015261ffff6040860151166060850152606085015161410c608086018261ffff169052565b50608085015163ffffffff811660a08601525060a085015163ffffffff811660c08601525060c085015160e085015260e085015181850152508091505092915050565b60008060006040848603121561416457600080fd5b833561416f81613964565b925060208401356001600160401b0381111561418a57600080fd5b614196868287016138a5565b9497909650939450505050565b602081526000612ad16020830184613ae1565b6000806000606084860312156141cb57600080fd5b83356141d681613964565b925060208401356141e681613964565b915060408401356141f681613964565b809150509250925092565b602081526000612ad16020830184613bbf565b60008060006040848603121561422957600080fd5b83356001600160401b038082111561424057600080fd5b61424c878388016138a5565b9095509350602086013591508082111561426557600080fd5b5061427286828701613a31565b9150509250925092565b600080600080600060a0868803121561429457600080fd5b853561429f81613964565b9450602086013593506040860135925060608601356142bd81613964565b91506142cb6080870161402a565b90509295509295909350565b6020808252600990820152680858dbdb9d1c9858dd60ba1b604082015260600190565b8183823760009101908152919050565b634e487b7160e01b600052601160045260246000fd5b808201808211156118865761188661430a565b6020808252600b908201526a21676f7665726e616e636560a81b604082015260600190565b818103818111156118865761188661430a565b6000808335601e1984360301811261438257600080fd5b8301803591506001600160401b0382111561439c57600080fd5b6020019150368190038213156138e657600080fd5b60008135611886816138ed565b6000813561188681613e92565b6000813561188681613964565b600181811c908216806143ec57607f821691505b602082108103613a4457634e487b7160e01b600052602260045260246000fd5b601f82111561120957600081815260208120601f850160051c810160208610156144335750805b601f850160051c820191505b81811015610f8e5782815560010161443f565b600019600383901b1c191660019190911b1790565b6001600160401b0383111561447e5761447e613d8d565b6144928361448c83546143d8565b8361440c565b6000601f8411600181146144c057600085156144ae5750838201355b6144b88682614452565b84555061451a565b600083815260209020601f19861690835b828110156144f157868501358255602094850194600190920191016144d1565b508682101561450e5760001960f88860031b161c19848701351681555b505060018560011b0183555b5050505050565b813561452c816138ed565b815460ff191660ff8215151617825550602082013561454a81613e92565b815468ffffffffffffffff00191660089190911b68ffffffffffffffff00161781556145c061457b604084016143cb565b8280547fffffff0000000000000000000000000000000000000000ffffffffffffffffff1660489290921b6901000000000000000000600160e81b0316919091179055565b6145cd606083018361436b565b6145db818360018601614467565b50506080820135600282015560a0820135600382015560c0820135600482015560e082013560058201555050565b634e487b7160e01b600052603260045260246000fd5b6000600182016146315761463161430a565b5060010190565b80820182811260008312801582168215821617156146585761465861430a565b505092915050565b81516001600160401b0381111561467957614679613d8d565b61468d8161468784546143d8565b8461440c565b602080601f8311600181146146bc57600084156146aa5750858301515b6146b48582614452565b865550610f8e565b600085815260208120601f198616915b828110156146eb578886015182559484019460019091019084016146cc565b50858210156147095787850151600019600388901b60f8161c191681555b5050505050600190811b01905550565b60006020828403121561472b57600080fd5b5051919050565b60006020828403121561474457600080fd5b8135612ad181613de6565b6000813561188681613dcc565b6000813561188681613de6565b6000813561188681613eb2565b614796614782836143b1565b825490151560ff1660ff1991909116178255565b6147bf6147a5602084016143b1565b82805461ff00191691151560081b61ff0016919091179055565b6147e66147ce6040840161474f565b825462ff0000191660109190911b62ff000016178255565b61481f6147f56060840161475c565b82546bffffffffffffffffff000000191660189190911b6bffffffffffffffffff00000016178255565b61485361482e608084016143cb565b82546001600160601b031660609190911b6bffffffffffffffffffffffff1916178255565b61486060a083018361436b565b61486e818360018601614467565b5050600281016148a161488360c085016143be565b825467ffffffffffffffff19166001600160401b0391909116178255565b6148d16148b060e08501614769565b82546001600160401b031660409190911b67ffffffffffffffff1916178255565b506101008201356003820155610120820135600482015561014082013560058201555050565b80820281158282048414176118865761188661430a565b60008261492b57634e487b7160e01b600052601260045260246000fd5b500490565b63ffffffff811681146123f257600080fd5b60006020828403121561495457600080fd5b8135612ad181614930565b6000813561ffff8116811461188657600080fd5b6000813561188681614930565b61498a828361436b565b6001600160401b038111156149a1576149a1613d8d565b6149b5816149af85546143d8565b8561440c565b6000601f8211600181146149e357600083156149d15750838201355b6149db8482614452565b865550614a3d565b600085815260209020601f19841690835b82811015614a1457868501358255602094850194600190920191016149f4565b5084821015614a315760001960f88660031b161c19848701351681555b505060018360011b0185555b5050505060018101614a71614a54602085016143cb565b82546001600160a01b0319166001600160a01b0391909116178255565b614aa0614a806040850161495f565b82805461ffff60a01b191660a09290921b61ffff60a01b16919091179055565b614acf614aaf6060850161495f565b82805461ffff60b01b191660b09290921b61ffff60b01b16919091179055565b614b02614ade60808501614973565b82805463ffffffff60c01b191660c09290921b63ffffffff60c01b16919091179055565b614b35614b1160a08501614973565b8280546001600160e01b031660e09290921b6001600160e01b031916919091179055565b5060c0820135600282015560e082013560038201555050565b6000808354614b5c816143d8565b60018281168015614b745760018114614b8957614bb8565b60ff1984168752821515830287019450614bb8565b8760005260208060002060005b85811015614baf5781548a820152908401908201614b96565b50505082870194505b50929695505050505050565b6001600160601b03198460601b168152818360148301376000910160140190815292915050565b634e487b7160e01b600052603160045260246000fd5b600060208284031215614c1357600080fd5b8151612ad1816138ed565b60008251614c30818460208701613a7e565b919091019291505056fea2646970667358221220d9246cfacec1b03ec4d918d07518394e43be78e745b6288cb48a668f045d231f64736f6c63430008110033",
			"opcodes": "PUSH1 0x80 PUSH1 0x40 MSTORE PUSH2 0x1388 PUSH1 0x8 SSTORE PUSH2 0x3E8 PUSH1 0x9 SSTORE PUSH1 0xA DUP1 SSTORE PUSH2 0x7D0 PUSH1 0xB SSTORE PUSH3 0x93A80 PUSH1 0xF SSTORE CALLVALUE DUP1 ISZERO PUSH3 0x2E JUMPI PUSH1 0x0 DUP1 REVERT JUMPDEST POP PUSH1 0x40 MLOAD PUSH3 0x4D29 CODESIZE SUB DUP1 PUSH3 0x4D29 DUP4 CODECOPY DUP2 ADD PUSH1 0x40 DUP2 SWAP1 MSTORE PUSH3 0x51 SWAP2 PUSH3 0x77 JUMP JUMPDEST PUSH1 0x0 DUP1 SLOAD PUSH1 0x1 PUSH1 0x1 PUSH1 0xA0 SHL SUB NOT AND PUSH1 0x1 PUSH1 0x1 PUSH1 0xA0 SHL SUB SWAP3 SWAP1 SWAP3 AND SWAP2 SWAP1 SWAP2 OR SWAP1 SSTORE PUSH3 0xA9 JUMP JUMPDEST PUSH1 0x0 PUSH1 0x20 DUP3 DUP5 SUB SLT ISZERO PUSH3 0x8A JUMPI PUSH1 0x0 DUP1 REVERT JUMPDEST DUP2 MLOAD PUSH1 0x1 PUSH1 0x1 PUSH1 0xA0 SHL SUB DUP2 AND DUP2 EQ PUSH3 0xA2 JUMPI PUSH1 0x0 DUP1 REVERT JUMPDEST SWAP4 SWAP3 POP POP POP JUMP JUMPDEST PUSH2 0x4C70 DUP1 PUSH3 0xB9 PUSH1 0x0 CODECOPY PUSH1 0x0 RETURN INVALID PUSH1 0x80 PUSH1 0x40 MSTORE PUSH1 0x4 CALLDATASIZE LT PUSH2 0x425 JUMPI PUSH1 0x0 CALLDATALOAD PUSH1 0xE0 SHR DUP1 PUSH4 0x7DA81352 GT PUSH2 0x229 JUMPI DUP1 PUSH4 0xAF718BD4 GT PUSH2 0x12E JUMPI DUP1 PUSH4 0xCEA97446 GT PUSH2 0xB6 JUMPI DUP1 PUSH4 0xE6D17EF4 GT PUSH2 0x7A JUMPI DUP1 PUSH4 0xE6D17EF4 EQ PUSH2 0xC84 JUMPI DUP1 PUSH4 0xE8888915 EQ PUSH2 0xC97 JUMPI DUP1 PUSH4 0xEEBAC258 EQ PUSH2 0xCB7 JUMPI DUP1 PUSH4 0xF8B2CB4F EQ PUSH2 0xCD7 JUMPI DUP1 PUSH4 0xFC629523 EQ PUSH2 0xD0D JUMPI PUSH1 0x0 DUP1 REVERT JUMPDEST DUP1 PUSH4 0xCEA97446 EQ PUSH2 0xB61 JUMPI DUP1 PUSH4 0xD09EF241 EQ PUSH2 0xBF7 JUMPI DUP1 PUSH4 0xD106E2FE EQ PUSH2 0xC24 JUMPI DUP1 PUSH4 0xD80B32BD EQ PUSH2 0xC44 JUMPI DUP1 PUSH4 0xE5A6B10F EQ PUSH2 0xC64 JUMPI PUSH1 0x0 DUP1 REVERT JUMPDEST DUP1 PUSH4 0xBC063E1A GT PUSH2 0xFD JUMPI DUP1 PUSH4 0xBC063E1A EQ PUSH2 0xB61 JUMPI DUP1 PUSH4 0xC247D909 EQ PUSH2 0xB77 JUMPI DUP1 PUSH4 0xC2DAF496 EQ PUSH2 0xB97 JUMPI DUP1 PUSH4 0xC31C9C07 EQ PUSH2 0xBB7 JUMPI DUP1 PUSH4 0xC6BBD5A7 EQ PUSH2 0xBD7 JUMPI PUSH1 0x0 DUP1 REVERT JUMPDEST DUP1 PUSH4 0xAF718BD4 EQ PUSH2 0xAE9 JUMPI DUP1 PUSH4 0xAFB1289D EQ PUSH2 0xAFF JUMPI DUP1 PUSH4 0xB1AD0FA0 EQ PUSH2 0xB14 JUMPI DUP1 PUSH4 0xBA124FE3 EQ PUSH2 0xB41 JUMPI PUSH1 0x0 DUP1 REVERT JUMPDEST DUP1 PUSH4 0x96365D44 GT PUSH2 0x1B1 JUMPI DUP1 PUSH4 0xA82A239D GT PUSH2 0x180 JUMPI DUP1 PUSH4 0xA82A239D EQ PUSH2 0xA30 JUMPI DUP1 PUSH4 0xAC2A067D EQ PUSH2 0xA46 JUMPI DUP1 PUSH4 0xACB6E3DE EQ PUSH2 0xA73 JUMPI DUP1 PUSH4 0xAD0E90FF EQ PUSH2 0xA93 JUMPI DUP1 PUSH4 0xADA16CCE EQ PUSH2 0xAB3 JUMPI PUSH1 0x0 DUP1 REVERT JUMPDEST DUP1 PUSH4 0x96365D44 EQ PUSH2 0x9BA JUMPI DUP1 PUSH4 0x9645337A EQ PUSH2 0x9D0 JUMPI DUP1 PUSH4 0x9CD4B71F EQ PUSH2 0x9F0 JUMPI DUP1 PUSH4 0xA5BCE379 EQ PUSH2 0xA10 JUMPI PUSH1 0x0 DUP1 REVERT JUMPDEST DUP1 PUSH4 0x8B71CAC6 GT PUSH2 0x1F8 JUMPI DUP1 PUSH4 0x8B71CAC6 EQ PUSH2 0x924 JUMPI DUP1 PUSH4 0x8EEA87AA EQ PUSH2 0x944 JUMPI DUP1 PUSH4 0x8FEDC603 EQ PUSH2 0x95A JUMPI DUP1 PUSH4 0x925BB476 EQ PUSH2 0x97A JUMPI DUP1 PUSH4 0x95D65D11 EQ PUSH2 0x99A JUMPI PUSH1 0x0 DUP1 REVERT JUMPDEST DUP1 PUSH4 0x7DA81352 EQ PUSH2 0x8AF JUMPI DUP1 PUSH4 0x8097F3F9 EQ PUSH2 0x8CF JUMPI DUP1 PUSH4 0x81F0ED78 EQ PUSH2 0x8EF JUMPI DUP1 PUSH4 0x87137182 EQ PUSH2 0x904 JUMPI PUSH1 0x0 DUP1 REVERT JUMPDEST DUP1 PUSH4 0x3A0E81B0 GT PUSH2 0x32F JUMPI DUP1 PUSH4 0x626674F6 GT PUSH2 0x2B7 JUMPI DUP1 PUSH4 0x720EE37C GT PUSH2 0x286 JUMPI DUP1 PUSH4 0x720EE37C EQ PUSH2 0x819 JUMPI DUP1 PUSH4 0x76890C58 EQ PUSH2 0x839 JUMPI DUP1 PUSH4 0x7ACBD18E EQ PUSH2 0x859 JUMPI DUP1 PUSH4 0x7C4283BC EQ PUSH2 0x879 JUMPI DUP1 PUSH4 0x7D86549F EQ PUSH2 0x88F JUMPI PUSH1 0x0 DUP1 REVERT JUMPDEST DUP1 PUSH4 0x626674F6 EQ PUSH2 0x7A3 JUMPI DUP1 PUSH4 0x63C69F08 EQ PUSH2 0x7C3 JUMPI DUP1 PUSH4 0x650B1B27 EQ PUSH2 0x7E3 JUMPI DUP1 PUSH4 0x71FB3145 EQ PUSH2 0x803 JUMPI PUSH1 0x0 DUP1 REVERT JUMPDEST DUP1 PUSH4 0x55EFB287 GT PUSH2 0x2FE JUMPI DUP1 PUSH4 0x55EFB287 EQ PUSH2 0x715 JUMPI DUP1 PUSH4 0x569E6290 EQ PUSH2 0x72B JUMPI DUP1 PUSH4 0x59BCA667 EQ PUSH2 0x74B JUMPI DUP1 PUSH4 0x5B9907A4 EQ PUSH2 0x761 JUMPI DUP1 PUSH4 0x5F80FED0 EQ PUSH2 0x783 JUMPI PUSH1 0x0 DUP1 REVERT JUMPDEST DUP1 PUSH4 0x3A0E81B0 EQ PUSH2 0x69F JUMPI DUP1 PUSH4 0x3E27C34B EQ PUSH2 0x6BF JUMPI DUP1 PUSH4 0x3FC8CEF3 EQ PUSH2 0x6D5 JUMPI DUP1 PUSH4 0x52E238FC EQ PUSH2 0x6F5 JUMPI PUSH1 0x0 DUP1 REVERT JUMPDEST DUP1 PUSH4 0x194C119D GT PUSH2 0x3B2 JUMPI DUP1 PUSH4 0x232B956C GT PUSH2 0x381 JUMPI DUP1 PUSH4 0x232B956C EQ PUSH2 0x5E3 JUMPI DUP1 PUSH4 0x2A6BC2DD EQ PUSH2 0x610 JUMPI DUP1 PUSH4 0x2E2DC43E EQ PUSH2 0x63D JUMPI DUP1 PUSH4 0x2F45580C EQ PUSH2 0x65F JUMPI DUP1 PUSH4 0x384BC466 EQ PUSH2 0x67F JUMPI PUSH1 0x0 DUP1 REVERT JUMPDEST DUP1 PUSH4 0x194C119D EQ PUSH2 0x56D JUMPI DUP1 PUSH4 0x1967FC07 EQ PUSH2 0x583 JUMPI DUP1 PUSH4 0x1F0BA6C9 EQ PUSH2 0x5A3 JUMPI DUP1 PUSH4 0x2313C231 EQ PUSH2 0x5C3 JUMPI PUSH1 0x0 DUP1 REVERT JUMPDEST DUP1 PUSH4 0x12D43A51 GT PUSH2 0x3F9 JUMPI DUP1 PUSH4 0x12D43A51 EQ PUSH2 0x4B5 JUMPI DUP1 PUSH4 0x16EE91BC EQ PUSH2 0x4ED JUMPI DUP1 PUSH4 0x16F0115B EQ PUSH2 0x50D JUMPI DUP1 PUSH4 0x171167C7 EQ PUSH2 0x52D JUMPI DUP1 PUSH4 0x18DCDCFA EQ PUSH2 0x54D JUMPI PUSH1 0x0 DUP1 REVERT JUMPDEST DUP1 PUSH3 0x922D0C EQ PUSH2 0x42A JUMPI DUP1 PUSH4 0x271FD0F EQ PUSH2 0x44C JUMPI DUP1 PUSH4 0xB33BA7A EQ PUSH2 0x46C JUMPI DUP1 PUSH4 0x1298F13C EQ PUSH2 0x48C JUMPI JUMPDEST PUSH1 0x0 DUP1 REVERT JUMPDEST CALLVALUE DUP1 ISZERO PUSH2 0x436 JUMPI PUSH1 0x0 DUP1 REVERT JUMPDEST POP PUSH2 0x44A PUSH2 0x445 CALLDATASIZE PUSH1 0x4 PUSH2 0x3906 JUMP JUMPDEST PUSH2 0xD2D JUMP JUMPDEST STOP JUMPDEST CALLVALUE DUP1 ISZERO PUSH2 0x458 JUMPI PUSH1 0x0 DUP1 REVERT JUMPDEST POP PUSH2 0x44A PUSH2 0x467 CALLDATASIZE PUSH1 0x4 PUSH2 0x3984 JUMP JUMPDEST PUSH2 0xEEC JUMP JUMPDEST CALLVALUE DUP1 ISZERO PUSH2 0x478 JUMPI PUSH1 0x0 DUP1 REVERT JUMPDEST POP PUSH2 0x44A PUSH2 0x487 CALLDATASIZE PUSH1 0x4 PUSH2 0x39B0 JUMP JUMPDEST PUSH2 0xF96 JUMP JUMPDEST CALLVALUE DUP1 ISZERO PUSH2 0x498 JUMPI PUSH1 0x0 DUP1 REVERT JUMPDEST POP PUSH2 0x4A2 PUSH1 0xC SLOAD DUP2 JUMP JUMPDEST PUSH1 0x40 MLOAD SWAP1 DUP2 MSTORE PUSH1 0x20 ADD JUMPDEST PUSH1 0x40 MLOAD DUP1 SWAP2 SUB SWAP1 RETURN JUMPDEST CALLVALUE DUP1 ISZERO PUSH2 0x4C1 JUMPI PUSH1 0x0 DUP1 REVERT JUMPDEST POP PUSH1 0x0 SLOAD PUSH2 0x4D5 SWAP1 PUSH1 0x1 PUSH1 0x1 PUSH1 0xA0 SHL SUB AND DUP2 JUMP JUMPDEST PUSH1 0x40 MLOAD PUSH1 0x1 PUSH1 0x1 PUSH1 0xA0 SHL SUB SWAP1 SWAP2 AND DUP2 MSTORE PUSH1 0x20 ADD PUSH2 0x4AC JUMP JUMPDEST CALLVALUE DUP1 ISZERO PUSH2 0x4F9 JUMPI PUSH1 0x0 DUP1 REVERT JUMPDEST POP PUSH2 0x44A PUSH2 0x508 CALLDATASIZE PUSH1 0x4 PUSH2 0x39CD JUMP JUMPDEST PUSH2 0x1051 JUMP JUMPDEST CALLVALUE DUP1 ISZERO PUSH2 0x519 JUMPI PUSH1 0x0 DUP1 REVERT JUMPDEST POP PUSH1 0x7 SLOAD PUSH2 0x4D5 SWAP1 PUSH1 0x1 PUSH1 0x1 PUSH1 0xA0 SHL SUB AND DUP2 JUMP JUMPDEST CALLVALUE DUP1 ISZERO PUSH2 0x539 JUMPI PUSH1 0x0 DUP1 REVERT JUMPDEST POP PUSH2 0x44A PUSH2 0x548 CALLDATASIZE PUSH1 0x4 PUSH2 0x39E6 JUMP JUMPDEST PUSH2 0x10AA JUMP JUMPDEST CALLVALUE DUP1 ISZERO PUSH2 0x559 JUMPI PUSH1 0x0 DUP1 REVERT JUMPDEST POP PUSH1 0x2 SLOAD PUSH2 0x4D5 SWAP1 PUSH1 0x1 PUSH1 0x1 PUSH1 0xA0 SHL SUB AND DUP2 JUMP JUMPDEST CALLVALUE DUP1 ISZERO PUSH2 0x579 JUMPI PUSH1 0x0 DUP1 REVERT JUMPDEST POP PUSH2 0x4A2 PUSH2 0x7D0 DUP2 JUMP JUMPDEST CALLVALUE DUP1 ISZERO PUSH2 0x58F JUMPI PUSH1 0x0 DUP1 REVERT JUMPDEST POP PUSH2 0x44A PUSH2 0x59E CALLDATASIZE PUSH1 0x4 PUSH2 0x39CD JUMP JUMPDEST PUSH2 0x1111 JUMP JUMPDEST CALLVALUE DUP1 ISZERO PUSH2 0x5AF JUMPI PUSH1 0x0 DUP1 REVERT JUMPDEST POP PUSH1 0x6 SLOAD PUSH2 0x4D5 SWAP1 PUSH1 0x1 PUSH1 0x1 PUSH1 0xA0 SHL SUB AND DUP2 JUMP JUMPDEST CALLVALUE DUP1 ISZERO PUSH2 0x5CF JUMPI PUSH1 0x0 DUP1 REVERT JUMPDEST POP PUSH2 0x44A PUSH2 0x5DE CALLDATASIZE PUSH1 0x4 PUSH2 0x3A4A JUMP JUMPDEST PUSH2 0x1140 JUMP JUMPDEST CALLVALUE DUP1 ISZERO PUSH2 0x5EF JUMPI PUSH1 0x0 DUP1 REVERT JUMPDEST POP PUSH2 0x603 PUSH2 0x5FE CALLDATASIZE PUSH1 0x4 PUSH2 0x39CD JUMP JUMPDEST PUSH2 0x120E JUMP JUMPDEST PUSH1 0x40 MLOAD PUSH2 0x4AC SWAP2 SWAP1 PUSH2 0x3ACE JUMP JUMPDEST CALLVALUE DUP1 ISZERO PUSH2 0x61C JUMPI PUSH1 0x0 DUP1 REVERT JUMPDEST POP PUSH2 0x630 PUSH2 0x62B CALLDATASIZE PUSH1 0x4 PUSH2 0x39B0 JUMP JUMPDEST PUSH2 0x12BA JUMP JUMPDEST PUSH1 0x40 MLOAD PUSH2 0x4AC SWAP2 SWAP1 PUSH2 0x3B5D JUMP JUMPDEST CALLVALUE DUP1 ISZERO PUSH2 0x649 JUMPI PUSH1 0x0 DUP1 REVERT JUMPDEST POP PUSH2 0x652 PUSH2 0x14AE JUMP JUMPDEST PUSH1 0x40 MLOAD PUSH2 0x4AC SWAP2 SWAP1 PUSH2 0x3CA2 JUMP JUMPDEST CALLVALUE DUP1 ISZERO PUSH2 0x66B JUMPI PUSH1 0x0 DUP1 REVERT JUMPDEST POP PUSH2 0x44A PUSH2 0x67A CALLDATASIZE PUSH1 0x4 PUSH2 0x3984 JUMP JUMPDEST PUSH2 0x16B7 JUMP JUMPDEST CALLVALUE DUP1 ISZERO PUSH2 0x68B JUMPI PUSH1 0x0 DUP1 REVERT JUMPDEST POP PUSH2 0x44A PUSH2 0x69A CALLDATASIZE PUSH1 0x4 PUSH2 0x3984 JUMP JUMPDEST PUSH2 0x1790 JUMP JUMPDEST CALLVALUE DUP1 ISZERO PUSH2 0x6AB JUMPI PUSH1 0x0 DUP1 REVERT JUMPDEST POP PUSH2 0x44A PUSH2 0x6BA CALLDATASIZE PUSH1 0x4 PUSH2 0x39E6 JUMP JUMPDEST PUSH2 0x1800 JUMP JUMPDEST CALLVALUE DUP1 ISZERO PUSH2 0x6CB JUMPI PUSH1 0x0 DUP1 REVERT JUMPDEST POP PUSH2 0x4A2 PUSH1 0xE SLOAD DUP2 JUMP JUMPDEST CALLVALUE DUP1 ISZERO PUSH2 0x6E1 JUMPI PUSH1 0x0 DUP1 REVERT JUMPDEST POP PUSH1 0x5 SLOAD PUSH2 0x4D5 SWAP1 PUSH1 0x1 PUSH1 0x1 PUSH1 0xA0 SHL SUB AND DUP2 JUMP JUMPDEST CALLVALUE DUP1 ISZERO PUSH2 0x701 JUMPI PUSH1 0x0 DUP1 REVERT JUMPDEST POP PUSH2 0x4D5 PUSH2 0x710 CALLDATASIZE PUSH1 0x4 PUSH2 0x39CD JUMP JUMPDEST PUSH2 0x1879 JUMP JUMPDEST CALLVALUE DUP1 ISZERO PUSH2 0x721 JUMPI PUSH1 0x0 DUP1 REVERT JUMPDEST POP PUSH2 0x4A2 PUSH2 0xE10 DUP2 JUMP JUMPDEST CALLVALUE DUP1 ISZERO PUSH2 0x737 JUMPI PUSH1 0x0 DUP1 REVERT JUMPDEST POP PUSH2 0x44A PUSH2 0x746 CALLDATASIZE PUSH1 0x4 PUSH2 0x3984 JUMP JUMPDEST PUSH2 0x188C JUMP JUMPDEST CALLVALUE DUP1 ISZERO PUSH2 0x757 JUMPI PUSH1 0x0 DUP1 REVERT JUMPDEST POP PUSH2 0x4A2 PUSH1 0xF SLOAD DUP2 JUMP JUMPDEST CALLVALUE DUP1 ISZERO PUSH2 0x76D JUMPI PUSH1 0x0 DUP1 REVERT JUMPDEST POP PUSH2 0x776 PUSH2 0x1904 JUMP JUMPDEST PUSH1 0x40 MLOAD PUSH2 0x4AC SWAP2 SWAP1 PUSH2 0x3CF7 JUMP JUMPDEST CALLVALUE DUP1 ISZERO PUSH2 0x78F JUMPI PUSH1 0x0 DUP1 REVERT JUMPDEST POP PUSH2 0x44A PUSH2 0x79E CALLDATASIZE PUSH1 0x4 PUSH2 0x39CD JUMP JUMPDEST PUSH2 0x19DD JUMP JUMPDEST CALLVALUE DUP1 ISZERO PUSH2 0x7AF JUMPI PUSH1 0x0 DUP1 REVERT JUMPDEST POP PUSH2 0x4A2 PUSH2 0x7BE CALLDATASIZE PUSH1 0x4 PUSH2 0x3D4C JUMP JUMPDEST PUSH2 0x1A0C JUMP JUMPDEST CALLVALUE DUP1 ISZERO PUSH2 0x7CF JUMPI PUSH1 0x0 DUP1 REVERT JUMPDEST POP PUSH2 0x652 PUSH2 0x7DE CALLDATASIZE PUSH1 0x4 PUSH2 0x39B0 JUMP JUMPDEST PUSH2 0x1A37 JUMP JUMPDEST CALLVALUE DUP1 ISZERO PUSH2 0x7EF JUMPI PUSH1 0x0 DUP1 REVERT JUMPDEST POP PUSH2 0x44A PUSH2 0x7FE CALLDATASIZE PUSH1 0x4 PUSH2 0x39CD JUMP JUMPDEST PUSH2 0x1C69 JUMP JUMPDEST CALLVALUE DUP1 ISZERO PUSH2 0x80F JUMPI PUSH1 0x0 DUP1 REVERT JUMPDEST POP PUSH2 0x4A2 PUSH1 0xA SLOAD DUP2 JUMP JUMPDEST CALLVALUE DUP1 ISZERO PUSH2 0x825 JUMPI PUSH1 0x0 DUP1 REVERT JUMPDEST POP PUSH2 0x44A PUSH2 0x834 CALLDATASIZE PUSH1 0x4 PUSH2 0x3984 JUMP JUMPDEST PUSH2 0x1C98 JUMP JUMPDEST CALLVALUE DUP1 ISZERO PUSH2 0x845 JUMPI PUSH1 0x0 DUP1 REVERT JUMPDEST POP PUSH2 0x44A PUSH2 0x854 CALLDATASIZE PUSH1 0x4 PUSH2 0x3984 JUMP JUMPDEST PUSH2 0x1D52 JUMP JUMPDEST CALLVALUE DUP1 ISZERO PUSH2 0x865 JUMPI PUSH1 0x0 DUP1 REVERT JUMPDEST POP PUSH2 0x4A2 PUSH2 0x874 CALLDATASIZE PUSH1 0x4 PUSH2 0x3D4C JUMP JUMPDEST PUSH2 0x1DA8 JUMP JUMPDEST CALLVALUE DUP1 ISZERO PUSH2 0x885 JUMPI PUSH1 0x0 DUP1 REVERT JUMPDEST POP PUSH2 0x4A2 PUSH2 0x2710 DUP2 JUMP JUMPDEST CALLVALUE DUP1 ISZERO PUSH2 0x89B JUMPI PUSH1 0x0 DUP1 REVERT JUMPDEST POP PUSH2 0x44A PUSH2 0x8AA CALLDATASIZE PUSH1 0x4 PUSH2 0x39CD JUMP JUMPDEST PUSH2 0x1DBC JUMP JUMPDEST CALLVALUE DUP1 ISZERO PUSH2 0x8BB JUMPI PUSH1 0x0 DUP1 REVERT JUMPDEST POP PUSH2 0x4A2 PUSH2 0x8CA CALLDATASIZE PUSH1 0x4 PUSH2 0x3D4C JUMP JUMPDEST PUSH2 0x1E0D JUMP JUMPDEST CALLVALUE DUP1 ISZERO PUSH2 0x8DB JUMPI PUSH1 0x0 DUP1 REVERT JUMPDEST POP PUSH2 0x4A2 PUSH2 0x8EA CALLDATASIZE PUSH1 0x4 PUSH2 0x3ED2 JUMP JUMPDEST PUSH2 0x1E21 JUMP JUMPDEST CALLVALUE DUP1 ISZERO PUSH2 0x8FB JUMPI PUSH1 0x0 DUP1 REVERT JUMPDEST POP PUSH2 0x4A2 PUSH2 0x1FD2 JUMP JUMPDEST CALLVALUE DUP1 ISZERO PUSH2 0x910 JUMPI PUSH1 0x0 DUP1 REVERT JUMPDEST POP PUSH2 0x44A PUSH2 0x91F CALLDATASIZE PUSH1 0x4 PUSH2 0x3FD9 JUMP JUMPDEST PUSH2 0x1FE3 JUMP JUMPDEST CALLVALUE DUP1 ISZERO PUSH2 0x930 JUMPI PUSH1 0x0 DUP1 REVERT JUMPDEST POP PUSH2 0x4A2 PUSH2 0x93F CALLDATASIZE PUSH1 0x4 PUSH2 0x3D4C JUMP JUMPDEST PUSH2 0x205D JUMP JUMPDEST CALLVALUE DUP1 ISZERO PUSH2 0x950 JUMPI PUSH1 0x0 DUP1 REVERT JUMPDEST POP PUSH2 0x4A2 PUSH1 0xB SLOAD DUP2 JUMP JUMPDEST CALLVALUE DUP1 ISZERO PUSH2 0x966 JUMPI PUSH1 0x0 DUP1 REVERT JUMPDEST POP PUSH2 0x4A2 PUSH2 0x975 CALLDATASIZE PUSH1 0x4 PUSH2 0x403D JUMP JUMPDEST PUSH2 0x2071 JUMP JUMPDEST CALLVALUE DUP1 ISZERO PUSH2 0x986 JUMPI PUSH1 0x0 DUP1 REVERT JUMPDEST POP PUSH2 0x44A PUSH2 0x995 CALLDATASIZE PUSH1 0x4 PUSH2 0x407B JUMP JUMPDEST PUSH2 0x2113 JUMP JUMPDEST CALLVALUE DUP1 ISZERO PUSH2 0x9A6 JUMPI PUSH1 0x0 DUP1 REVERT JUMPDEST POP PUSH2 0x44A PUSH2 0x9B5 CALLDATASIZE PUSH1 0x4 PUSH2 0x39CD JUMP JUMPDEST PUSH2 0x218A JUMP JUMPDEST CALLVALUE DUP1 ISZERO PUSH2 0x9C6 JUMPI PUSH1 0x0 DUP1 REVERT JUMPDEST POP PUSH2 0x4A2 PUSH1 0xD SLOAD DUP2 JUMP JUMPDEST CALLVALUE DUP1 ISZERO PUSH2 0x9DC JUMPI PUSH1 0x0 DUP1 REVERT JUMPDEST POP PUSH2 0x44A PUSH2 0x9EB CALLDATASIZE PUSH1 0x4 PUSH2 0x39CD JUMP JUMPDEST PUSH2 0x21DB JUMP JUMPDEST CALLVALUE DUP1 ISZERO PUSH2 0x9FC JUMPI PUSH1 0x0 DUP1 REVERT JUMPDEST POP PUSH2 0x44A PUSH2 0xA0B CALLDATASIZE PUSH1 0x4 PUSH2 0x39CD JUMP JUMPDEST PUSH2 0x23F5 JUMP JUMPDEST CALLVALUE DUP1 ISZERO PUSH2 0xA1C JUMPI PUSH1 0x0 DUP1 REVERT JUMPDEST POP PUSH2 0x44A PUSH2 0xA2B CALLDATASIZE PUSH1 0x4 PUSH2 0x3984 JUMP JUMPDEST PUSH2 0x2476 JUMP JUMPDEST CALLVALUE DUP1 ISZERO PUSH2 0xA3C JUMPI PUSH1 0x0 DUP1 REVERT JUMPDEST POP PUSH2 0x4A2 PUSH1 0x8 SLOAD DUP2 JUMP JUMPDEST CALLVALUE DUP1 ISZERO PUSH2 0xA52 JUMPI PUSH1 0x0 DUP1 REVERT JUMPDEST POP PUSH2 0xA66 PUSH2 0xA61 CALLDATASIZE PUSH1 0x4 PUSH2 0x3D4C JUMP JUMPDEST PUSH2 0x24EE JUMP JUMPDEST PUSH1 0x40 MLOAD PUSH2 0x4AC SWAP2 SWAP1 PUSH2 0x40B6 JUMP JUMPDEST CALLVALUE DUP1 ISZERO PUSH2 0xA7F JUMPI PUSH1 0x0 DUP1 REVERT JUMPDEST POP PUSH2 0x44A PUSH2 0xA8E CALLDATASIZE PUSH1 0x4 PUSH2 0x39CD JUMP JUMPDEST PUSH2 0x265B JUMP JUMPDEST CALLVALUE DUP1 ISZERO PUSH2 0xA9F JUMPI PUSH1 0x0 DUP1 REVERT JUMPDEST POP PUSH2 0x44A PUSH2 0xAAE CALLDATASIZE PUSH1 0x4 PUSH2 0x3906 JUMP JUMPDEST PUSH2 0x26D4 JUMP JUMPDEST CALLVALUE DUP1 ISZERO PUSH2 0xABF JUMPI PUSH1 0x0 DUP1 REVERT JUMPDEST POP PUSH2 0x4A2 PUSH2 0xACE CALLDATASIZE PUSH1 0x4 PUSH2 0x39B0 JUMP JUMPDEST PUSH1 0x1 PUSH1 0x1 PUSH1 0xA0 SHL SUB AND PUSH1 0x0 SWAP1 DUP2 MSTORE PUSH1 0x1E PUSH1 0x20 MSTORE PUSH1 0x40 SWAP1 KECCAK256 SLOAD SWAP1 JUMP JUMPDEST CALLVALUE DUP1 ISZERO PUSH2 0xAF5 JUMPI PUSH1 0x0 DUP1 REVERT JUMPDEST POP PUSH2 0x4A2 PUSH1 0x9 SLOAD DUP2 JUMP JUMPDEST CALLVALUE DUP1 ISZERO PUSH2 0xB0B JUMPI PUSH1 0x0 DUP1 REVERT JUMPDEST POP PUSH2 0x4A2 PUSH2 0x281C JUMP JUMPDEST CALLVALUE DUP1 ISZERO PUSH2 0xB20 JUMPI PUSH1 0x0 DUP1 REVERT JUMPDEST POP PUSH2 0xB34 PUSH2 0xB2F CALLDATASIZE PUSH1 0x4 PUSH2 0x414F JUMP JUMPDEST PUSH2 0x288A JUMP JUMPDEST PUSH1 0x40 MLOAD PUSH2 0x4AC SWAP2 SWAP1 PUSH2 0x41A3 JUMP JUMPDEST CALLVALUE DUP1 ISZERO PUSH2 0xB4D JUMPI PUSH1 0x0 DUP1 REVERT JUMPDEST POP PUSH2 0x4A2 PUSH2 0xB5C CALLDATASIZE PUSH1 0x4 PUSH2 0x39B0 JUMP JUMPDEST PUSH2 0x29BE JUMP JUMPDEST CALLVALUE DUP1 ISZERO PUSH2 0xB6D JUMPI PUSH1 0x0 DUP1 REVERT JUMPDEST POP PUSH2 0x4A2 PUSH2 0x1F4 DUP2 JUMP JUMPDEST CALLVALUE DUP1 ISZERO PUSH2 0xB83 JUMPI PUSH1 0x0 DUP1 REVERT JUMPDEST POP PUSH2 0x44A PUSH2 0xB92 CALLDATASIZE PUSH1 0x4 PUSH2 0x41B6 JUMP JUMPDEST PUSH2 0x2AD8 JUMP JUMPDEST CALLVALUE DUP1 ISZERO PUSH2 0xBA3 JUMPI PUSH1 0x0 DUP1 REVERT JUMPDEST POP PUSH2 0x44A PUSH2 0xBB2 CALLDATASIZE PUSH1 0x4 PUSH2 0x39CD JUMP JUMPDEST PUSH2 0x2B41 JUMP JUMPDEST CALLVALUE DUP1 ISZERO PUSH2 0xBC3 JUMPI PUSH1 0x0 DUP1 REVERT JUMPDEST POP PUSH1 0x3 SLOAD PUSH2 0x4D5 SWAP1 PUSH1 0x1 PUSH1 0x1 PUSH1 0xA0 SHL SUB AND DUP2 JUMP JUMPDEST CALLVALUE DUP1 ISZERO PUSH2 0xBE3 JUMPI PUSH1 0x0 DUP1 REVERT JUMPDEST POP PUSH1 0x4 SLOAD PUSH2 0x4D5 SWAP1 PUSH1 0x1 PUSH1 0x1 PUSH1 0xA0 SHL SUB AND DUP2 JUMP JUMPDEST CALLVALUE DUP1 ISZERO PUSH2 0xC03 JUMPI PUSH1 0x0 DUP1 REVERT JUMPDEST POP PUSH2 0xC17 PUSH2 0xC12 CALLDATASIZE PUSH1 0x4 PUSH2 0x39CD JUMP JUMPDEST PUSH2 0x2B85 JUMP JUMPDEST PUSH1 0x40 MLOAD PUSH2 0x4AC SWAP2 SWAP1 PUSH2 0x4201 JUMP JUMPDEST CALLVALUE DUP1 ISZERO PUSH2 0xC30 JUMPI PUSH1 0x0 DUP1 REVERT JUMPDEST POP PUSH2 0x44A PUSH2 0xC3F CALLDATASIZE PUSH1 0x4 PUSH2 0x4214 JUMP JUMPDEST PUSH2 0x2CE3 JUMP JUMPDEST CALLVALUE DUP1 ISZERO PUSH2 0xC50 JUMPI PUSH1 0x0 DUP1 REVERT JUMPDEST POP PUSH2 0x4A2 PUSH2 0xC5F CALLDATASIZE PUSH1 0x4 PUSH2 0x3D4C JUMP JUMPDEST PUSH2 0x2E62 JUMP JUMPDEST CALLVALUE DUP1 ISZERO PUSH2 0xC70 JUMPI PUSH1 0x0 DUP1 REVERT JUMPDEST POP PUSH1 0x1 SLOAD PUSH2 0x4D5 SWAP1 PUSH1 0x1 PUSH1 0x1 PUSH1 0xA0 SHL SUB AND DUP2 JUMP JUMPDEST PUSH2 0x4A2 PUSH2 0xC92 CALLDATASIZE PUSH1 0x4 PUSH2 0x427C JUMP JUMPDEST PUSH2 0x2E9F JUMP JUMPDEST CALLVALUE DUP1 ISZERO PUSH2 0xCA3 JUMPI PUSH1 0x0 DUP1 REVERT JUMPDEST POP PUSH2 0x44A PUSH2 0xCB2 CALLDATASIZE PUSH1 0x4 PUSH2 0x3984 JUMP JUMPDEST PUSH2 0x30A0 JUMP JUMPDEST CALLVALUE DUP1 ISZERO PUSH2 0xCC3 JUMPI PUSH1 0x0 DUP1 REVERT JUMPDEST POP PUSH2 0x44A PUSH2 0xCD2 CALLDATASIZE PUSH1 0x4 PUSH2 0x414F JUMP JUMPDEST PUSH2 0x30F7 JUMP JUMPDEST CALLVALUE DUP1 ISZERO PUSH2 0xCE3 JUMPI PUSH1 0x0 DUP1 REVERT JUMPDEST POP PUSH2 0x4A2 PUSH2 0xCF2 CALLDATASIZE PUSH1 0x4 PUSH2 0x39B0 JUMP JUMPDEST PUSH1 0x1 PUSH1 0x1 PUSH1 0xA0 SHL SUB AND PUSH1 0x0 SWAP1 DUP2 MSTORE PUSH1 0x1D PUSH1 0x20 MSTORE PUSH1 0x40 SWAP1 KECCAK256 SLOAD SWAP1 JUMP JUMPDEST CALLVALUE DUP1 ISZERO PUSH2 0xD19 JUMPI PUSH1 0x0 DUP1 REVERT JUMPDEST POP PUSH2 0x44A PUSH2 0xD28 CALLDATASIZE PUSH1 0x4 PUSH2 0x39CD JUMP JUMPDEST PUSH2 0x31C3 JUMP JUMPDEST PUSH1 0x6 SLOAD PUSH1 0x1 PUSH1 0x1 PUSH1 0xA0 SHL SUB AND CALLER EQ DUP1 PUSH2 0xD50 JUMPI POP PUSH1 0x7 SLOAD PUSH1 0x1 PUSH1 0x1 PUSH1 0xA0 SHL SUB AND CALLER EQ JUMPDEST PUSH2 0xD75 JUMPI PUSH1 0x40 MLOAD PUSH3 0x461BCD PUSH1 0xE5 SHL DUP2 MSTORE PUSH1 0x4 ADD PUSH2 0xD6C SWAP1 PUSH2 0x42D7 JUMP JUMPDEST PUSH1 0x40 MLOAD DUP1 SWAP2 SUB SWAP1 REVERT JUMPDEST DUP1 ISZERO PUSH2 0xE33 JUMPI DUP2 PUSH1 0x1B DUP6 DUP6 PUSH1 0x40 MLOAD PUSH2 0xD8E SWAP3 SWAP2 SWAP1 PUSH2 0x42FA JUMP JUMPDEST SWAP1 DUP2 MSTORE PUSH1 0x20 ADD PUSH1 0x40 MLOAD DUP1 SWAP2 SUB SWAP1 KECCAK256 PUSH1 0x0 DUP3 DUP3 SLOAD PUSH2 0xDAB SWAP2 SWAP1 PUSH2 0x4320 JUMP JUMPDEST SWAP1 SWAP2 SSTORE POP POP PUSH1 0x40 MLOAD PUSH1 0x1B SWAP1 PUSH2 0xDC3 SWAP1 DUP7 SWAP1 DUP7 SWAP1 PUSH2 0x42FA JUMP JUMPDEST SWAP1 DUP2 MSTORE PUSH1 0x20 ADD PUSH1 0x40 MLOAD DUP1 SWAP2 SUB SWAP1 KECCAK256 SLOAD PUSH1 0x16 DUP6 DUP6 PUSH1 0x40 MLOAD PUSH2 0xDE4 SWAP3 SWAP2 SWAP1 PUSH2 0x42FA JUMP JUMPDEST SWAP1 DUP2 MSTORE PUSH1 0x20 ADD PUSH1 0x40 MLOAD DUP1 SWAP2 SUB SWAP1 KECCAK256 PUSH1 0x2 ADD SLOAD LT ISZERO PUSH2 0xE2E JUMPI PUSH1 0x40 MLOAD PUSH3 0x461BCD PUSH1 0xE5 SHL DUP2 MSTORE PUSH1 0x20 PUSH1 0x4 DUP3 ADD MSTORE PUSH1 0x7 PUSH1 0x24 DUP3 ADD MSTORE PUSH7 0x216D61782D6F69 PUSH1 0xC8 SHL PUSH1 0x44 DUP3 ADD MSTORE PUSH1 0x64 ADD PUSH2 0xD6C JUMP JUMPDEST PUSH2 0xEE6 JUMP JUMPDEST DUP2 PUSH1 0x1C DUP6 DUP6 PUSH1 0x40 MLOAD PUSH2 0xE46 SWAP3 SWAP2 SWAP1 PUSH2 0x42FA JUMP JUMPDEST SWAP1 DUP2 MSTORE PUSH1 0x20 ADD PUSH1 0x40 MLOAD DUP1 SWAP2 SUB SWAP1 KECCAK256 PUSH1 0x0 DUP3 DUP3 SLOAD PUSH2 0xE63 SWAP2 SWAP1 PUSH2 0x4320 JUMP JUMPDEST SWAP1 SWAP2 SSTORE POP POP PUSH1 0x40 MLOAD PUSH1 0x1C SWAP1 PUSH2 0xE7B SWAP1 DUP7 SWAP1 DUP7 SWAP1 PUSH2 0x42FA JUMP JUMPDEST SWAP1 DUP2 MSTORE PUSH1 0x20 ADD PUSH1 0x40 MLOAD DUP1 SWAP2 SUB SWAP1 KECCAK256 SLOAD PUSH1 0x16 DUP6 DUP6 PUSH1 0x40 MLOAD PUSH2 0xE9C SWAP3 SWAP2 SWAP1 PUSH2 0x42FA JUMP JUMPDEST SWAP1 DUP2 MSTORE PUSH1 0x20 ADD PUSH1 0x40 MLOAD DUP1 SWAP2 SUB SWAP1 KECCAK256 PUSH1 0x2 ADD SLOAD LT ISZERO PUSH2 0xEE6 JUMPI PUSH1 0x40 MLOAD PUSH3 0x461BCD PUSH1 0xE5 SHL DUP2 MSTORE PUSH1 0x20 PUSH1 0x4 DUP3 ADD MSTORE PUSH1 0x7 PUSH1 0x24 DUP3 ADD MSTORE PUSH7 0x216D61782D6F69 PUSH1 0xC8 SHL PUSH1 0x44 DUP3 ADD MSTORE PUSH1 0x64 ADD PUSH2 0xD6C JUMP JUMPDEST POP POP POP POP JUMP JUMPDEST PUSH1 0x6 SLOAD PUSH1 0x1 PUSH1 0x1 PUSH1 0xA0 SHL SUB AND CALLER EQ DUP1 PUSH2 0xF0F JUMPI POP PUSH1 0x7 SLOAD PUSH1 0x1 PUSH1 0x1 PUSH1 0xA0 SHL SUB AND CALLER EQ JUMPDEST PUSH2 0xF2B JUMPI PUSH1 0x40 MLOAD PUSH3 0x461BCD PUSH1 0xE5 SHL DUP2 MSTORE PUSH1 0x4 ADD PUSH2 0xD6C SWAP1 PUSH2 0x42D7 JUMP JUMPDEST PUSH1 0x2 SLOAD PUSH1 0x40 MLOAD PUSH4 0x40C10F19 PUSH1 0xE0 SHL DUP2 MSTORE PUSH1 0x1 PUSH1 0x1 PUSH1 0xA0 SHL SUB DUP5 DUP2 AND PUSH1 0x4 DUP4 ADD MSTORE PUSH1 0x24 DUP3 ADD DUP5 SWAP1 MSTORE SWAP1 SWAP2 AND SWAP1 PUSH4 0x40C10F19 SWAP1 PUSH1 0x44 ADD JUMPDEST PUSH1 0x0 PUSH1 0x40 MLOAD DUP1 DUP4 SUB DUP2 PUSH1 0x0 DUP8 DUP1 EXTCODESIZE ISZERO DUP1 ISZERO PUSH2 0xF7A JUMPI PUSH1 0x0 DUP1 REVERT JUMPDEST POP GAS CALL ISZERO DUP1 ISZERO PUSH2 0xF8E JUMPI RETURNDATASIZE PUSH1 0x0 DUP1 RETURNDATACOPY RETURNDATASIZE PUSH1 0x0 REVERT JUMPDEST POP POP POP POP POP POP JUMP JUMPDEST PUSH1 0x0 SLOAD PUSH1 0x1 PUSH1 0x1 PUSH1 0xA0 SHL SUB AND CALLER EQ PUSH2 0xFC0 JUMPI PUSH1 0x40 MLOAD PUSH3 0x461BCD PUSH1 0xE5 SHL DUP2 MSTORE PUSH1 0x4 ADD PUSH2 0xD6C SWAP1 PUSH2 0x4333 JUMP JUMPDEST PUSH1 0x1 PUSH1 0x1 PUSH1 0xA0 SHL SUB DUP2 AND PUSH2 0x1001 JUMPI PUSH1 0x40 MLOAD PUSH3 0x461BCD PUSH1 0xE5 SHL DUP2 MSTORE PUSH1 0x20 PUSH1 0x4 DUP3 ADD MSTORE PUSH1 0x8 PUSH1 0x24 DUP3 ADD MSTORE PUSH8 0x2161646472657373 PUSH1 0xC0 SHL PUSH1 0x44 DUP3 ADD MSTORE PUSH1 0x64 ADD PUSH2 0xD6C JUMP JUMPDEST PUSH1 0x0 DUP1 SLOAD PUSH1 0x1 PUSH1 0x1 PUSH1 0xA0 SHL SUB DUP4 DUP2 AND PUSH1 0x1 PUSH1 0x1 PUSH1 0xA0 SHL SUB NOT DUP4 AND DUP2 OR DUP5 SSTORE PUSH1 0x40 MLOAD SWAP2 SWAP1 SWAP3 AND SWAP3 DUP4 SWAP2 PUSH32 0x434A2DB650703B36C824E745330D6397CDAA9EE2CC891A4938AE853E1C50B68D SWAP2 SWAP1 LOG3 POP POP JUMP JUMPDEST PUSH1 0x6 SLOAD PUSH1 0x1 PUSH1 0x1 PUSH1 0xA0 SHL SUB AND CALLER EQ DUP1 PUSH2 0x1074 JUMPI POP PUSH1 0x7 SLOAD PUSH1 0x1 PUSH1 0x1 PUSH1 0xA0 SHL SUB AND CALLER EQ JUMPDEST PUSH2 0x1090 JUMPI PUSH1 0x40 MLOAD PUSH3 0x461BCD PUSH1 0xE5 SHL DUP2 MSTORE PUSH1 0x4 ADD PUSH2 0xD6C SWAP1 PUSH2 0x42D7 JUMP JUMPDEST DUP1 PUSH1 0xC PUSH1 0x0 DUP3 DUP3 SLOAD PUSH2 0x10A2 SWAP2 SWAP1 PUSH2 0x4358 JUMP JUMPDEST SWAP1 SWAP2 SSTORE POP POP POP JUMP JUMPDEST PUSH1 0x6 SLOAD PUSH1 0x1 PUSH1 0x1 PUSH1 0xA0 SHL SUB AND CALLER EQ DUP1 PUSH2 0x10CD JUMPI POP PUSH1 0x7 SLOAD PUSH1 0x1 PUSH1 0x1 PUSH1 0xA0 SHL SUB AND CALLER EQ JUMPDEST PUSH2 0x10E9 JUMPI PUSH1 0x40 MLOAD PUSH3 0x461BCD PUSH1 0xE5 SHL DUP2 MSTORE PUSH1 0x4 ADD PUSH2 0xD6C SWAP1 PUSH2 0x42D7 JUMP JUMPDEST DUP1 PUSH1 0x22 DUP5 DUP5 PUSH1 0x40 MLOAD PUSH2 0x10FC SWAP3 SWAP2 SWAP1 PUSH2 0x42FA JUMP JUMPDEST SWAP1 DUP2 MSTORE PUSH1 0x40 MLOAD SWAP1 DUP2 SWAP1 SUB PUSH1 0x20 ADD SWAP1 KECCAK256 SSTORE POP POP POP JUMP JUMPDEST PUSH1 0x0 SLOAD PUSH1 0x1 PUSH1 0x1 PUSH1 0xA0 SHL SUB AND CALLER EQ PUSH2 0x113B JUMPI PUSH1 0x40 MLOAD PUSH3 0x461BCD PUSH1 0xE5 SHL DUP2 MSTORE PUSH1 0x4 ADD PUSH2 0xD6C SWAP1 PUSH2 0x4333 JUMP JUMPDEST PUSH1 0x8 SSTORE JUMP JUMPDEST PUSH1 0x6 SLOAD PUSH1 0x1 PUSH1 0x1 PUSH1 0xA0 SHL SUB AND CALLER EQ DUP1 PUSH2 0x1163 JUMPI POP PUSH1 0x7 SLOAD PUSH1 0x1 PUSH1 0x1 PUSH1 0xA0 SHL SUB AND CALLER EQ JUMPDEST PUSH2 0x117F JUMPI PUSH1 0x40 MLOAD PUSH3 0x461BCD PUSH1 0xE5 SHL DUP2 MSTORE PUSH1 0x4 ADD PUSH2 0xD6C SWAP1 PUSH2 0x42D7 JUMP JUMPDEST PUSH1 0x0 PUSH2 0x11A6 PUSH2 0x1194 PUSH1 0x60 DUP5 ADD PUSH1 0x40 DUP6 ADD PUSH2 0x39B0 JUMP JUMPDEST PUSH2 0x11A1 PUSH1 0x60 DUP6 ADD DUP6 PUSH2 0x436B JUMP JUMPDEST PUSH2 0x3214 JUMP JUMPDEST PUSH1 0x0 DUP2 DUP2 MSTORE PUSH1 0x17 PUSH1 0x20 MSTORE PUSH1 0x40 SWAP1 KECCAK256 SWAP1 SWAP2 POP DUP3 SWAP1 PUSH2 0x11C3 DUP3 DUP3 PUSH2 0x4521 JUMP JUMPDEST POP PUSH2 0x11FD SWAP1 POP DUP2 PUSH1 0x1A PUSH1 0x0 PUSH2 0x11DE PUSH1 0x60 DUP8 ADD PUSH1 0x40 DUP9 ADD PUSH2 0x39B0 JUMP JUMPDEST PUSH1 0x1 PUSH1 0x1 PUSH1 0xA0 SHL SUB AND DUP2 MSTORE PUSH1 0x20 DUP2 ADD SWAP2 SWAP1 SWAP2 MSTORE PUSH1 0x40 ADD PUSH1 0x0 KECCAK256 SWAP1 PUSH2 0x324A JUMP JUMPDEST POP PUSH2 0x1209 PUSH1 0x18 DUP3 PUSH2 0x324A JUMP JUMPDEST POP POP POP JUMP JUMPDEST PUSH1 0x15 DUP2 DUP2 SLOAD DUP2 LT PUSH2 0x121E JUMPI PUSH1 0x0 DUP1 REVERT JUMPDEST SWAP1 PUSH1 0x0 MSTORE PUSH1 0x20 PUSH1 0x0 KECCAK256 ADD PUSH1 0x0 SWAP2 POP SWAP1 POP DUP1 SLOAD PUSH2 0x1239 SWAP1 PUSH2 0x43D8 JUMP JUMPDEST DUP1 PUSH1 0x1F ADD PUSH1 0x20 DUP1 SWAP2 DIV MUL PUSH1 0x20 ADD PUSH1 0x40 MLOAD SWAP1 DUP2 ADD PUSH1 0x40 MSTORE DUP1 SWAP3 SWAP2 SWAP1 DUP2 DUP2 MSTORE PUSH1 0x20 ADD DUP3 DUP1 SLOAD PUSH2 0x1265 SWAP1 PUSH2 0x43D8 JUMP JUMPDEST DUP1 ISZERO PUSH2 0x12B2 JUMPI DUP1 PUSH1 0x1F LT PUSH2 0x1287 JUMPI PUSH2 0x100 DUP1 DUP4 SLOAD DIV MUL DUP4 MSTORE SWAP2 PUSH1 0x20 ADD SWAP2 PUSH2 0x12B2 JUMP JUMPDEST DUP3 ADD SWAP2 SWAP1 PUSH1 0x0 MSTORE PUSH1 0x20 PUSH1 0x0 KECCAK256 SWAP1 JUMPDEST DUP2 SLOAD DUP2 MSTORE SWAP1 PUSH1 0x1 ADD SWAP1 PUSH1 0x20 ADD DUP1 DUP4 GT PUSH2 0x1295 JUMPI DUP3 SWAP1 SUB PUSH1 0x1F AND DUP3 ADD SWAP2 JUMPDEST POP POP POP POP POP DUP2 JUMP JUMPDEST PUSH1 0x1 PUSH1 0x1 PUSH1 0xA0 SHL SUB DUP2 AND PUSH1 0x0 SWAP1 DUP2 MSTORE PUSH1 0x1A PUSH1 0x20 MSTORE PUSH1 0x40 DUP2 KECCAK256 PUSH1 0x60 SWAP2 SWAP1 PUSH2 0x12DF SWAP1 PUSH2 0x3256 JUMP JUMPDEST SWAP1 POP DUP1 PUSH1 0x1 PUSH1 0x1 PUSH1 0x40 SHL SUB DUP2 GT ISZERO PUSH2 0x12F9 JUMPI PUSH2 0x12F9 PUSH2 0x3D8D JUMP JUMPDEST PUSH1 0x40 MLOAD SWAP1 DUP1 DUP3 MSTORE DUP1 PUSH1 0x20 MUL PUSH1 0x20 ADD DUP3 ADD PUSH1 0x40 MSTORE DUP1 ISZERO PUSH2 0x1332 JUMPI DUP2 PUSH1 0x20 ADD JUMPDEST PUSH2 0x131F PUSH2 0x37A3 JUMP JUMPDEST DUP2 MSTORE PUSH1 0x20 ADD SWAP1 PUSH1 0x1 SWAP1 SUB SWAP1 DUP2 PUSH2 0x1317 JUMPI SWAP1 POP JUMPDEST POP SWAP2 POP PUSH1 0x0 JUMPDEST DUP2 DUP2 LT ISZERO PUSH2 0x14A7 JUMPI PUSH1 0x1 PUSH1 0x1 PUSH1 0xA0 SHL SUB DUP5 AND PUSH1 0x0 SWAP1 DUP2 MSTORE PUSH1 0x1A PUSH1 0x20 MSTORE PUSH1 0x40 DUP2 KECCAK256 PUSH1 0x17 SWAP2 SWAP1 PUSH2 0x1366 SWAP1 DUP5 PUSH2 0x3260 JUMP JUMPDEST DUP2 MSTORE PUSH1 0x20 DUP1 DUP3 ADD SWAP3 SWAP1 SWAP3 MSTORE PUSH1 0x40 SWAP1 DUP2 ADD PUSH1 0x0 KECCAK256 DUP2 MLOAD PUSH2 0x100 DUP1 DUP3 ADD DUP5 MSTORE DUP3 SLOAD PUSH1 0xFF DUP2 AND ISZERO ISZERO DUP4 MSTORE SWAP1 DUP2 DIV PUSH1 0x1 PUSH1 0x1 PUSH1 0x40 SHL SUB AND SWAP5 DUP3 ADD SWAP5 SWAP1 SWAP5 MSTORE PUSH1 0x1 PUSH1 0x48 SHL SWAP1 SWAP4 DIV PUSH1 0x1 PUSH1 0x1 PUSH1 0xA0 SHL SUB AND SWAP2 DUP4 ADD SWAP2 SWAP1 SWAP2 MSTORE PUSH1 0x1 DUP2 ADD DUP1 SLOAD PUSH1 0x60 DUP5 ADD SWAP2 SWAP1 PUSH2 0x13CD SWAP1 PUSH2 0x43D8 JUMP JUMPDEST DUP1 PUSH1 0x1F ADD PUSH1 0x20 DUP1 SWAP2 DIV MUL PUSH1 0x20 ADD PUSH1 0x40 MLOAD SWAP1 DUP2 ADD PUSH1 0x40 MSTORE DUP1 SWAP3 SWAP2 SWAP1 DUP2 DUP2 MSTORE PUSH1 0x20 ADD DUP3 DUP1 SLOAD PUSH2 0x13F9 SWAP1 PUSH2 0x43D8 JUMP JUMPDEST DUP1 ISZERO PUSH2 0x1446 JUMPI DUP1 PUSH1 0x1F LT PUSH2 0x141B JUMPI PUSH2 0x100 DUP1 DUP4 SLOAD DIV MUL DUP4 MSTORE SWAP2 PUSH1 0x20 ADD SWAP2 PUSH2 0x1446 JUMP JUMPDEST DUP3 ADD SWAP2 SWAP1 PUSH1 0x0 MSTORE PUSH1 0x20 PUSH1 0x0 KECCAK256 SWAP1 JUMPDEST DUP2 SLOAD DUP2 MSTORE SWAP1 PUSH1 0x1 ADD SWAP1 PUSH1 0x20 ADD DUP1 DUP4 GT PUSH2 0x1429 JUMPI DUP3 SWAP1 SUB PUSH1 0x1F AND DUP3 ADD SWAP2 JUMPDEST POP POP POP POP POP DUP2 MSTORE PUSH1 0x20 ADD PUSH1 0x2 DUP3 ADD SLOAD DUP2 MSTORE PUSH1 0x20 ADD PUSH1 0x3 DUP3 ADD SLOAD DUP2 MSTORE PUSH1 0x20 ADD PUSH1 0x4 DUP3 ADD SLOAD DUP2 MSTORE PUSH1 0x20 ADD PUSH1 0x5 DUP3 ADD SLOAD DUP2 MSTORE POP POP DUP4 DUP3 DUP2 MLOAD DUP2 LT PUSH2 0x1489 JUMPI PUSH2 0x1489 PUSH2 0x4609 JUMP JUMPDEST PUSH1 0x20 MUL PUSH1 0x20 ADD ADD DUP2 SWAP1 MSTORE POP DUP1 DUP1 PUSH2 0x149F SWAP1 PUSH2 0x461F JUMP JUMPDEST SWAP2 POP POP PUSH2 0x1338 JUMP JUMPDEST POP POP SWAP2 SWAP1 POP JUMP JUMPDEST PUSH1 0x60 PUSH1 0x0 PUSH2 0x14BC PUSH1 0x13 PUSH2 0x3256 JUMP JUMPDEST SWAP1 POP DUP1 PUSH1 0x1 PUSH1 0x1 PUSH1 0x40 SHL SUB DUP2 GT ISZERO PUSH2 0x14D6 JUMPI PUSH2 0x14D6 PUSH2 0x3D8D JUMP JUMPDEST PUSH1 0x40 MLOAD SWAP1 DUP1 DUP3 MSTORE DUP1 PUSH1 0x20 MUL PUSH1 0x20 ADD DUP3 ADD PUSH1 0x40 MSTORE DUP1 ISZERO PUSH2 0x150F JUMPI DUP2 PUSH1 0x20 ADD JUMPDEST PUSH2 0x14FC PUSH2 0x37FC JUMP JUMPDEST DUP2 MSTORE PUSH1 0x20 ADD SWAP1 PUSH1 0x1 SWAP1 SUB SWAP1 DUP2 PUSH2 0x14F4 JUMPI SWAP1 POP JUMPDEST POP SWAP2 POP PUSH1 0x0 JUMPDEST DUP2 DUP2 LT ISZERO PUSH2 0x16B2 JUMPI PUSH1 0x11 PUSH1 0x0 PUSH2 0x152C PUSH1 0x13 DUP5 PUSH2 0x3260 JUMP JUMPDEST DUP2 MSTORE PUSH1 0x20 DUP1 DUP3 ADD SWAP3 SWAP1 SWAP3 MSTORE PUSH1 0x40 SWAP1 DUP2 ADD PUSH1 0x0 KECCAK256 DUP2 MLOAD PUSH2 0x160 DUP2 ADD DUP4 MSTORE DUP2 SLOAD PUSH1 0xFF DUP1 DUP3 AND ISZERO ISZERO DUP4 MSTORE PUSH2 0x100 DUP3 DIV DUP2 AND ISZERO ISZERO SWAP6 DUP4 ADD SWAP6 SWAP1 SWAP6 MSTORE PUSH3 0x10000 DUP2 DIV SWAP1 SWAP5 AND SWAP3 DUP2 ADD SWAP3 SWAP1 SWAP3 MSTORE PUSH4 0x1000000 DUP4 DIV PUSH1 0x1 PUSH1 0x1 PUSH1 0x48 SHL SUB AND PUSH1 0x60 DUP4 ADD MSTORE PUSH1 0x1 PUSH1 0x60 SHL SWAP1 SWAP3 DIV PUSH1 0x1 PUSH1 0x1 PUSH1 0xA0 SHL SUB AND PUSH1 0x80 DUP3 ADD MSTORE PUSH1 0x1 DUP3 ADD DUP1 SLOAD SWAP2 SWAP3 SWAP2 PUSH1 0xA0 DUP5 ADD SWAP2 SWAP1 PUSH2 0x15B6 SWAP1 PUSH2 0x43D8 JUMP JUMPDEST DUP1 PUSH1 0x1F ADD PUSH1 0x20 DUP1 SWAP2 DIV MUL PUSH1 0x20 ADD PUSH1 0x40 MLOAD SWAP1 DUP2 ADD PUSH1 0x40 MSTORE DUP1 SWAP3 SWAP2 SWAP1 DUP2 DUP2 MSTORE PUSH1 0x20 ADD DUP3 DUP1 SLOAD PUSH2 0x15E2 SWAP1 PUSH2 0x43D8 JUMP JUMPDEST DUP1 ISZERO PUSH2 0x162F JUMPI DUP1 PUSH1 0x1F LT PUSH2 0x1604 JUMPI PUSH2 0x100 DUP1 DUP4 SLOAD DIV MUL DUP4 MSTORE SWAP2 PUSH1 0x20 ADD SWAP2 PUSH2 0x162F JUMP JUMPDEST DUP3 ADD SWAP2 SWAP1 PUSH1 0x0 MSTORE PUSH1 0x20 PUSH1 0x0 KECCAK256 SWAP1 JUMPDEST DUP2 SLOAD DUP2 MSTORE SWAP1 PUSH1 0x1 ADD SWAP1 PUSH1 0x20 ADD DUP1 DUP4 GT PUSH2 0x1612 JUMPI DUP3 SWAP1 SUB PUSH1 0x1F AND DUP3 ADD SWAP2 JUMPDEST POP POP POP SWAP2 DUP4 MSTORE POP POP PUSH1 0x2 DUP3 ADD SLOAD PUSH1 0x1 PUSH1 0x1 PUSH1 0x40 SHL SUB DUP2 AND PUSH1 0x20 DUP4 ADD MSTORE PUSH1 0x1 PUSH1 0x40 SHL SWAP1 DIV PUSH1 0x1 PUSH1 0x1 PUSH1 0xC0 SHL SUB AND PUSH1 0x40 DUP3 ADD MSTORE PUSH1 0x3 DUP3 ADD SLOAD PUSH1 0x60 DUP3 ADD MSTORE PUSH1 0x4 DUP3 ADD SLOAD PUSH1 0x80 DUP3 ADD MSTORE PUSH1 0x5 SWAP1 SWAP2 ADD SLOAD PUSH1 0xA0 SWAP1 SWAP2 ADD MSTORE DUP4 MLOAD DUP5 SWAP1 DUP4 SWAP1 DUP2 LT PUSH2 0x1694 JUMPI PUSH2 0x1694 PUSH2 0x4609 JUMP JUMPDEST PUSH1 0x20 MUL PUSH1 0x20 ADD ADD DUP2 SWAP1 MSTORE POP DUP1 DUP1 PUSH2 0x16AA SWAP1 PUSH2 0x461F JUMP JUMPDEST SWAP2 POP POP PUSH2 0x1515 JUMP JUMPDEST POP POP SWAP1 JUMP JUMPDEST PUSH1 0x6 SLOAD PUSH1 0x1 PUSH1 0x1 PUSH1 0xA0 SHL SUB AND CALLER EQ DUP1 PUSH2 0x16DA JUMPI POP PUSH1 0x7 SLOAD PUSH1 0x1 PUSH1 0x1 PUSH1 0xA0 SHL SUB AND CALLER EQ JUMPDEST PUSH2 0x16F6 JUMPI PUSH1 0x40 MLOAD PUSH3 0x461BCD PUSH1 0xE5 SHL DUP2 MSTORE PUSH1 0x4 ADD PUSH2 0xD6C SWAP1 PUSH2 0x42D7 JUMP JUMPDEST PUSH1 0x1 PUSH1 0x1 PUSH1 0xA0 SHL SUB DUP3 AND PUSH1 0x0 SWAP1 DUP2 MSTORE PUSH1 0x1E PUSH1 0x20 MSTORE PUSH1 0x40 SWAP1 KECCAK256 SLOAD DUP2 GT ISZERO PUSH2 0x1734 JUMPI PUSH1 0x1 PUSH1 0x1 PUSH1 0xA0 SHL SUB DUP3 AND PUSH1 0x0 SWAP1 DUP2 MSTORE PUSH1 0x1E PUSH1 0x20 MSTORE PUSH1 0x40 DUP2 KECCAK256 SSTORE PUSH2 0x1762 JUMP JUMPDEST PUSH1 0x1 PUSH1 0x1 PUSH1 0xA0 SHL SUB DUP3 AND PUSH1 0x0 SWAP1 DUP2 MSTORE PUSH1 0x1E PUSH1 0x20 MSTORE PUSH1 0x40 DUP2 KECCAK256 DUP1 SLOAD DUP4 SWAP3 SWAP1 PUSH2 0x175C SWAP1 DUP5 SWAP1 PUSH2 0x4358 JUMP JUMPDEST SWAP1 SWAP2 SSTORE POP POP JUMPDEST PUSH1 0x1 PUSH1 0x1 PUSH1 0xA0 SHL SUB DUP3 AND PUSH1 0x0 SWAP1 DUP2 MSTORE PUSH1 0x1E PUSH1 0x20 MSTORE PUSH1 0x40 DUP2 KECCAK256 SLOAD SWAP1 SUB PUSH2 0x178C JUMPI PUSH2 0x1209 PUSH1 0x1F DUP4 PUSH2 0x326C JUMP JUMPDEST POP POP JUMP JUMPDEST PUSH1 0x6 SLOAD PUSH1 0x1 PUSH1 0x1 PUSH1 0xA0 SHL SUB AND CALLER EQ DUP1 PUSH2 0x17B3 JUMPI POP PUSH1 0x7 SLOAD PUSH1 0x1 PUSH1 0x1 PUSH1 0xA0 SHL SUB AND CALLER EQ JUMPDEST PUSH2 0x17CF JUMPI PUSH1 0x40 MLOAD PUSH3 0x461BCD PUSH1 0xE5 SHL DUP2 MSTORE PUSH1 0x4 ADD PUSH2 0xD6C SWAP1 PUSH2 0x42D7 JUMP JUMPDEST PUSH1 0x1 PUSH1 0x1 PUSH1 0xA0 SHL SUB DUP3 AND PUSH1 0x0 SWAP1 DUP2 MSTORE PUSH1 0x1D PUSH1 0x20 MSTORE PUSH1 0x40 DUP2 KECCAK256 DUP1 SLOAD DUP4 SWAP3 SWAP1 PUSH2 0x17F7 SWAP1 DUP5 SWAP1 PUSH2 0x4320 JUMP JUMPDEST SWAP1 SWAP2 SSTORE POP POP POP POP JUMP JUMPDEST PUSH1 0x6 SLOAD PUSH1 0x1 PUSH1 0x1 PUSH1 0xA0 SHL SUB AND CALLER EQ DUP1 PUSH2 0x1823 JUMPI POP PUSH1 0x7 SLOAD PUSH1 0x1 PUSH1 0x1 PUSH1 0xA0 SHL SUB AND CALLER EQ JUMPDEST PUSH2 0x183F JUMPI PUSH1 0x40 MLOAD PUSH3 0x461BCD PUSH1 0xE5 SHL DUP2 MSTORE PUSH1 0x4 ADD PUSH2 0xD6C SWAP1 PUSH2 0x42D7 JUMP JUMPDEST DUP1 PUSH1 0x21 DUP5 DUP5 PUSH1 0x40 MLOAD PUSH2 0x1852 SWAP3 SWAP2 SWAP1 PUSH2 0x42FA JUMP JUMPDEST SWAP1 DUP2 MSTORE PUSH1 0x20 ADD PUSH1 0x40 MLOAD DUP1 SWAP2 SUB SWAP1 KECCAK256 PUSH1 0x0 DUP3 DUP3 SLOAD PUSH2 0x186F SWAP2 SWAP1 PUSH2 0x4638 JUMP JUMPDEST SWAP1 SWAP2 SSTORE POP POP POP POP POP JUMP JUMPDEST PUSH1 0x0 PUSH2 0x1886 PUSH1 0x1F DUP4 PUSH2 0x3260 JUMP JUMPDEST SWAP3 SWAP2 POP POP JUMP JUMPDEST PUSH1 0x6 SLOAD PUSH1 0x1 PUSH1 0x1 PUSH1 0xA0 SHL SUB AND CALLER EQ DUP1 PUSH2 0x18AF JUMPI POP PUSH1 0x7 SLOAD PUSH1 0x1 PUSH1 0x1 PUSH1 0xA0 SHL SUB AND CALLER EQ JUMPDEST PUSH2 0x18CB JUMPI PUSH1 0x40 MLOAD PUSH3 0x461BCD PUSH1 0xE5 SHL DUP2 MSTORE PUSH1 0x4 ADD PUSH2 0xD6C SWAP1 PUSH2 0x42D7 JUMP JUMPDEST PUSH1 0x2 SLOAD PUSH1 0x40 MLOAD PUSH4 0x2770A7EB PUSH1 0xE2 SHL DUP2 MSTORE PUSH1 0x1 PUSH1 0x1 PUSH1 0xA0 SHL SUB DUP5 DUP2 AND PUSH1 0x4 DUP4 ADD MSTORE PUSH1 0x24 DUP3 ADD DUP5 SWAP1 MSTORE SWAP1 SWAP2 AND SWAP1 PUSH4 0x9DC29FAC SWAP1 PUSH1 0x44 ADD PUSH2 0xF60 JUMP JUMPDEST PUSH1 0x60 PUSH1 0x15 DUP1 SLOAD DUP1 PUSH1 0x20 MUL PUSH1 0x20 ADD PUSH1 0x40 MLOAD SWAP1 DUP2 ADD PUSH1 0x40 MSTORE DUP1 SWAP3 SWAP2 SWAP1 DUP2 DUP2 MSTORE PUSH1 0x20 ADD PUSH1 0x0 SWAP1 JUMPDEST DUP3 DUP3 LT ISZERO PUSH2 0x19D4 JUMPI DUP4 DUP3 SWAP1 PUSH1 0x0 MSTORE PUSH1 0x20 PUSH1 0x0 KECCAK256 ADD DUP1 SLOAD PUSH2 0x1947 SWAP1 PUSH2 0x43D8 JUMP JUMPDEST DUP1 PUSH1 0x1F ADD PUSH1 0x20 DUP1 SWAP2 DIV MUL PUSH1 0x20 ADD PUSH1 0x40 MLOAD SWAP1 DUP2 ADD PUSH1 0x40 MSTORE DUP1 SWAP3 SWAP2 SWAP1 DUP2 DUP2 MSTORE PUSH1 0x20 ADD DUP3 DUP1 SLOAD PUSH2 0x1973 SWAP1 PUSH2 0x43D8 JUMP JUMPDEST DUP1 ISZERO PUSH2 0x19C0 JUMPI DUP1 PUSH1 0x1F LT PUSH2 0x1995 JUMPI PUSH2 0x100 DUP1 DUP4 SLOAD DIV MUL DUP4 MSTORE SWAP2 PUSH1 0x20 ADD SWAP2 PUSH2 0x19C0 JUMP JUMPDEST DUP3 ADD SWAP2 SWAP1 PUSH1 0x0 MSTORE PUSH1 0x20 PUSH1 0x0 KECCAK256 SWAP1 JUMPDEST DUP2 SLOAD DUP2 MSTORE SWAP1 PUSH1 0x1 ADD SWAP1 PUSH1 0x20 ADD DUP1 DUP4 GT PUSH2 0x19A3 JUMPI DUP3 SWAP1 SUB PUSH1 0x1F AND DUP3 ADD SWAP2 JUMPDEST POP POP POP POP POP DUP2 MSTORE PUSH1 0x20 ADD SWAP1 PUSH1 0x1 ADD SWAP1 PUSH2 0x1928 JUMP JUMPDEST POP POP POP POP SWAP1 POP SWAP1 JUMP JUMPDEST PUSH1 0x0 SLOAD PUSH1 0x1 PUSH1 0x1 PUSH1 0xA0 SHL SUB AND CALLER EQ PUSH2 0x1A07 JUMPI PUSH1 0x40 MLOAD PUSH3 0x461BCD PUSH1 0xE5 SHL DUP2 MSTORE PUSH1 0x4 ADD PUSH2 0xD6C SWAP1 PUSH2 0x4333 JUMP JUMPDEST PUSH1 0xB SSTORE JUMP JUMPDEST PUSH1 0x0 PUSH1 0x22 DUP4 DUP4 PUSH1 0x40 MLOAD PUSH2 0x1A20 SWAP3 SWAP2 SWAP1 PUSH2 0x42FA JUMP JUMPDEST SWAP1 DUP2 MSTORE PUSH1 0x20 ADD PUSH1 0x40 MLOAD DUP1 SWAP2 SUB SWAP1 KECCAK256 SLOAD SWAP1 POP SWAP3 SWAP2 POP POP JUMP JUMPDEST PUSH1 0x1 PUSH1 0x1 PUSH1 0xA0 SHL SUB DUP2 AND PUSH1 0x0 SWAP1 DUP2 MSTORE PUSH1 0x12 PUSH1 0x20 MSTORE PUSH1 0x40 DUP2 KECCAK256 PUSH1 0x60 SWAP2 SWAP1 PUSH2 0x1A5C SWAP1 PUSH2 0x3256 JUMP JUMPDEST SWAP1 POP DUP1 PUSH1 0x1 PUSH1 0x1 PUSH1 0x40 SHL SUB DUP2 GT ISZERO PUSH2 0x1A76 JUMPI PUSH2 0x1A76 PUSH2 0x3D8D JUMP JUMPDEST PUSH1 0x40 MLOAD SWAP1 DUP1 DUP3 MSTORE DUP1 PUSH1 0x20 MUL PUSH1 0x20 ADD DUP3 ADD PUSH1 0x40 MSTORE DUP1 ISZERO PUSH2 0x1AAF JUMPI DUP2 PUSH1 0x20 ADD JUMPDEST PUSH2 0x1A9C PUSH2 0x37FC JUMP JUMPDEST DUP2 MSTORE PUSH1 0x20 ADD SWAP1 PUSH1 0x1 SWAP1 SUB SWAP1 DUP2 PUSH2 0x1A94 JUMPI SWAP1 POP JUMPDEST POP SWAP2 POP PUSH1 0x0 JUMPDEST DUP2 DUP2 LT ISZERO PUSH2 0x14A7 JUMPI PUSH1 0x1 PUSH1 0x1 PUSH1 0xA0 SHL SUB DUP5 AND PUSH1 0x0 SWAP1 DUP2 MSTORE PUSH1 0x12 PUSH1 0x20 MSTORE PUSH1 0x40 DUP2 KECCAK256 PUSH1 0x11 SWAP2 SWAP1 PUSH2 0x1AE3 SWAP1 DUP5 PUSH2 0x3260 JUMP JUMPDEST DUP2 MSTORE PUSH1 0x20 DUP1 DUP3 ADD SWAP3 SWAP1 SWAP3 MSTORE PUSH1 0x40 SWAP1 DUP2 ADD PUSH1 0x0 KECCAK256 DUP2 MLOAD PUSH2 0x160 DUP2 ADD DUP4 MSTORE DUP2 SLOAD PUSH1 0xFF DUP1 DUP3 AND ISZERO ISZERO DUP4 MSTORE PUSH2 0x100 DUP3 DIV DUP2 AND ISZERO ISZERO SWAP6 DUP4 ADD SWAP6 SWAP1 SWAP6 MSTORE PUSH3 0x10000 DUP2 DIV SWAP1 SWAP5 AND SWAP3 DUP2 ADD SWAP3 SWAP1 SWAP3 MSTORE PUSH4 0x1000000 DUP4 DIV PUSH1 0x1 PUSH1 0x1 PUSH1 0x48 SHL SUB AND PUSH1 0x60 DUP4 ADD MSTORE PUSH1 0x1 PUSH1 0x60 SHL SWAP1 SWAP3 DIV PUSH1 0x1 PUSH1 0x1 PUSH1 0xA0 SHL SUB AND PUSH1 0x80 DUP3 ADD MSTORE PUSH1 0x1 DUP3 ADD DUP1 SLOAD SWAP2 SWAP3 SWAP2 PUSH1 0xA0 DUP5 ADD SWAP2 SWAP1 PUSH2 0x1B6D SWAP1 PUSH2 0x43D8 JUMP JUMPDEST DUP1 PUSH1 0x1F ADD PUSH1 0x20 DUP1 SWAP2 DIV MUL PUSH1 0x20 ADD PUSH1 0x40 MLOAD SWAP1 DUP2 ADD PUSH1 0x40 MSTORE DUP1 SWAP3 SWAP2 SWAP1 DUP2 DUP2 MSTORE PUSH1 0x20 ADD DUP3 DUP1 SLOAD PUSH2 0x1B99 SWAP1 PUSH2 0x43D8 JUMP JUMPDEST DUP1 ISZERO PUSH2 0x1BE6 JUMPI DUP1 PUSH1 0x1F LT PUSH2 0x1BBB JUMPI PUSH2 0x100 DUP1 DUP4 SLOAD DIV MUL DUP4 MSTORE SWAP2 PUSH1 0x20 ADD SWAP2 PUSH2 0x1BE6 JUMP JUMPDEST DUP3 ADD SWAP2 SWAP1 PUSH1 0x0 MSTORE PUSH1 0x20 PUSH1 0x0 KECCAK256 SWAP1 JUMPDEST DUP2 SLOAD DUP2 MSTORE SWAP1 PUSH1 0x1 ADD SWAP1 PUSH1 0x20 ADD DUP1 DUP4 GT PUSH2 0x1BC9 JUMPI DUP3 SWAP1 SUB PUSH1 0x1F AND DUP3 ADD SWAP2 JUMPDEST POP POP POP SWAP2 DUP4 MSTORE POP POP PUSH1 0x2 DUP3 ADD SLOAD PUSH1 0x1 PUSH1 0x1 PUSH1 0x40 SHL SUB DUP2 AND PUSH1 0x20 DUP4 ADD MSTORE PUSH1 0x1 PUSH1 0x40 SHL SWAP1 DIV PUSH1 0x1 PUSH1 0x1 PUSH1 0xC0 SHL SUB AND PUSH1 0x40 DUP3 ADD MSTORE PUSH1 0x3 DUP3 ADD SLOAD PUSH1 0x60 DUP3 ADD MSTORE PUSH1 0x4 DUP3 ADD SLOAD PUSH1 0x80 DUP3 ADD MSTORE PUSH1 0x5 SWAP1 SWAP2 ADD SLOAD PUSH1 0xA0 SWAP1 SWAP2 ADD MSTORE DUP4 MLOAD DUP5 SWAP1 DUP4 SWAP1 DUP2 LT PUSH2 0x1C4B JUMPI PUSH2 0x1C4B PUSH2 0x4609 JUMP JUMPDEST PUSH1 0x20 MUL PUSH1 0x20 ADD ADD DUP2 SWAP1 MSTORE POP DUP1 DUP1 PUSH2 0x1C61 SWAP1 PUSH2 0x461F JUMP JUMPDEST SWAP2 POP POP PUSH2 0x1AB5 JUMP JUMPDEST PUSH1 0x0 SLOAD PUSH1 0x1 PUSH1 0x1 PUSH1 0xA0 SHL SUB AND CALLER EQ PUSH2 0x1C93 JUMPI PUSH1 0x40 MLOAD PUSH3 0x461BCD PUSH1 0xE5 SHL DUP2 MSTORE PUSH1 0x4 ADD PUSH2 0xD6C SWAP1 PUSH2 0x4333 JUMP JUMPDEST PUSH1 0xF SSTORE JUMP JUMPDEST PUSH1 0x6 SLOAD PUSH1 0x1 PUSH1 0x1 PUSH1 0xA0 SHL SUB AND CALLER EQ DUP1 PUSH2 0x1CBB JUMPI POP PUSH1 0x7 SLOAD PUSH1 0x1 PUSH1 0x1 PUSH1 0xA0 SHL SUB AND CALLER EQ JUMPDEST PUSH2 0x1CD7 JUMPI PUSH1 0x40 MLOAD PUSH3 0x461BCD PUSH1 0xE5 SHL DUP2 MSTORE PUSH1 0x4 ADD PUSH2 0xD6C SWAP1 PUSH2 0x42D7 JUMP JUMPDEST PUSH1 0x1 PUSH1 0x1 PUSH1 0xA0 SHL SUB DUP3 AND PUSH1 0x0 SWAP1 DUP2 MSTORE PUSH1 0x1D PUSH1 0x20 MSTORE PUSH1 0x40 SWAP1 KECCAK256 SLOAD DUP2 GT ISZERO PUSH2 0x1D2A JUMPI PUSH1 0x40 MLOAD PUSH3 0x461BCD PUSH1 0xE5 SHL DUP2 MSTORE PUSH1 0x20 PUSH1 0x4 DUP3 ADD MSTORE PUSH1 0x8 PUSH1 0x24 DUP3 ADD MSTORE PUSH8 0x2162616C616E6365 PUSH1 0xC0 SHL PUSH1 0x44 DUP3 ADD MSTORE PUSH1 0x64 ADD PUSH2 0xD6C JUMP JUMPDEST PUSH1 0x1 PUSH1 0x1 PUSH1 0xA0 SHL SUB DUP3 AND PUSH1 0x0 SWAP1 DUP2 MSTORE PUSH1 0x1D PUSH1 0x20 MSTORE PUSH1 0x40 DUP2 KECCAK256 DUP1 SLOAD DUP4 SWAP3 SWAP1 PUSH2 0x17F7 SWAP1 DUP5 SWAP1 PUSH2 0x4358 JUMP JUMPDEST PUSH1 0x6 SLOAD PUSH1 0x1 PUSH1 0x1 PUSH1 0xA0 SHL SUB AND CALLER EQ DUP1 PUSH2 0x1D75 JUMPI POP PUSH1 0x7 SLOAD PUSH1 0x1 PUSH1 0x1 PUSH1 0xA0 SHL SUB AND CALLER EQ JUMPDEST PUSH2 0x1D91 JUMPI PUSH1 0x40 MLOAD PUSH3 0x461BCD PUSH1 0xE5 SHL DUP2 MSTORE PUSH1 0x4 ADD PUSH2 0xD6C SWAP1 PUSH2 0x42D7 JUMP JUMPDEST PUSH1 0x1 SLOAD PUSH2 0x178C SWAP1 PUSH1 0x1 PUSH1 0x1 PUSH1 0xA0 SHL SUB AND DUP4 DUP4 PUSH2 0x3281 JUMP JUMPDEST PUSH1 0x0 PUSH1 0x21 DUP4 DUP4 PUSH1 0x40 MLOAD PUSH2 0x1A20 SWAP3 SWAP2 SWAP1 PUSH2 0x42FA JUMP JUMPDEST PUSH1 0x6 SLOAD PUSH1 0x1 PUSH1 0x1 PUSH1 0xA0 SHL SUB AND CALLER EQ DUP1 PUSH2 0x1DDF JUMPI POP PUSH1 0x7 SLOAD PUSH1 0x1 PUSH1 0x1 PUSH1 0xA0 SHL SUB AND CALLER EQ JUMPDEST PUSH2 0x1DFB JUMPI PUSH1 0x40 MLOAD PUSH3 0x461BCD PUSH1 0xE5 SHL DUP2 MSTORE PUSH1 0x4 ADD PUSH2 0xD6C SWAP1 PUSH2 0x42D7 JUMP JUMPDEST DUP1 PUSH1 0xD PUSH1 0x0 DUP3 DUP3 SLOAD PUSH2 0x10A2 SWAP2 SWAP1 PUSH2 0x4358 JUMP JUMPDEST PUSH1 0x0 PUSH1 0x1C DUP4 DUP4 PUSH1 0x40 MLOAD PUSH2 0x1A20 SWAP3 SWAP2 SWAP1 PUSH2 0x42FA JUMP JUMPDEST PUSH1 0x6 SLOAD PUSH1 0x0 SWAP1 PUSH1 0x1 PUSH1 0x1 PUSH1 0xA0 SHL SUB AND CALLER EQ DUP1 PUSH2 0x1E47 JUMPI POP PUSH1 0x7 SLOAD PUSH1 0x1 PUSH1 0x1 PUSH1 0xA0 SHL SUB AND CALLER EQ JUMPDEST PUSH2 0x1E63 JUMPI PUSH1 0x40 MLOAD PUSH3 0x461BCD PUSH1 0xE5 SHL DUP2 MSTORE PUSH1 0x4 ADD PUSH2 0xD6C SWAP1 PUSH2 0x42D7 JUMP JUMPDEST PUSH1 0x0 PUSH1 0x10 PUSH1 0x0 DUP2 SLOAD PUSH2 0x1E74 SWAP1 PUSH2 0x461F JUMP JUMPDEST SWAP2 DUP3 SWAP1 SSTORE POP PUSH1 0x1 PUSH1 0x1 PUSH1 0x48 SHL SUB DUP1 DUP3 AND PUSH1 0x60 DUP7 ADD SWAP1 DUP2 MSTORE PUSH1 0x0 DUP4 DUP2 MSTORE PUSH1 0x11 PUSH1 0x20 SWAP1 DUP2 MSTORE PUSH1 0x40 SWAP2 DUP3 SWAP1 KECCAK256 DUP9 MLOAD DUP2 SLOAD SWAP3 DUP11 ADD MLOAD SWAP4 DUP11 ADD MLOAD SWAP5 MLOAD PUSH1 0x80 DUP12 ADD MLOAD PUSH1 0x1 PUSH1 0x1 PUSH1 0xA0 SHL SUB AND PUSH1 0x1 PUSH1 0x60 SHL MUL PUSH1 0x1 PUSH1 0x1 PUSH1 0x60 SHL SUB SWAP2 SWAP1 SWAP8 AND PUSH4 0x1000000 MUL PUSH12 0xFFFFFFFFFFFFFFFFFF000000 NOT PUSH1 0xFF SWAP8 SWAP1 SWAP8 AND PUSH3 0x10000 MUL SWAP7 SWAP1 SWAP7 AND PUSH12 0xFFFFFFFFFFFFFFFFFFFF0000 NOT SWAP6 ISZERO ISZERO PUSH2 0x100 MUL PUSH2 0xFF00 NOT SWAP4 ISZERO ISZERO SWAP4 SWAP1 SWAP4 AND PUSH2 0xFFFF NOT SWAP1 SWAP6 AND SWAP5 SWAP1 SWAP5 OR SWAP2 SWAP1 SWAP2 OR SWAP4 SWAP1 SWAP4 AND SWAP2 SWAP1 SWAP2 OR SWAP3 SWAP1 SWAP3 OR AND SWAP2 SWAP1 SWAP2 OR DUP2 SSTORE PUSH1 0xA0 DUP6 ADD MLOAD SWAP2 SWAP3 POP DUP5 SWAP2 PUSH1 0x1 DUP3 ADD SWAP1 PUSH2 0x1F49 SWAP1 DUP3 PUSH2 0x4660 JUMP JUMPDEST POP PUSH1 0xC0 DUP3 ADD MLOAD PUSH1 0xE0 DUP4 ADD MLOAD PUSH1 0x1 PUSH1 0x1 PUSH1 0xC0 SHL SUB AND PUSH1 0x1 PUSH1 0x40 SHL MUL PUSH1 0x1 PUSH1 0x1 PUSH1 0x40 SHL SUB SWAP1 SWAP2 AND OR PUSH1 0x2 DUP3 ADD SSTORE PUSH2 0x100 DUP3 ADD MLOAD PUSH1 0x3 DUP3 ADD SSTORE PUSH2 0x120 DUP3 ADD MLOAD PUSH1 0x4 DUP3 ADD SSTORE PUSH2 0x140 SWAP1 SWAP2 ADD MLOAD PUSH1 0x5 SWAP1 SWAP2 ADD SSTORE PUSH1 0x80 DUP4 ADD MLOAD PUSH1 0x1 PUSH1 0x1 PUSH1 0xA0 SHL SUB AND PUSH1 0x0 SWAP1 DUP2 MSTORE PUSH1 0x12 PUSH1 0x20 MSTORE PUSH1 0x40 SWAP1 KECCAK256 PUSH2 0x1FBD SWAP1 DUP3 PUSH2 0x324A JUMP JUMPDEST POP PUSH2 0x1FC9 PUSH1 0x13 DUP3 PUSH2 0x324A JUMP JUMPDEST POP SWAP1 POP JUMPDEST SWAP2 SWAP1 POP JUMP JUMPDEST PUSH1 0x0 PUSH2 0x1FDE PUSH1 0x1F PUSH2 0x3256 JUMP JUMPDEST SWAP1 POP SWAP1 JUMP JUMPDEST PUSH1 0x0 SLOAD PUSH1 0x1 PUSH1 0x1 PUSH1 0xA0 SHL SUB AND CALLER EQ PUSH2 0x200D JUMPI PUSH1 0x40 MLOAD PUSH3 0x461BCD PUSH1 0xE5 SHL DUP2 MSTORE PUSH1 0x4 ADD PUSH2 0xD6C SWAP1 PUSH2 0x4333 JUMP JUMPDEST PUSH1 0x6 DUP1 SLOAD PUSH1 0x1 PUSH1 0x1 PUSH1 0xA0 SHL SUB SWAP6 DUP7 AND PUSH1 0x1 PUSH1 0x1 PUSH1 0xA0 SHL SUB NOT SWAP2 DUP3 AND OR SWAP1 SWAP2 SSTORE PUSH1 0x7 DUP1 SLOAD SWAP5 DUP7 AND SWAP5 DUP3 AND SWAP5 SWAP1 SWAP5 OR SWAP1 SWAP4 SSTORE PUSH1 0x1 DUP1 SLOAD SWAP3 DUP6 AND SWAP3 DUP5 AND SWAP3 SWAP1 SWAP3 OR SWAP1 SWAP2 SSTORE PUSH1 0x2 DUP1 SLOAD SWAP2 SWAP1 SWAP4 AND SWAP2 AND OR SWAP1 SSTORE JUMP JUMPDEST PUSH1 0x0 PUSH1 0x1B DUP4 DUP4 PUSH1 0x40 MLOAD PUSH2 0x1A20 SWAP3 SWAP2 SWAP1 PUSH2 0x42FA JUMP JUMPDEST PUSH1 0x4 DUP1 SLOAD PUSH1 0x1 SLOAD PUSH1 0x40 MLOAD PUSH4 0xF7729D43 PUSH1 0xE0 SHL DUP2 MSTORE PUSH1 0x1 PUSH1 0x1 PUSH1 0xA0 SHL SUB DUP7 DUP2 AND SWAP5 DUP3 ADD SWAP5 SWAP1 SWAP5 MSTORE SWAP1 DUP4 AND PUSH1 0x24 DUP3 ADD MSTORE PUSH3 0xFFFFFF DUP5 AND PUSH1 0x44 DUP3 ADD MSTORE PUSH1 0x64 DUP2 ADD DUP7 SWAP1 MSTORE PUSH1 0x0 PUSH1 0x84 DUP3 ADD DUP2 SWAP1 MSTORE SWAP3 SWAP1 SWAP2 AND SWAP1 PUSH4 0xF7729D43 SWAP1 PUSH1 0xA4 ADD PUSH1 0x20 PUSH1 0x40 MLOAD DUP1 DUP4 SUB DUP2 PUSH1 0x0 DUP8 GAS CALL ISZERO DUP1 ISZERO PUSH2 0x20E7 JUMPI RETURNDATASIZE PUSH1 0x0 DUP1 RETURNDATACOPY RETURNDATASIZE PUSH1 0x0 REVERT JUMPDEST POP POP POP POP PUSH1 0x40 MLOAD RETURNDATASIZE PUSH1 0x1F NOT PUSH1 0x1F DUP3 ADD AND DUP3 ADD DUP1 PUSH1 0x40 MSTORE POP DUP2 ADD SWAP1 PUSH2 0x210B SWAP2 SWAP1 PUSH2 0x4719 JUMP JUMPDEST SWAP5 SWAP4 POP POP POP POP JUMP JUMPDEST PUSH1 0x6 SLOAD PUSH1 0x1 PUSH1 0x1 PUSH1 0xA0 SHL SUB AND CALLER EQ DUP1 PUSH2 0x2136 JUMPI POP PUSH1 0x7 SLOAD PUSH1 0x1 PUSH1 0x1 PUSH1 0xA0 SHL SUB AND CALLER EQ JUMPDEST PUSH2 0x2152 JUMPI PUSH1 0x40 MLOAD PUSH3 0x461BCD PUSH1 0xE5 SHL DUP2 MSTORE PUSH1 0x4 ADD PUSH2 0xD6C SWAP1 PUSH2 0x42D7 JUMP JUMPDEST DUP1 PUSH1 0x11 PUSH1 0x0 PUSH2 0x2167 PUSH1 0x80 DUP5 ADD PUSH1 0x60 DUP6 ADD PUSH2 0x4732 JUMP JUMPDEST PUSH1 0x1 PUSH1 0x1 PUSH1 0x48 SHL SUB AND DUP2 MSTORE PUSH1 0x20 ADD SWAP1 DUP2 MSTORE PUSH1 0x20 ADD PUSH1 0x0 KECCAK256 DUP2 DUP2 PUSH2 0x1209 SWAP2 SWAP1 PUSH2 0x4776 JUMP JUMPDEST PUSH1 0x6 SLOAD PUSH1 0x1 PUSH1 0x1 PUSH1 0xA0 SHL SUB AND CALLER EQ DUP1 PUSH2 0x21AD JUMPI POP PUSH1 0x7 SLOAD PUSH1 0x1 PUSH1 0x1 PUSH1 0xA0 SHL SUB AND CALLER EQ JUMPDEST PUSH2 0x21C9 JUMPI PUSH1 0x40 MLOAD PUSH3 0x461BCD PUSH1 0xE5 SHL DUP2 MSTORE PUSH1 0x4 ADD PUSH2 0xD6C SWAP1 PUSH2 0x42D7 JUMP JUMPDEST DUP1 PUSH1 0xD PUSH1 0x0 DUP3 DUP3 SLOAD PUSH2 0x10A2 SWAP2 SWAP1 PUSH2 0x4320 JUMP JUMPDEST PUSH1 0x6 SLOAD PUSH1 0x1 PUSH1 0x1 PUSH1 0xA0 SHL SUB AND CALLER EQ DUP1 PUSH2 0x21FE JUMPI POP PUSH1 0x7 SLOAD PUSH1 0x1 PUSH1 0x1 PUSH1 0xA0 SHL SUB AND CALLER EQ JUMPDEST PUSH2 0x221A JUMPI PUSH1 0x40 MLOAD PUSH3 0x461BCD PUSH1 0xE5 SHL DUP2 MSTORE PUSH1 0x4 ADD PUSH2 0xD6C SWAP1 PUSH2 0x42D7 JUMP JUMPDEST PUSH1 0x0 DUP2 DUP2 MSTORE PUSH1 0x11 PUSH1 0x20 SWAP1 DUP2 MSTORE PUSH1 0x40 DUP1 DUP4 KECCAK256 DUP2 MLOAD PUSH2 0x160 DUP2 ADD DUP4 MSTORE DUP2 SLOAD PUSH1 0xFF DUP1 DUP3 AND ISZERO ISZERO DUP4 MSTORE PUSH2 0x100 DUP3 DIV DUP2 AND ISZERO ISZERO SWAP6 DUP4 ADD SWAP6 SWAP1 SWAP6 MSTORE PUSH3 0x10000 DUP2 DIV SWAP1 SWAP5 AND SWAP3 DUP2 ADD SWAP3 SWAP1 SWAP3 MSTORE PUSH4 0x1000000 DUP4 DIV PUSH1 0x1 PUSH1 0x1 PUSH1 0x48 SHL SUB AND PUSH1 0x60 DUP4 ADD MSTORE PUSH1 0x1 PUSH1 0x60 SHL SWAP1 SWAP3 DIV PUSH1 0x1 PUSH1 0x1 PUSH1 0xA0 SHL SUB AND PUSH1 0x80 DUP3 ADD MSTORE PUSH1 0x1 DUP3 ADD DUP1 SLOAD SWAP2 SWAP3 SWAP2 PUSH1 0xA0 DUP5 ADD SWAP2 SWAP1 PUSH2 0x22A2 SWAP1 PUSH2 0x43D8 JUMP JUMPDEST DUP1 PUSH1 0x1F ADD PUSH1 0x20 DUP1 SWAP2 DIV MUL PUSH1 0x20 ADD PUSH1 0x40 MLOAD SWAP1 DUP2 ADD PUSH1 0x40 MSTORE DUP1 SWAP3 SWAP2 SWAP1 DUP2 DUP2 MSTORE PUSH1 0x20 ADD DUP3 DUP1 SLOAD PUSH2 0x22CE SWAP1 PUSH2 0x43D8 JUMP JUMPDEST DUP1 ISZERO PUSH2 0x231B JUMPI DUP1 PUSH1 0x1F LT PUSH2 0x22F0 JUMPI PUSH2 0x100 DUP1 DUP4 SLOAD DIV MUL DUP4 MSTORE SWAP2 PUSH1 0x20 ADD SWAP2 PUSH2 0x231B JUMP JUMPDEST DUP3 ADD SWAP2 SWAP1 PUSH1 0x0 MSTORE PUSH1 0x20 PUSH1 0x0 KECCAK256 SWAP1 JUMPDEST DUP2 SLOAD DUP2 MSTORE SWAP1 PUSH1 0x1 ADD SWAP1 PUSH1 0x20 ADD DUP1 DUP4 GT PUSH2 0x22FE JUMPI DUP3 SWAP1 SUB PUSH1 0x1F AND DUP3 ADD SWAP2 JUMPDEST POP POP POP SWAP2 DUP4 MSTORE POP POP PUSH1 0x2 DUP3 ADD SLOAD PUSH1 0x1 PUSH1 0x1 PUSH1 0x40 SHL SUB DUP2 AND PUSH1 0x20 DUP4 ADD MSTORE PUSH1 0x1 PUSH1 0x40 SHL SWAP1 DIV PUSH1 0x1 PUSH1 0x1 PUSH1 0xC0 SHL SUB AND PUSH1 0x40 DUP3 ADD MSTORE PUSH1 0x3 DUP3 ADD SLOAD PUSH1 0x60 DUP3 ADD MSTORE PUSH1 0x4 DUP3 ADD SLOAD PUSH1 0x80 DUP3 ADD MSTORE PUSH1 0x5 SWAP1 SWAP2 ADD SLOAD PUSH1 0xA0 SWAP1 SWAP2 ADD MSTORE PUSH2 0x140 DUP2 ADD MLOAD SWAP1 SWAP2 POP PUSH1 0x0 SUB PUSH2 0x2380 JUMPI POP POP JUMP JUMPDEST PUSH1 0x80 DUP2 ADD MLOAD PUSH1 0x1 PUSH1 0x1 PUSH1 0xA0 SHL SUB AND PUSH1 0x0 SWAP1 DUP2 MSTORE PUSH1 0x12 PUSH1 0x20 MSTORE PUSH1 0x40 SWAP1 KECCAK256 PUSH2 0x23A6 SWAP1 DUP4 PUSH2 0x32E4 JUMP JUMPDEST POP PUSH2 0x23B2 PUSH1 0x13 DUP4 PUSH2 0x32E4 JUMP JUMPDEST POP PUSH1 0x0 DUP3 DUP2 MSTORE PUSH1 0x11 PUSH1 0x20 MSTORE PUSH1 0x40 DUP2 KECCAK256 DUP2 DUP2 SSTORE SWAP1 PUSH2 0x23D2 PUSH1 0x1 DUP4 ADD DUP3 PUSH2 0x3857 JUMP JUMPDEST POP PUSH1 0x0 PUSH1 0x2 DUP3 ADD DUP2 SWAP1 SSTORE PUSH1 0x3 DUP3 ADD DUP2 SWAP1 SSTORE PUSH1 0x4 DUP3 ADD DUP2 SWAP1 SSTORE PUSH1 0x5 SWAP1 SWAP2 ADD SSTORE POP JUMPDEST POP JUMP JUMPDEST PUSH1 0x0 SLOAD PUSH1 0x1 PUSH1 0x1 PUSH1 0xA0 SHL SUB AND CALLER EQ PUSH2 0x241F JUMPI PUSH1 0x40 MLOAD PUSH3 0x461BCD PUSH1 0xE5 SHL DUP2 MSTORE PUSH1 0x4 ADD PUSH2 0xD6C SWAP1 PUSH2 0x4333 JUMP JUMPDEST PUSH2 0x1F4 DUP2 GT ISZERO PUSH2 0x2471 JUMPI PUSH1 0x40 MLOAD PUSH3 0x461BCD PUSH1 0xE5 SHL DUP2 MSTORE PUSH1 0x20 PUSH1 0x4 DUP3 ADD MSTORE PUSH1 0x18 PUSH1 0x24 DUP3 ADD MSTORE PUSH32 0x216D61782D706F6F6C2D7769746864726177616C2D6665650000000000000000 PUSH1 0x44 DUP3 ADD MSTORE PUSH1 0x64 ADD PUSH2 0xD6C JUMP JUMPDEST PUSH1 0xA SSTORE JUMP JUMPDEST PUSH1 0x6 SLOAD PUSH1 0x1 PUSH1 0x1 PUSH1 0xA0 SHL SUB AND CALLER EQ DUP1 PUSH2 0x2499 JUMPI POP PUSH1 0x7 SLOAD PUSH1 0x1 PUSH1 0x1 PUSH1 0xA0 SHL SUB AND CALLER EQ JUMPDEST PUSH2 0x24B5 JUMPI PUSH1 0x40 MLOAD PUSH3 0x461BCD PUSH1 0xE5 SHL DUP2 MSTORE PUSH1 0x4 ADD PUSH2 0xD6C SWAP1 PUSH2 0x42D7 JUMP JUMPDEST PUSH1 0x1 PUSH1 0x1 PUSH1 0xA0 SHL SUB DUP3 AND PUSH1 0x0 SWAP1 DUP2 MSTORE PUSH1 0x1E PUSH1 0x20 MSTORE PUSH1 0x40 DUP2 KECCAK256 DUP1 SLOAD DUP4 SWAP3 SWAP1 PUSH2 0x24DD SWAP1 DUP5 SWAP1 PUSH2 0x4320 JUMP JUMPDEST SWAP1 SWAP2 SSTORE POP PUSH2 0x1209 SWAP1 POP PUSH1 0x1F DUP4 PUSH2 0x32F0 JUMP JUMPDEST PUSH1 0x40 DUP1 MLOAD PUSH2 0x100 DUP2 ADD DUP3 MSTORE PUSH1 0x60 DUP1 DUP3 MSTORE PUSH1 0x0 PUSH1 0x20 DUP4 ADD DUP2 SWAP1 MSTORE DUP3 DUP5 ADD DUP2 SWAP1 MSTORE SWAP1 DUP3 ADD DUP2 SWAP1 MSTORE PUSH1 0x80 DUP3 ADD DUP2 SWAP1 MSTORE PUSH1 0xA0 DUP3 ADD DUP2 SWAP1 MSTORE PUSH1 0xC0 DUP3 ADD DUP2 SWAP1 MSTORE PUSH1 0xE0 DUP3 ADD MSTORE SWAP1 MLOAD PUSH1 0x16 SWAP1 PUSH2 0x253F SWAP1 DUP6 SWAP1 DUP6 SWAP1 PUSH2 0x42FA JUMP JUMPDEST SWAP1 DUP2 MSTORE PUSH1 0x20 ADD PUSH1 0x40 MLOAD DUP1 SWAP2 SUB SWAP1 KECCAK256 PUSH1 0x40 MLOAD DUP1 PUSH2 0x100 ADD PUSH1 0x40 MSTORE SWAP1 DUP2 PUSH1 0x0 DUP3 ADD DUP1 SLOAD PUSH2 0x2569 SWAP1 PUSH2 0x43D8 JUMP JUMPDEST DUP1 PUSH1 0x1F ADD PUSH1 0x20 DUP1 SWAP2 DIV MUL PUSH1 0x20 ADD PUSH1 0x40 MLOAD SWAP1 DUP2 ADD PUSH1 0x40 MSTORE DUP1 SWAP3 SWAP2 SWAP1 DUP2 DUP2 MSTORE PUSH1 0x20 ADD DUP3 DUP1 SLOAD PUSH2 0x2595 SWAP1 PUSH2 0x43D8 JUMP JUMPDEST DUP1 ISZERO PUSH2 0x25E2 JUMPI DUP1 PUSH1 0x1F LT PUSH2 0x25B7 JUMPI PUSH2 0x100 DUP1 DUP4 SLOAD DIV MUL DUP4 MSTORE SWAP2 PUSH1 0x20 ADD SWAP2 PUSH2 0x25E2 JUMP JUMPDEST DUP3 ADD SWAP2 SWAP1 PUSH1 0x0 MSTORE PUSH1 0x20 PUSH1 0x0 KECCAK256 SWAP1 JUMPDEST DUP2 SLOAD DUP2 MSTORE SWAP1 PUSH1 0x1 ADD SWAP1 PUSH1 0x20 ADD DUP1 DUP4 GT PUSH2 0x25C5 JUMPI DUP3 SWAP1 SUB PUSH1 0x1F AND DUP3 ADD SWAP2 JUMPDEST POP POP POP SWAP2 DUP4 MSTORE POP POP PUSH1 0x1 DUP3 ADD SLOAD PUSH1 0x1 PUSH1 0x1 PUSH1 0xA0 SHL SUB DUP2 AND PUSH1 0x20 DUP4 ADD MSTORE PUSH2 0xFFFF PUSH1 0x1 PUSH1 0xA0 SHL DUP3 DIV DUP2 AND PUSH1 0x40 DUP5 ADD MSTORE PUSH1 0x1 PUSH1 0xB0 SHL DUP3 DIV AND PUSH1 0x60 DUP4 ADD MSTORE PUSH4 0xFFFFFFFF PUSH1 0x1 PUSH1 0xC0 SHL DUP3 DIV DUP2 AND PUSH1 0x80 DUP5 ADD MSTORE PUSH1 0x1 PUSH1 0xE0 SHL SWAP1 SWAP2 DIV AND PUSH1 0xA0 DUP3 ADD MSTORE PUSH1 0x2 DUP3 ADD SLOAD PUSH1 0xC0 DUP3 ADD MSTORE PUSH1 0x3 SWAP1 SWAP2 ADD SLOAD PUSH1 0xE0 SWAP1 SWAP2 ADD MSTORE SWAP1 POP SWAP3 SWAP2 POP POP JUMP JUMPDEST PUSH1 0x0 SLOAD PUSH1 0x1 PUSH1 0x1 PUSH1 0xA0 SHL SUB AND CALLER EQ PUSH2 0x2685 JUMPI PUSH1 0x40 MLOAD PUSH3 0x461BCD PUSH1 0xE5 SHL DUP2 MSTORE PUSH1 0x4 ADD PUSH2 0xD6C SWAP1 PUSH2 0x4333 JUMP JUMPDEST PUSH2 0x7D0 DUP2 GT ISZERO PUSH2 0x26CF JUMPI PUSH1 0x40 MLOAD PUSH3 0x461BCD PUSH1 0xE5 SHL DUP2 MSTORE PUSH1 0x20 PUSH1 0x4 DUP3 ADD MSTORE PUSH1 0x15 PUSH1 0x24 DUP3 ADD MSTORE PUSH21 0x216D61782D6B65657065722D6665652D7368617265 PUSH1 0x58 SHL PUSH1 0x44 DUP3 ADD MSTORE PUSH1 0x64 ADD PUSH2 0xD6C JUMP JUMPDEST PUSH1 0x9 SSTORE JUMP JUMPDEST PUSH1 0x6 SLOAD PUSH1 0x1 PUSH1 0x1 PUSH1 0xA0 SHL SUB AND CALLER EQ DUP1 PUSH2 0x26F7 JUMPI POP PUSH1 0x7 SLOAD PUSH1 0x1 PUSH1 0x1 PUSH1 0xA0 SHL SUB AND CALLER EQ JUMPDEST PUSH2 0x2713 JUMPI PUSH1 0x40 MLOAD PUSH3 0x461BCD PUSH1 0xE5 SHL DUP2 MSTORE PUSH1 0x4 ADD PUSH2 0xD6C SWAP1 PUSH2 0x42D7 JUMP JUMPDEST DUP1 ISZERO PUSH2 0x27A5 JUMPI PUSH1 0x1B DUP5 DUP5 PUSH1 0x40 MLOAD PUSH2 0x272B SWAP3 SWAP2 SWAP1 PUSH2 0x42FA JUMP JUMPDEST SWAP1 DUP2 MSTORE PUSH1 0x20 ADD PUSH1 0x40 MLOAD DUP1 SWAP2 SUB SWAP1 KECCAK256 SLOAD DUP3 GT ISZERO PUSH2 0x276A JUMPI PUSH1 0x0 PUSH1 0x1B DUP6 DUP6 PUSH1 0x40 MLOAD PUSH2 0x2755 SWAP3 SWAP2 SWAP1 PUSH2 0x42FA JUMP JUMPDEST SWAP1 DUP2 MSTORE PUSH1 0x40 MLOAD SWAP1 DUP2 SWAP1 SUB PUSH1 0x20 ADD SWAP1 KECCAK256 SSTORE PUSH2 0xEE6 JUMP JUMPDEST DUP2 PUSH1 0x1B DUP6 DUP6 PUSH1 0x40 MLOAD PUSH2 0x277D SWAP3 SWAP2 SWAP1 PUSH2 0x42FA JUMP JUMPDEST SWAP1 DUP2 MSTORE PUSH1 0x20 ADD PUSH1 0x40 MLOAD DUP1 SWAP2 SUB SWAP1 KECCAK256 PUSH1 0x0 DUP3 DUP3 SLOAD PUSH2 0x279A SWAP2 SWAP1 PUSH2 0x4358 JUMP JUMPDEST SWAP1 SWAP2 SSTORE POP PUSH2 0xEE6 SWAP1 POP JUMP JUMPDEST PUSH1 0x1C DUP5 DUP5 PUSH1 0x40 MLOAD PUSH2 0x27B7 SWAP3 SWAP2 SWAP1 PUSH2 0x42FA JUMP JUMPDEST SWAP1 DUP2 MSTORE PUSH1 0x20 ADD PUSH1 0x40 MLOAD DUP1 SWAP2 SUB SWAP1 KECCAK256 SLOAD DUP3 GT ISZERO PUSH2 0x27E1 JUMPI PUSH1 0x0 PUSH1 0x1C DUP6 DUP6 PUSH1 0x40 MLOAD PUSH2 0x2755 SWAP3 SWAP2 SWAP1 PUSH2 0x42FA JUMP JUMPDEST DUP2 PUSH1 0x1C DUP6 DUP6 PUSH1 0x40 MLOAD PUSH2 0x27F4 SWAP3 SWAP2 SWAP1 PUSH2 0x42FA JUMP JUMPDEST SWAP1 DUP2 MSTORE PUSH1 0x20 ADD PUSH1 0x40 MLOAD DUP1 SWAP2 SUB SWAP1 KECCAK256 PUSH1 0x0 DUP3 DUP3 SLOAD PUSH2 0x2811 SWAP2 SWAP1 PUSH2 0x4358 JUMP JUMPDEST SWAP1 SWAP2 SSTORE POP POP POP POP POP POP JUMP JUMPDEST PUSH1 0x2 SLOAD PUSH1 0x40 DUP1 MLOAD PUSH4 0x18160DDD PUSH1 0xE0 SHL DUP2 MSTORE SWAP1 MLOAD PUSH1 0x0 SWAP3 PUSH1 0x1 PUSH1 0x1 PUSH1 0xA0 SHL SUB AND SWAP2 PUSH4 0x18160DDD SWAP2 PUSH1 0x4 DUP1 DUP4 ADD SWAP3 PUSH1 0x20 SWAP3 SWAP2 SWAP1 DUP3 SWAP1 SUB ADD DUP2 DUP7 GAS STATICCALL ISZERO DUP1 ISZERO PUSH2 0x2866 JUMPI RETURNDATASIZE PUSH1 0x0 DUP1 RETURNDATACOPY RETURNDATASIZE PUSH1 0x0 REVERT JUMPDEST POP POP POP POP PUSH1 0x40 MLOAD RETURNDATASIZE PUSH1 0x1F NOT PUSH1 0x1F DUP3 ADD AND DUP3 ADD DUP1 PUSH1 0x40 MSTORE POP DUP2 ADD SWAP1 PUSH2 0x1FDE SWAP2 SWAP1 PUSH2 0x4719 JUMP JUMPDEST PUSH2 0x2892 PUSH2 0x37A3 JUMP JUMPDEST PUSH1 0x0 PUSH2 0x289F DUP6 DUP6 DUP6 PUSH2 0x3214 JUMP JUMPDEST PUSH1 0x0 DUP2 DUP2 MSTORE PUSH1 0x17 PUSH1 0x20 SWAP1 DUP2 MSTORE PUSH1 0x40 SWAP2 DUP3 SWAP1 KECCAK256 DUP3 MLOAD PUSH2 0x100 DUP1 DUP3 ADD DUP6 MSTORE DUP3 SLOAD PUSH1 0xFF DUP2 AND ISZERO ISZERO DUP4 MSTORE SWAP1 DUP2 DIV PUSH1 0x1 PUSH1 0x1 PUSH1 0x40 SHL SUB AND SWAP4 DUP3 ADD SWAP4 SWAP1 SWAP4 MSTORE PUSH1 0x1 PUSH1 0x48 SHL SWAP1 SWAP3 DIV PUSH1 0x1 PUSH1 0x1 PUSH1 0xA0 SHL SUB AND SWAP3 DUP3 ADD SWAP3 SWAP1 SWAP3 MSTORE PUSH1 0x1 DUP3 ADD DUP1 SLOAD SWAP4 SWAP5 POP SWAP1 SWAP3 PUSH1 0x60 DUP5 ADD SWAP2 SWAP1 PUSH2 0x290A SWAP1 PUSH2 0x43D8 JUMP JUMPDEST DUP1 PUSH1 0x1F ADD PUSH1 0x20 DUP1 SWAP2 DIV MUL PUSH1 0x20 ADD PUSH1 0x40 MLOAD SWAP1 DUP2 ADD PUSH1 0x40 MSTORE DUP1 SWAP3 SWAP2 SWAP1 DUP2 DUP2 MSTORE PUSH1 0x20 ADD DUP3 DUP1 SLOAD PUSH2 0x2936 SWAP1 PUSH2 0x43D8 JUMP JUMPDEST DUP1 ISZERO PUSH2 0x2983 JUMPI DUP1 PUSH1 0x1F LT PUSH2 0x2958 JUMPI PUSH2 0x100 DUP1 DUP4 SLOAD DIV MUL DUP4 MSTORE SWAP2 PUSH1 0x20 ADD SWAP2 PUSH2 0x2983 JUMP JUMPDEST DUP3 ADD SWAP2 SWAP1 PUSH1 0x0 MSTORE PUSH1 0x20 PUSH1 0x0 KECCAK256 SWAP1 JUMPDEST DUP2 SLOAD DUP2 MSTORE SWAP1 PUSH1 0x1 ADD SWAP1 PUSH1 0x20 ADD DUP1 DUP4 GT PUSH2 0x2966 JUMPI DUP3 SWAP1 SUB PUSH1 0x1F AND DUP3 ADD SWAP2 JUMPDEST POP POP POP POP POP DUP2 MSTORE PUSH1 0x20 ADD PUSH1 0x2 DUP3 ADD SLOAD DUP2 MSTORE PUSH1 0x20 ADD PUSH1 0x3 DUP3 ADD SLOAD DUP2 MSTORE PUSH1 0x20 ADD PUSH1 0x4 DUP3 ADD SLOAD DUP2 MSTORE PUSH1 0x20 ADD PUSH1 0x5 DUP3 ADD SLOAD DUP2 MSTORE POP POP SWAP2 POP POP SWAP4 SWAP3 POP POP POP JUMP JUMPDEST PUSH1 0x0 DUP1 PUSH1 0x2 PUSH1 0x0 SWAP1 SLOAD SWAP1 PUSH2 0x100 EXP SWAP1 DIV PUSH1 0x1 PUSH1 0x1 PUSH1 0xA0 SHL SUB AND PUSH1 0x1 PUSH1 0x1 PUSH1 0xA0 SHL SUB AND PUSH4 0x18160DDD PUSH1 0x40 MLOAD DUP2 PUSH4 0xFFFFFFFF AND PUSH1 0xE0 SHL DUP2 MSTORE PUSH1 0x4 ADD PUSH1 0x20 PUSH1 0x40 MLOAD DUP1 DUP4 SUB DUP2 DUP7 GAS STATICCALL ISZERO DUP1 ISZERO PUSH2 0x2A14 JUMPI RETURNDATASIZE PUSH1 0x0 DUP1 RETURNDATACOPY RETURNDATASIZE PUSH1 0x0 REVERT JUMPDEST POP POP POP POP PUSH1 0x40 MLOAD RETURNDATASIZE PUSH1 0x1F NOT PUSH1 0x1F DUP3 ADD AND DUP3 ADD DUP1 PUSH1 0x40 MSTORE POP DUP2 ADD SWAP1 PUSH2 0x2A38 SWAP2 SWAP1 PUSH2 0x4719 JUMP JUMPDEST SWAP1 POP DUP1 PUSH1 0x0 SUB PUSH2 0x2A4B JUMPI POP PUSH1 0x0 SWAP3 SWAP2 POP POP JUMP JUMPDEST PUSH1 0xD SLOAD PUSH1 0x2 SLOAD PUSH1 0x40 MLOAD PUSH4 0x70A08231 PUSH1 0xE0 SHL DUP2 MSTORE PUSH1 0x1 PUSH1 0x1 PUSH1 0xA0 SHL SUB DUP7 DUP2 AND PUSH1 0x4 DUP4 ADD MSTORE DUP5 SWAP4 SWAP3 AND SWAP1 PUSH4 0x70A08231 SWAP1 PUSH1 0x24 ADD PUSH1 0x20 PUSH1 0x40 MLOAD DUP1 DUP4 SUB DUP2 DUP7 GAS STATICCALL ISZERO DUP1 ISZERO PUSH2 0x2A99 JUMPI RETURNDATASIZE PUSH1 0x0 DUP1 RETURNDATACOPY RETURNDATASIZE PUSH1 0x0 REVERT JUMPDEST POP POP POP POP PUSH1 0x40 MLOAD RETURNDATASIZE PUSH1 0x1F NOT PUSH1 0x1F DUP3 ADD AND DUP3 ADD DUP1 PUSH1 0x40 MSTORE POP DUP2 ADD SWAP1 PUSH2 0x2ABD SWAP2 SWAP1 PUSH2 0x4719 JUMP JUMPDEST PUSH2 0x2AC7 SWAP2 SWAP1 PUSH2 0x48F7 JUMP JUMPDEST PUSH2 0x2AD1 SWAP2 SWAP1 PUSH2 0x490E JUMP JUMPDEST SWAP4 SWAP3 POP POP POP JUMP JUMPDEST PUSH1 0x0 SLOAD PUSH1 0x1 PUSH1 0x1 PUSH1 0xA0 SHL SUB AND CALLER EQ PUSH2 0x2B02 JUMPI PUSH1 0x40 MLOAD PUSH3 0x461BCD PUSH1 0xE5 SHL DUP2 MSTORE PUSH1 0x4 ADD PUSH2 0xD6C SWAP1 PUSH2 0x4333 JUMP JUMPDEST PUSH1 0x3 DUP1 SLOAD PUSH1 0x1 PUSH1 0x1 PUSH1 0xA0 SHL SUB SWAP5 DUP6 AND PUSH1 0x1 PUSH1 0x1 PUSH1 0xA0 SHL SUB NOT SWAP2 DUP3 AND OR SWAP1 SWAP2 SSTORE PUSH1 0x4 DUP1 SLOAD SWAP4 DUP6 AND SWAP4 DUP3 AND SWAP4 SWAP1 SWAP4 OR SWAP1 SWAP3 SSTORE PUSH1 0x5 DUP1 SLOAD SWAP2 SWAP1 SWAP4 AND SWAP2 AND OR SWAP1 SSTORE JUMP JUMPDEST PUSH1 0x6 SLOAD PUSH1 0x1 PUSH1 0x1 PUSH1 0xA0 SHL SUB AND CALLER EQ DUP1 PUSH2 0x2B64 JUMPI POP PUSH1 0x7 SLOAD PUSH1 0x1 PUSH1 0x1 PUSH1 0xA0 SHL SUB AND CALLER EQ JUMPDEST PUSH2 0x2B80 JUMPI PUSH1 0x40 MLOAD PUSH3 0x461BCD PUSH1 0xE5 SHL DUP2 MSTORE PUSH1 0x4 ADD PUSH2 0xD6C SWAP1 PUSH2 0x42D7 JUMP JUMPDEST PUSH1 0xE SSTORE JUMP JUMPDEST PUSH2 0x2B8D PUSH2 0x37FC JUMP JUMPDEST PUSH1 0x0 DUP3 DUP2 MSTORE PUSH1 0x11 PUSH1 0x20 SWAP1 DUP2 MSTORE PUSH1 0x40 SWAP2 DUP3 SWAP1 KECCAK256 DUP3 MLOAD PUSH2 0x160 DUP2 ADD DUP5 MSTORE DUP2 SLOAD PUSH1 0xFF DUP1 DUP3 AND ISZERO ISZERO DUP4 MSTORE PUSH2 0x100 DUP3 DIV DUP2 AND ISZERO ISZERO SWAP5 DUP4 ADD SWAP5 SWAP1 SWAP5 MSTORE PUSH3 0x10000 DUP2 DIV SWAP1 SWAP4 AND SWAP4 DUP2 ADD SWAP4 SWAP1 SWAP4 MSTORE PUSH4 0x1000000 DUP3 DIV PUSH1 0x1 PUSH1 0x1 PUSH1 0x48 SHL SUB AND PUSH1 0x60 DUP5 ADD MSTORE PUSH1 0x1 PUSH1 0x60 SHL SWAP1 SWAP2 DIV PUSH1 0x1 PUSH1 0x1 PUSH1 0xA0 SHL SUB AND PUSH1 0x80 DUP4 ADD MSTORE PUSH1 0x1 DUP2 ADD DUP1 SLOAD PUSH1 0xA0 DUP5 ADD SWAP2 SWAP1 PUSH2 0x2C13 SWAP1 PUSH2 0x43D8 JUMP JUMPDEST DUP1 PUSH1 0x1F ADD PUSH1 0x20 DUP1 SWAP2 DIV MUL PUSH1 0x20 ADD PUSH1 0x40 MLOAD SWAP1 DUP2 ADD PUSH1 0x40 MSTORE DUP1 SWAP3 SWAP2 SWAP1 DUP2 DUP2 MSTORE PUSH1 0x20 ADD DUP3 DUP1 SLOAD PUSH2 0x2C3F SWAP1 PUSH2 0x43D8 JUMP JUMPDEST DUP1 ISZERO PUSH2 0x2C8C JUMPI DUP1 PUSH1 0x1F LT PUSH2 0x2C61 JUMPI PUSH2 0x100 DUP1 DUP4 SLOAD DIV MUL DUP4 MSTORE SWAP2 PUSH1 0x20 ADD SWAP2 PUSH2 0x2C8C JUMP JUMPDEST DUP3 ADD SWAP2 SWAP1 PUSH1 0x0 MSTORE PUSH1 0x20 PUSH1 0x0 KECCAK256 SWAP1 JUMPDEST DUP2 SLOAD DUP2 MSTORE SWAP1 PUSH1 0x1 ADD SWAP1 PUSH1 0x20 ADD DUP1 DUP4 GT PUSH2 0x2C6F JUMPI DUP3 SWAP1 SUB PUSH1 0x1F AND DUP3 ADD SWAP2 JUMPDEST POP POP POP SWAP2 DUP4 MSTORE POP POP PUSH1 0x2 DUP3 ADD SLOAD PUSH1 0x1 PUSH1 0x1 PUSH1 0x40 SHL SUB DUP2 AND PUSH1 0x20 DUP4 ADD MSTORE PUSH1 0x1 PUSH1 0x40 SHL SWAP1 DIV PUSH1 0x1 PUSH1 0x1 PUSH1 0xC0 SHL SUB AND PUSH1 0x40 DUP3 ADD MSTORE PUSH1 0x3 DUP3 ADD SLOAD PUSH1 0x60 DUP3 ADD MSTORE PUSH1 0x4 DUP3 ADD SLOAD PUSH1 0x80 DUP3 ADD MSTORE PUSH1 0x5 SWAP1 SWAP2 ADD SLOAD PUSH1 0xA0 SWAP1 SWAP2 ADD MSTORE SWAP3 SWAP2 POP POP JUMP JUMPDEST PUSH1 0x0 SLOAD PUSH1 0x1 PUSH1 0x1 PUSH1 0xA0 SHL SUB AND CALLER EQ PUSH2 0x2D0D JUMPI PUSH1 0x40 MLOAD PUSH3 0x461BCD PUSH1 0xE5 SHL DUP2 MSTORE PUSH1 0x4 ADD PUSH2 0xD6C SWAP1 PUSH2 0x4333 JUMP JUMPDEST PUSH2 0x1F4 PUSH2 0x2D20 PUSH1 0xA0 DUP4 ADD PUSH1 0x80 DUP5 ADD PUSH2 0x4942 JUMP JUMPDEST PUSH4 0xFFFFFFFF AND GT ISZERO PUSH2 0x2D5F JUMPI PUSH1 0x40 MLOAD PUSH3 0x461BCD PUSH1 0xE5 SHL DUP2 MSTORE PUSH1 0x20 PUSH1 0x4 DUP3 ADD MSTORE PUSH1 0x8 PUSH1 0x24 DUP3 ADD MSTORE PUSH8 0x216D61782D666565 PUSH1 0xC0 SHL PUSH1 0x44 DUP3 ADD MSTORE PUSH1 0x64 ADD PUSH2 0xD6C JUMP JUMPDEST DUP1 PUSH1 0x16 DUP5 DUP5 PUSH1 0x40 MLOAD PUSH2 0x2D72 SWAP3 SWAP2 SWAP1 PUSH2 0x42FA JUMP JUMPDEST SWAP1 DUP2 MSTORE PUSH1 0x40 MLOAD SWAP1 DUP2 SWAP1 SUB PUSH1 0x20 ADD SWAP1 KECCAK256 PUSH2 0x2D8B DUP3 DUP3 PUSH2 0x4980 JUMP JUMPDEST SWAP1 POP POP PUSH1 0x0 JUMPDEST PUSH1 0x15 SLOAD DUP2 LT ISZERO PUSH2 0x2E24 JUMPI DUP4 DUP4 PUSH1 0x40 MLOAD PUSH1 0x20 ADD PUSH2 0x2DAE SWAP3 SWAP2 SWAP1 PUSH2 0x42FA JUMP JUMPDEST PUSH1 0x40 MLOAD PUSH1 0x20 DUP2 DUP4 SUB SUB DUP2 MSTORE SWAP1 PUSH1 0x40 MSTORE DUP1 MLOAD SWAP1 PUSH1 0x20 ADD KECCAK256 PUSH1 0x15 DUP3 DUP2 SLOAD DUP2 LT PUSH2 0x2DD7 JUMPI PUSH2 0x2DD7 PUSH2 0x4609 JUMP JUMPDEST SWAP1 PUSH1 0x0 MSTORE PUSH1 0x20 PUSH1 0x0 KECCAK256 ADD PUSH1 0x40 MLOAD PUSH1 0x20 ADD PUSH2 0x2DF1 SWAP2 SWAP1 PUSH2 0x4B4E JUMP JUMPDEST PUSH1 0x40 MLOAD PUSH1 0x20 DUP2 DUP4 SUB SUB DUP2 MSTORE SWAP1 PUSH1 0x40 MSTORE DUP1 MLOAD SWAP1 PUSH1 0x20 ADD KECCAK256 SUB PUSH2 0x2E12 JUMPI POP POP POP POP JUMP JUMPDEST DUP1 PUSH2 0x2E1C DUP2 PUSH2 0x461F JUMP JUMPDEST SWAP2 POP POP PUSH2 0x2D91 JUMP JUMPDEST POP PUSH1 0x15 DUP1 SLOAD PUSH1 0x1 DUP2 ADD DUP3 SSTORE PUSH1 0x0 SWAP2 SWAP1 SWAP2 MSTORE PUSH32 0x55F448FDEA98C4D29EB340757EF0A66CD03DBB9538908A6A81D96026B71EC475 ADD PUSH2 0xEE6 DUP4 DUP6 DUP4 PUSH2 0x4467 JUMP JUMPDEST PUSH1 0x0 PUSH1 0x16 DUP4 DUP4 PUSH1 0x40 MLOAD PUSH2 0x2E76 SWAP3 SWAP2 SWAP1 PUSH2 0x42FA JUMP JUMPDEST SWAP1 DUP2 MSTORE PUSH1 0x40 MLOAD SWAP1 DUP2 SWAP1 SUB PUSH1 0x20 ADD SWAP1 KECCAK256 PUSH1 0x1 ADD SLOAD PUSH4 0xFFFFFFFF PUSH1 0x1 PUSH1 0xE0 SHL SWAP1 SWAP2 DIV AND SWAP1 POP SWAP3 SWAP2 POP POP JUMP JUMPDEST PUSH1 0x6 SLOAD PUSH1 0x0 SWAP1 PUSH1 0x1 PUSH1 0x1 PUSH1 0xA0 SHL SUB AND CALLER EQ DUP1 PUSH2 0x2EC5 JUMPI POP PUSH1 0x7 SLOAD PUSH1 0x1 PUSH1 0x1 PUSH1 0xA0 SHL SUB AND CALLER EQ JUMPDEST PUSH2 0x2EE1 JUMPI PUSH1 0x40 MLOAD PUSH3 0x461BCD PUSH1 0xE5 SHL DUP2 MSTORE PUSH1 0x4 ADD PUSH2 0xD6C SWAP1 PUSH2 0x42D7 JUMP JUMPDEST PUSH1 0x3 SLOAD PUSH1 0x1 PUSH1 0x1 PUSH1 0xA0 SHL SUB AND PUSH2 0x2F27 JUMPI PUSH1 0x40 MLOAD PUSH3 0x461BCD PUSH1 0xE5 SHL DUP2 MSTORE PUSH1 0x20 PUSH1 0x4 DUP3 ADD MSTORE PUSH1 0xB PUSH1 0x24 DUP3 ADD MSTORE PUSH11 0x10B9BBB0B82937BABA32B9 PUSH1 0xA9 SHL PUSH1 0x44 DUP3 ADD MSTORE PUSH1 0x64 ADD PUSH2 0xD6C JUMP JUMPDEST CALLVALUE ISZERO PUSH2 0x2F43 JUMPI PUSH1 0x5 SLOAD CALLVALUE SWAP6 POP PUSH1 0x1 PUSH1 0x1 PUSH1 0xA0 SHL SUB AND SWAP3 POP PUSH2 0x2F72 JUMP JUMPDEST PUSH2 0x2F58 PUSH1 0x1 PUSH1 0x1 PUSH1 0xA0 SHL SUB DUP5 AND DUP8 ADDRESS DUP9 PUSH2 0x3305 JUMP JUMPDEST PUSH1 0x3 SLOAD PUSH2 0x2F72 SWAP1 PUSH1 0x1 PUSH1 0x1 PUSH1 0xA0 SHL SUB DUP6 DUP2 AND SWAP2 AND DUP8 PUSH2 0x333D JUMP JUMPDEST PUSH1 0x40 DUP1 MLOAD PUSH2 0x100 DUP2 ADD DUP3 MSTORE PUSH1 0x1 PUSH1 0x1 PUSH1 0xA0 SHL SUB DUP1 DUP7 AND DUP3 MSTORE PUSH1 0x1 SLOAD AND PUSH1 0x20 DUP3 ADD MSTORE PUSH3 0xFFFFFF DUP5 AND SWAP2 DUP2 ADD SWAP2 SWAP1 SWAP2 MSTORE ADDRESS PUSH1 0x60 DUP3 ADD MSTORE PUSH1 0x0 SWAP1 PUSH1 0x80 DUP2 ADD PUSH2 0x2FB8 TIMESTAMP PUSH1 0xF PUSH2 0x4320 JUMP JUMPDEST DUP2 MSTORE PUSH1 0x20 DUP1 DUP3 ADD DUP10 SWAP1 MSTORE PUSH1 0x40 DUP1 DUP4 ADD DUP10 SWAP1 MSTORE PUSH1 0x0 PUSH1 0x60 SWAP4 DUP5 ADD MSTORE PUSH1 0x3 SLOAD DUP2 MLOAD PUSH4 0x414BF389 PUSH1 0xE0 SHL DUP2 MSTORE DUP6 MLOAD PUSH1 0x1 PUSH1 0x1 PUSH1 0xA0 SHL SUB SWAP1 DUP2 AND PUSH1 0x4 DUP4 ADD MSTORE SWAP4 DUP7 ADD MLOAD DUP5 AND PUSH1 0x24 DUP3 ADD MSTORE SWAP2 DUP6 ADD MLOAD PUSH3 0xFFFFFF AND PUSH1 0x44 DUP4 ADD MSTORE SWAP3 DUP5 ADD MLOAD DUP3 AND PUSH1 0x64 DUP3 ADD MSTORE PUSH1 0x80 DUP5 ADD MLOAD PUSH1 0x84 DUP3 ADD MSTORE PUSH1 0xA0 DUP5 ADD MLOAD PUSH1 0xA4 DUP3 ADD MSTORE PUSH1 0xC0 DUP5 ADD MLOAD PUSH1 0xC4 DUP3 ADD MSTORE PUSH1 0xE0 DUP5 ADD MLOAD DUP3 AND PUSH1 0xE4 DUP3 ADD MSTORE SWAP3 SWAP4 POP AND SWAP1 PUSH4 0x414BF389 SWAP1 CALLVALUE SWAP1 PUSH2 0x104 ADD PUSH1 0x20 PUSH1 0x40 MLOAD DUP1 DUP4 SUB DUP2 DUP6 DUP9 GAS CALL ISZERO DUP1 ISZERO PUSH2 0x3070 JUMPI RETURNDATASIZE PUSH1 0x0 DUP1 RETURNDATACOPY RETURNDATASIZE PUSH1 0x0 REVERT JUMPDEST POP POP POP POP POP PUSH1 0x40 MLOAD RETURNDATASIZE PUSH1 0x1F NOT PUSH1 0x1F DUP3 ADD AND DUP3 ADD DUP1 PUSH1 0x40 MSTORE POP DUP2 ADD SWAP1 PUSH2 0x3095 SWAP2 SWAP1 PUSH2 0x4719 JUMP JUMPDEST SWAP8 SWAP7 POP POP POP POP POP POP POP JUMP JUMPDEST PUSH1 0x6 SLOAD PUSH1 0x1 PUSH1 0x1 PUSH1 0xA0 SHL SUB AND CALLER EQ DUP1 PUSH2 0x30C3 JUMPI POP PUSH1 0x7 SLOAD PUSH1 0x1 PUSH1 0x1 PUSH1 0xA0 SHL SUB AND CALLER EQ JUMPDEST PUSH2 0x30DF JUMPI PUSH1 0x40 MLOAD PUSH3 0x461BCD PUSH1 0xE5 SHL DUP2 MSTORE PUSH1 0x4 ADD PUSH2 0xD6C SWAP1 PUSH2 0x42D7 JUMP JUMPDEST PUSH1 0x1 SLOAD PUSH2 0x178C SWAP1 PUSH1 0x1 PUSH1 0x1 PUSH1 0xA0 SHL SUB AND DUP4 ADDRESS DUP5 PUSH2 0x3305 JUMP JUMPDEST PUSH1 0x6 SLOAD PUSH1 0x1 PUSH1 0x1 PUSH1 0xA0 SHL SUB AND CALLER EQ DUP1 PUSH2 0x311A JUMPI POP PUSH1 0x7 SLOAD PUSH1 0x1 PUSH1 0x1 PUSH1 0xA0 SHL SUB AND CALLER EQ JUMPDEST PUSH2 0x3136 JUMPI PUSH1 0x40 MLOAD PUSH3 0x461BCD PUSH1 0xE5 SHL DUP2 MSTORE PUSH1 0x4 ADD PUSH2 0xD6C SWAP1 PUSH2 0x42D7 JUMP JUMPDEST PUSH1 0x0 PUSH2 0x3143 DUP5 DUP5 DUP5 PUSH2 0x3214 JUMP JUMPDEST PUSH1 0x1 PUSH1 0x1 PUSH1 0xA0 SHL SUB DUP6 AND PUSH1 0x0 SWAP1 DUP2 MSTORE PUSH1 0x1A PUSH1 0x20 MSTORE PUSH1 0x40 SWAP1 KECCAK256 SWAP1 SWAP2 POP PUSH2 0x3168 SWAP1 DUP3 PUSH2 0x32E4 JUMP JUMPDEST POP PUSH2 0x3174 PUSH1 0x18 DUP3 PUSH2 0x32E4 JUMP JUMPDEST POP PUSH1 0x0 DUP2 DUP2 MSTORE PUSH1 0x17 PUSH1 0x20 MSTORE PUSH1 0x40 DUP2 KECCAK256 DUP1 SLOAD PUSH1 0x1 PUSH1 0x1 PUSH1 0xE8 SHL SUB NOT AND DUP2 SSTORE SWAP1 PUSH2 0x319F PUSH1 0x1 DUP4 ADD DUP3 PUSH2 0x3857 JUMP JUMPDEST POP PUSH1 0x0 PUSH1 0x2 DUP3 ADD DUP2 SWAP1 SSTORE PUSH1 0x3 DUP3 ADD DUP2 SWAP1 SSTORE PUSH1 0x4 DUP3 ADD DUP2 SWAP1 SSTORE PUSH1 0x5 SWAP1 SWAP2 ADD SSTORE POP POP POP POP JUMP JUMPDEST PUSH1 0x6 SLOAD PUSH1 0x1 PUSH1 0x1 PUSH1 0xA0 SHL SUB AND CALLER EQ DUP1 PUSH2 0x31E6 JUMPI POP PUSH1 0x7 SLOAD PUSH1 0x1 PUSH1 0x1 PUSH1 0xA0 SHL SUB AND CALLER EQ JUMPDEST PUSH2 0x3202 JUMPI PUSH1 0x40 MLOAD PUSH3 0x461BCD PUSH1 0xE5 SHL DUP2 MSTORE PUSH1 0x4 ADD PUSH2 0xD6C SWAP1 PUSH2 0x42D7 JUMP JUMPDEST DUP1 PUSH1 0xC PUSH1 0x0 DUP3 DUP3 SLOAD PUSH2 0x10A2 SWAP2 SWAP1 PUSH2 0x4320 JUMP JUMPDEST PUSH1 0x0 DUP4 DUP4 DUP4 PUSH1 0x40 MLOAD PUSH1 0x20 ADD PUSH2 0x322B SWAP4 SWAP3 SWAP2 SWAP1 PUSH2 0x4BC4 JUMP JUMPDEST PUSH1 0x40 MLOAD PUSH1 0x20 DUP2 DUP4 SUB SUB DUP2 MSTORE SWAP1 PUSH1 0x40 MSTORE DUP1 MLOAD SWAP1 PUSH1 0x20 ADD KECCAK256 SWAP1 POP SWAP4 SWAP3 POP POP POP JUMP JUMPDEST PUSH1 0x0 PUSH2 0x2AD1 DUP4 DUP4 PUSH2 0x3452 JUMP JUMPDEST PUSH1 0x0 PUSH2 0x1886 DUP3 SLOAD SWAP1 JUMP JUMPDEST PUSH1 0x0 PUSH2 0x2AD1 DUP4 DUP4 PUSH2 0x34A1 JUMP JUMPDEST PUSH1 0x0 PUSH2 0x2AD1 DUP4 PUSH1 0x1 PUSH1 0x1 PUSH1 0xA0 SHL SUB DUP5 AND PUSH2 0x34CB JUMP JUMPDEST PUSH1 0x40 MLOAD PUSH1 0x1 PUSH1 0x1 PUSH1 0xA0 SHL SUB DUP4 AND PUSH1 0x24 DUP3 ADD MSTORE PUSH1 0x44 DUP2 ADD DUP3 SWAP1 MSTORE PUSH2 0x1209 SWAP1 DUP5 SWAP1 PUSH4 0xA9059CBB PUSH1 0xE0 SHL SWAP1 PUSH1 0x64 ADD JUMPDEST PUSH1 0x40 DUP1 MLOAD PUSH1 0x1F NOT DUP2 DUP5 SUB ADD DUP2 MSTORE SWAP2 SWAP1 MSTORE PUSH1 0x20 DUP2 ADD DUP1 MLOAD PUSH1 0x1 PUSH1 0x1 PUSH1 0xE0 SHL SUB AND PUSH1 0x1 PUSH1 0x1 PUSH1 0xE0 SHL SUB NOT SWAP1 SWAP4 AND SWAP3 SWAP1 SWAP3 OR SWAP1 SWAP2 MSTORE PUSH2 0x35BE JUMP JUMPDEST PUSH1 0x0 PUSH2 0x2AD1 DUP4 DUP4 PUSH2 0x34CB JUMP JUMPDEST PUSH1 0x0 PUSH2 0x2AD1 DUP4 PUSH1 0x1 PUSH1 0x1 PUSH1 0xA0 SHL SUB DUP5 AND PUSH2 0x3452 JUMP JUMPDEST PUSH1 0x40 MLOAD PUSH1 0x1 PUSH1 0x1 PUSH1 0xA0 SHL SUB DUP1 DUP6 AND PUSH1 0x24 DUP4 ADD MSTORE DUP4 AND PUSH1 0x44 DUP3 ADD MSTORE PUSH1 0x64 DUP2 ADD DUP3 SWAP1 MSTORE PUSH2 0xEE6 SWAP1 DUP6 SWAP1 PUSH4 0x23B872DD PUSH1 0xE0 SHL SWAP1 PUSH1 0x84 ADD PUSH2 0x32AD JUMP JUMPDEST DUP1 ISZERO DUP1 PUSH2 0x33B7 JUMPI POP PUSH1 0x40 MLOAD PUSH4 0x6EB1769F PUSH1 0xE1 SHL DUP2 MSTORE ADDRESS PUSH1 0x4 DUP3 ADD MSTORE PUSH1 0x1 PUSH1 0x1 PUSH1 0xA0 SHL SUB DUP4 DUP2 AND PUSH1 0x24 DUP4 ADD MSTORE DUP5 AND SWAP1 PUSH4 0xDD62ED3E SWAP1 PUSH1 0x44 ADD PUSH1 0x20 PUSH1 0x40 MLOAD DUP1 DUP4 SUB DUP2 DUP7 GAS STATICCALL ISZERO DUP1 ISZERO PUSH2 0x3391 JUMPI RETURNDATASIZE PUSH1 0x0 DUP1 RETURNDATACOPY RETURNDATASIZE PUSH1 0x0 REVERT JUMPDEST POP POP POP POP PUSH1 0x40 MLOAD RETURNDATASIZE PUSH1 0x1F NOT PUSH1 0x1F DUP3 ADD AND DUP3 ADD DUP1 PUSH1 0x40 MSTORE POP DUP2 ADD SWAP1 PUSH2 0x33B5 SWAP2 SWAP1 PUSH2 0x4719 JUMP JUMPDEST ISZERO JUMPDEST PUSH2 0x3422 JUMPI PUSH1 0x40 MLOAD PUSH3 0x461BCD PUSH1 0xE5 SHL DUP2 MSTORE PUSH1 0x20 PUSH1 0x4 DUP3 ADD MSTORE PUSH1 0x36 PUSH1 0x24 DUP3 ADD MSTORE PUSH32 0x5361666545524332303A20617070726F76652066726F6D206E6F6E2D7A65726F PUSH1 0x44 DUP3 ADD MSTORE PUSH22 0x20746F206E6F6E2D7A65726F20616C6C6F77616E6365 PUSH1 0x50 SHL PUSH1 0x64 DUP3 ADD MSTORE PUSH1 0x84 ADD PUSH2 0xD6C JUMP JUMPDEST PUSH1 0x40 MLOAD PUSH1 0x1 PUSH1 0x1 PUSH1 0xA0 SHL SUB DUP4 AND PUSH1 0x24 DUP3 ADD MSTORE PUSH1 0x44 DUP2 ADD DUP3 SWAP1 MSTORE PUSH2 0x1209 SWAP1 DUP5 SWAP1 PUSH4 0x95EA7B3 PUSH1 0xE0 SHL SWAP1 PUSH1 0x64 ADD PUSH2 0x32AD JUMP JUMPDEST PUSH1 0x0 DUP2 DUP2 MSTORE PUSH1 0x1 DUP4 ADD PUSH1 0x20 MSTORE PUSH1 0x40 DUP2 KECCAK256 SLOAD PUSH2 0x3499 JUMPI POP DUP2 SLOAD PUSH1 0x1 DUP2 DUP2 ADD DUP5 SSTORE PUSH1 0x0 DUP5 DUP2 MSTORE PUSH1 0x20 DUP1 DUP3 KECCAK256 SWAP1 SWAP4 ADD DUP5 SWAP1 SSTORE DUP5 SLOAD DUP5 DUP3 MSTORE DUP3 DUP7 ADD SWAP1 SWAP4 MSTORE PUSH1 0x40 SWAP1 KECCAK256 SWAP2 SWAP1 SWAP2 SSTORE PUSH2 0x1886 JUMP JUMPDEST POP PUSH1 0x0 PUSH2 0x1886 JUMP JUMPDEST PUSH1 0x0 DUP3 PUSH1 0x0 ADD DUP3 DUP2 SLOAD DUP2 LT PUSH2 0x34B8 JUMPI PUSH2 0x34B8 PUSH2 0x4609 JUMP JUMPDEST SWAP1 PUSH1 0x0 MSTORE PUSH1 0x20 PUSH1 0x0 KECCAK256 ADD SLOAD SWAP1 POP SWAP3 SWAP2 POP POP JUMP JUMPDEST PUSH1 0x0 DUP2 DUP2 MSTORE PUSH1 0x1 DUP4 ADD PUSH1 0x20 MSTORE PUSH1 0x40 DUP2 KECCAK256 SLOAD DUP1 ISZERO PUSH2 0x35B4 JUMPI PUSH1 0x0 PUSH2 0x34EF PUSH1 0x1 DUP4 PUSH2 0x4358 JUMP JUMPDEST DUP6 SLOAD SWAP1 SWAP2 POP PUSH1 0x0 SWAP1 PUSH2 0x3503 SWAP1 PUSH1 0x1 SWAP1 PUSH2 0x4358 JUMP JUMPDEST SWAP1 POP DUP2 DUP2 EQ PUSH2 0x3568 JUMPI PUSH1 0x0 DUP7 PUSH1 0x0 ADD DUP3 DUP2 SLOAD DUP2 LT PUSH2 0x3523 JUMPI PUSH2 0x3523 PUSH2 0x4609 JUMP JUMPDEST SWAP1 PUSH1 0x0 MSTORE PUSH1 0x20 PUSH1 0x0 KECCAK256 ADD SLOAD SWAP1 POP DUP1 DUP8 PUSH1 0x0 ADD DUP5 DUP2 SLOAD DUP2 LT PUSH2 0x3546 JUMPI PUSH2 0x3546 PUSH2 0x4609 JUMP JUMPDEST PUSH1 0x0 SWAP2 DUP3 MSTORE PUSH1 0x20 DUP1 DUP4 KECCAK256 SWAP1 SWAP2 ADD SWAP3 SWAP1 SWAP3 SSTORE SWAP2 DUP3 MSTORE PUSH1 0x1 DUP9 ADD SWAP1 MSTORE PUSH1 0x40 SWAP1 KECCAK256 DUP4 SWAP1 SSTORE JUMPDEST DUP6 SLOAD DUP7 SWAP1 DUP1 PUSH2 0x3579 JUMPI PUSH2 0x3579 PUSH2 0x4BEB JUMP JUMPDEST PUSH1 0x1 SWAP1 SUB DUP2 DUP2 SWAP1 PUSH1 0x0 MSTORE PUSH1 0x20 PUSH1 0x0 KECCAK256 ADD PUSH1 0x0 SWAP1 SSTORE SWAP1 SSTORE DUP6 PUSH1 0x1 ADD PUSH1 0x0 DUP7 DUP2 MSTORE PUSH1 0x20 ADD SWAP1 DUP2 MSTORE PUSH1 0x20 ADD PUSH1 0x0 KECCAK256 PUSH1 0x0 SWAP1 SSTORE PUSH1 0x1 SWAP4 POP POP POP POP PUSH2 0x1886 JUMP JUMPDEST PUSH1 0x0 SWAP2 POP POP PUSH2 0x1886 JUMP JUMPDEST PUSH1 0x0 PUSH2 0x3613 DUP3 PUSH1 0x40 MLOAD DUP1 PUSH1 0x40 ADD PUSH1 0x40 MSTORE DUP1 PUSH1 0x20 DUP2 MSTORE PUSH1 0x20 ADD PUSH32 0x5361666545524332303A206C6F772D6C6576656C2063616C6C206661696C6564 DUP2 MSTORE POP DUP6 PUSH1 0x1 PUSH1 0x1 PUSH1 0xA0 SHL SUB AND PUSH2 0x3690 SWAP1 SWAP3 SWAP2 SWAP1 PUSH4 0xFFFFFFFF AND JUMP JUMPDEST DUP1 MLOAD SWAP1 SWAP2 POP ISZERO PUSH2 0x1209 JUMPI DUP1 DUP1 PUSH1 0x20 ADD SWAP1 MLOAD DUP2 ADD SWAP1 PUSH2 0x3631 SWAP2 SWAP1 PUSH2 0x4C01 JUMP JUMPDEST PUSH2 0x1209 JUMPI PUSH1 0x40 MLOAD PUSH3 0x461BCD PUSH1 0xE5 SHL DUP2 MSTORE PUSH1 0x20 PUSH1 0x4 DUP3 ADD MSTORE PUSH1 0x2A PUSH1 0x24 DUP3 ADD MSTORE PUSH32 0x5361666545524332303A204552433230206F7065726174696F6E20646964206E PUSH1 0x44 DUP3 ADD MSTORE PUSH10 0x1BDD081CDD58D8D95959 PUSH1 0xB2 SHL PUSH1 0x64 DUP3 ADD MSTORE PUSH1 0x84 ADD PUSH2 0xD6C JUMP JUMPDEST PUSH1 0x60 PUSH2 0x210B DUP5 DUP5 PUSH1 0x0 DUP6 DUP6 PUSH1 0x0 DUP1 DUP7 PUSH1 0x1 PUSH1 0x1 PUSH1 0xA0 SHL SUB AND DUP6 DUP8 PUSH1 0x40 MLOAD PUSH2 0x36B7 SWAP2 SWAP1 PUSH2 0x4C1E JUMP JUMPDEST PUSH1 0x0 PUSH1 0x40 MLOAD DUP1 DUP4 SUB DUP2 DUP6 DUP8 GAS CALL SWAP3 POP POP POP RETURNDATASIZE DUP1 PUSH1 0x0 DUP2 EQ PUSH2 0x36F4 JUMPI PUSH1 0x40 MLOAD SWAP2 POP PUSH1 0x1F NOT PUSH1 0x3F RETURNDATASIZE ADD AND DUP3 ADD PUSH1 0x40 MSTORE RETURNDATASIZE DUP3 MSTORE RETURNDATASIZE PUSH1 0x0 PUSH1 0x20 DUP5 ADD RETURNDATACOPY PUSH2 0x36F9 JUMP JUMPDEST PUSH1 0x60 SWAP2 POP JUMPDEST POP SWAP2 POP SWAP2 POP PUSH2 0x3095 DUP8 DUP4 DUP4 DUP8 PUSH1 0x60 DUP4 ISZERO PUSH2 0x3774 JUMPI DUP3 MLOAD PUSH1 0x0 SUB PUSH2 0x376D JUMPI PUSH1 0x1 PUSH1 0x1 PUSH1 0xA0 SHL SUB DUP6 AND EXTCODESIZE PUSH2 0x376D JUMPI PUSH1 0x40 MLOAD PUSH3 0x461BCD PUSH1 0xE5 SHL DUP2 MSTORE PUSH1 0x20 PUSH1 0x4 DUP3 ADD MSTORE PUSH1 0x1D PUSH1 0x24 DUP3 ADD MSTORE PUSH32 0x416464726573733A2063616C6C20746F206E6F6E2D636F6E7472616374000000 PUSH1 0x44 DUP3 ADD MSTORE PUSH1 0x64 ADD PUSH2 0xD6C JUMP JUMPDEST POP DUP2 PUSH2 0x210B JUMP JUMPDEST PUSH2 0x210B DUP4 DUP4 DUP2 MLOAD ISZERO PUSH2 0x3789 JUMPI DUP2 MLOAD DUP1 DUP4 PUSH1 0x20 ADD REVERT JUMPDEST DUP1 PUSH1 0x40 MLOAD PUSH3 0x461BCD PUSH1 0xE5 SHL DUP2 MSTORE PUSH1 0x4 ADD PUSH2 0xD6C SWAP2 SWAP1 PUSH2 0x3ACE JUMP JUMPDEST PUSH1 0x40 MLOAD DUP1 PUSH2 0x100 ADD PUSH1 0x40 MSTORE DUP1 PUSH1 0x0 ISZERO ISZERO DUP2 MSTORE PUSH1 0x20 ADD PUSH1 0x0 PUSH1 0x1 PUSH1 0x1 PUSH1 0x40 SHL SUB AND DUP2 MSTORE PUSH1 0x20 ADD PUSH1 0x0 PUSH1 0x1 PUSH1 0x1 PUSH1 0xA0 SHL SUB AND DUP2 MSTORE PUSH1 0x20 ADD PUSH1 0x60 DUP2 MSTORE PUSH1 0x20 ADD PUSH1 0x0 DUP2 MSTORE PUSH1 0x20 ADD PUSH1 0x0 DUP2 MSTORE PUSH1 0x20 ADD PUSH1 0x0 DUP2 MSTORE PUSH1 0x20 ADD PUSH1 0x0 DUP2 MSTORE POP SWAP1 JUMP JUMPDEST PUSH1 0x40 DUP1 MLOAD PUSH2 0x160 DUP2 ADD DUP3 MSTORE PUSH1 0x0 DUP1 DUP3 MSTORE PUSH1 0x20 DUP3 ADD DUP2 SWAP1 MSTORE SWAP2 DUP2 ADD DUP3 SWAP1 MSTORE PUSH1 0x60 DUP1 DUP3 ADD DUP4 SWAP1 MSTORE PUSH1 0x80 DUP3 ADD DUP4 SWAP1 MSTORE PUSH1 0xA0 DUP3 ADD MSTORE PUSH1 0xC0 DUP2 ADD DUP3 SWAP1 MSTORE PUSH1 0xE0 DUP2 ADD DUP3 SWAP1 MSTORE PUSH2 0x100 DUP2 ADD DUP3 SWAP1 MSTORE PUSH2 0x120 DUP2 ADD DUP3 SWAP1 MSTORE PUSH2 0x140 DUP2 ADD SWAP2 SWAP1 SWAP2 MSTORE SWAP1 JUMP JUMPDEST POP DUP1 SLOAD PUSH2 0x3863 SWAP1 PUSH2 0x43D8 JUMP JUMPDEST PUSH1 0x0 DUP3 SSTORE DUP1 PUSH1 0x1F LT PUSH2 0x3873 JUMPI POP POP JUMP JUMPDEST PUSH1 0x1F ADD PUSH1 0x20 SWAP1 DIV SWAP1 PUSH1 0x0 MSTORE PUSH1 0x20 PUSH1 0x0 KECCAK256 SWAP1 DUP2 ADD SWAP1 PUSH2 0x23F2 SWAP2 SWAP1 JUMPDEST DUP1 DUP3 GT ISZERO PUSH2 0x38A1 JUMPI PUSH1 0x0 DUP2 SSTORE PUSH1 0x1 ADD PUSH2 0x388D JUMP JUMPDEST POP SWAP1 JUMP JUMPDEST PUSH1 0x0 DUP1 DUP4 PUSH1 0x1F DUP5 ADD SLT PUSH2 0x38B7 JUMPI PUSH1 0x0 DUP1 REVERT JUMPDEST POP DUP2 CALLDATALOAD PUSH1 0x1 PUSH1 0x1 PUSH1 0x40 SHL SUB DUP2 GT ISZERO PUSH2 0x38CE JUMPI PUSH1 0x0 DUP1 REVERT JUMPDEST PUSH1 0x20 DUP4 ADD SWAP2 POP DUP4 PUSH1 0x20 DUP3 DUP6 ADD ADD GT ISZERO PUSH2 0x38E6 JUMPI PUSH1 0x0 DUP1 REVERT JUMPDEST SWAP3 POP SWAP3 SWAP1 POP JUMP JUMPDEST DUP1 ISZERO ISZERO DUP2 EQ PUSH2 0x23F2 JUMPI PUSH1 0x0 DUP1 REVERT JUMPDEST DUP1 CALLDATALOAD PUSH2 0x1FCD DUP2 PUSH2 0x38ED JUMP JUMPDEST PUSH1 0x0 DUP1 PUSH1 0x0 DUP1 PUSH1 0x60 DUP6 DUP8 SUB SLT ISZERO PUSH2 0x391C JUMPI PUSH1 0x0 DUP1 REVERT JUMPDEST DUP5 CALLDATALOAD PUSH1 0x1 PUSH1 0x1 PUSH1 0x40 SHL SUB DUP2 GT ISZERO PUSH2 0x3932 JUMPI PUSH1 0x0 DUP1 REVERT JUMPDEST PUSH2 0x393E DUP8 DUP3 DUP9 ADD PUSH2 0x38A5 JUMP JUMPDEST SWAP1 SWAP6 POP SWAP4 POP POP PUSH1 0x20 DUP6 ADD CALLDATALOAD SWAP2 POP PUSH1 0x40 DUP6 ADD CALLDATALOAD PUSH2 0x3959 DUP2 PUSH2 0x38ED JUMP JUMPDEST SWAP4 SWAP7 SWAP3 SWAP6 POP SWAP1 SWAP4 POP POP JUMP JUMPDEST PUSH1 0x1 PUSH1 0x1 PUSH1 0xA0 SHL SUB DUP2 AND DUP2 EQ PUSH2 0x23F2 JUMPI PUSH1 0x0 DUP1 REVERT JUMPDEST DUP1 CALLDATALOAD PUSH2 0x1FCD DUP2 PUSH2 0x3964 JUMP JUMPDEST PUSH1 0x0 DUP1 PUSH1 0x40 DUP4 DUP6 SUB SLT ISZERO PUSH2 0x3997 JUMPI PUSH1 0x0 DUP1 REVERT JUMPDEST DUP3 CALLDATALOAD PUSH2 0x39A2 DUP2 PUSH2 0x3964 JUMP JUMPDEST SWAP5 PUSH1 0x20 SWAP4 SWAP1 SWAP4 ADD CALLDATALOAD SWAP4 POP POP POP JUMP JUMPDEST PUSH1 0x0 PUSH1 0x20 DUP3 DUP5 SUB SLT ISZERO PUSH2 0x39C2 JUMPI PUSH1 0x0 DUP1 REVERT JUMPDEST DUP2 CALLDATALOAD PUSH2 0x2AD1 DUP2 PUSH2 0x3964 JUMP JUMPDEST PUSH1 0x0 PUSH1 0x20 DUP3 DUP5 SUB SLT ISZERO PUSH2 0x39DF JUMPI PUSH1 0x0 DUP1 REVERT JUMPDEST POP CALLDATALOAD SWAP2 SWAP1 POP JUMP JUMPDEST PUSH1 0x0 DUP1 PUSH1 0x0 PUSH1 0x40 DUP5 DUP7 SUB SLT ISZERO PUSH2 0x39FB JUMPI PUSH1 0x0 DUP1 REVERT JUMPDEST DUP4 CALLDATALOAD PUSH1 0x1 PUSH1 0x1 PUSH1 0x40 SHL SUB DUP2 GT ISZERO PUSH2 0x3A11 JUMPI PUSH1 0x0 DUP1 REVERT JUMPDEST PUSH2 0x3A1D DUP7 DUP3 DUP8 ADD PUSH2 0x38A5 JUMP JUMPDEST SWAP1 SWAP8 SWAP1 SWAP7 POP PUSH1 0x20 SWAP6 SWAP1 SWAP6 ADD CALLDATALOAD SWAP5 SWAP4 POP POP POP POP JUMP JUMPDEST PUSH1 0x0 PUSH2 0x100 DUP3 DUP5 SUB SLT ISZERO PUSH2 0x3A44 JUMPI PUSH1 0x0 DUP1 REVERT JUMPDEST POP SWAP2 SWAP1 POP JUMP JUMPDEST PUSH1 0x0 PUSH1 0x20 DUP3 DUP5 SUB SLT ISZERO PUSH2 0x3A5C JUMPI PUSH1 0x0 DUP1 REVERT JUMPDEST DUP2 CALLDATALOAD PUSH1 0x1 PUSH1 0x1 PUSH1 0x40 SHL SUB DUP2 GT ISZERO PUSH2 0x3A72 JUMPI PUSH1 0x0 DUP1 REVERT JUMPDEST PUSH2 0x210B DUP5 DUP3 DUP6 ADD PUSH2 0x3A31 JUMP JUMPDEST PUSH1 0x0 JUMPDEST DUP4 DUP2 LT ISZERO PUSH2 0x3A99 JUMPI DUP2 DUP2 ADD MLOAD DUP4 DUP3 ADD MSTORE PUSH1 0x20 ADD PUSH2 0x3A81 JUMP JUMPDEST POP POP PUSH1 0x0 SWAP2 ADD MSTORE JUMP JUMPDEST PUSH1 0x0 DUP2 MLOAD DUP1 DUP5 MSTORE PUSH2 0x3ABA DUP2 PUSH1 0x20 DUP7 ADD PUSH1 0x20 DUP7 ADD PUSH2 0x3A7E JUMP JUMPDEST PUSH1 0x1F ADD PUSH1 0x1F NOT AND SWAP3 SWAP1 SWAP3 ADD PUSH1 0x20 ADD SWAP3 SWAP2 POP POP JUMP JUMPDEST PUSH1 0x20 DUP2 MSTORE PUSH1 0x0 PUSH2 0x2AD1 PUSH1 0x20 DUP4 ADD DUP5 PUSH2 0x3AA2 JUMP JUMPDEST PUSH1 0x0 PUSH2 0x100 DUP3 MLOAD ISZERO ISZERO DUP5 MSTORE PUSH1 0x1 PUSH1 0x1 PUSH1 0x40 SHL SUB PUSH1 0x20 DUP5 ADD MLOAD AND PUSH1 0x20 DUP6 ADD MSTORE PUSH1 0x1 DUP1 PUSH1 0xA0 SHL SUB PUSH1 0x40 DUP5 ADD MLOAD AND PUSH1 0x40 DUP6 ADD MSTORE PUSH1 0x60 DUP4 ADD MLOAD DUP2 PUSH1 0x60 DUP7 ADD MSTORE PUSH2 0x3B28 DUP3 DUP7 ADD DUP3 PUSH2 0x3AA2 JUMP JUMPDEST SWAP2 POP POP PUSH1 0x80 DUP4 ADD MLOAD PUSH1 0x80 DUP6 ADD MSTORE PUSH1 0xA0 DUP4 ADD MLOAD PUSH1 0xA0 DUP6 ADD MSTORE PUSH1 0xC0 DUP4 ADD MLOAD PUSH1 0xC0 DUP6 ADD MSTORE PUSH1 0xE0 DUP4 ADD MLOAD PUSH1 0xE0 DUP6 ADD MSTORE DUP1 SWAP2 POP POP SWAP3 SWAP2 POP POP JUMP JUMPDEST PUSH1 0x0 PUSH1 0x20 DUP1 DUP4 ADD DUP2 DUP5 MSTORE DUP1 DUP6 MLOAD DUP1 DUP4 MSTORE PUSH1 0x40 DUP7 ADD SWAP2 POP PUSH1 0x40 DUP2 PUSH1 0x5 SHL DUP8 ADD ADD SWAP3 POP DUP4 DUP8 ADD PUSH1 0x0 JUMPDEST DUP3 DUP2 LT ISZERO PUSH2 0x3BB2 JUMPI PUSH1 0x3F NOT DUP9 DUP7 SUB ADD DUP5 MSTORE PUSH2 0x3BA0 DUP6 DUP4 MLOAD PUSH2 0x3AE1 JUMP JUMPDEST SWAP5 POP SWAP3 DUP6 ADD SWAP3 SWAP1 DUP6 ADD SWAP1 PUSH1 0x1 ADD PUSH2 0x3B84 JUMP JUMPDEST POP SWAP3 SWAP8 SWAP7 POP POP POP POP POP POP POP JUMP JUMPDEST DUP1 MLOAD ISZERO ISZERO DUP3 MSTORE PUSH1 0x0 PUSH2 0x160 PUSH1 0x20 DUP4 ADD MLOAD PUSH2 0x3BDD PUSH1 0x20 DUP7 ADD DUP3 ISZERO ISZERO SWAP1 MSTORE JUMP JUMPDEST POP PUSH1 0x40 DUP4 ADD MLOAD PUSH2 0x3BF2 PUSH1 0x40 DUP7 ADD DUP3 PUSH1 0xFF AND SWAP1 MSTORE JUMP JUMPDEST POP PUSH1 0x60 DUP4 ADD MLOAD PUSH2 0x3C0D PUSH1 0x60 DUP7 ADD DUP3 PUSH1 0x1 PUSH1 0x1 PUSH1 0x48 SHL SUB AND SWAP1 MSTORE JUMP JUMPDEST POP PUSH1 0x80 DUP4 ADD MLOAD PUSH2 0x3C28 PUSH1 0x80 DUP7 ADD DUP3 PUSH1 0x1 PUSH1 0x1 PUSH1 0xA0 SHL SUB AND SWAP1 MSTORE JUMP JUMPDEST POP PUSH1 0xA0 DUP4 ADD MLOAD DUP2 PUSH1 0xA0 DUP7 ADD MSTORE PUSH2 0x3C40 DUP3 DUP7 ADD DUP3 PUSH2 0x3AA2 JUMP JUMPDEST SWAP2 POP POP PUSH1 0xC0 DUP4 ADD MLOAD PUSH2 0x3C5D PUSH1 0xC0 DUP7 ADD DUP3 PUSH1 0x1 PUSH1 0x1 PUSH1 0x40 SHL SUB AND SWAP1 MSTORE JUMP JUMPDEST POP PUSH1 0xE0 DUP4 ADD MLOAD PUSH2 0x3C78 PUSH1 0xE0 DUP7 ADD DUP3 PUSH1 0x1 PUSH1 0x1 PUSH1 0xC0 SHL SUB AND SWAP1 MSTORE JUMP JUMPDEST POP PUSH2 0x100 DUP4 DUP2 ADD MLOAD SWAP1 DUP6 ADD MSTORE PUSH2 0x120 DUP1 DUP5 ADD MLOAD SWAP1 DUP6 ADD MSTORE PUSH2 0x140 SWAP3 DUP4 ADD MLOAD SWAP3 SWAP1 SWAP4 ADD SWAP2 SWAP1 SWAP2 MSTORE POP SWAP1 JUMP JUMPDEST PUSH1 0x0 PUSH1 0x20 DUP1 DUP4 ADD DUP2 DUP5 MSTORE DUP1 DUP6 MLOAD DUP1 DUP4 MSTORE PUSH1 0x40 DUP7 ADD SWAP2 POP PUSH1 0x40 DUP2 PUSH1 0x5 SHL DUP8 ADD ADD SWAP3 POP DUP4 DUP8 ADD PUSH1 0x0 JUMPDEST DUP3 DUP2 LT ISZERO PUSH2 0x3BB2 JUMPI PUSH1 0x3F NOT DUP9 DUP7 SUB ADD DUP5 MSTORE PUSH2 0x3CE5 DUP6 DUP4 MLOAD PUSH2 0x3BBF JUMP JUMPDEST SWAP5 POP SWAP3 DUP6 ADD SWAP3 SWAP1 DUP6 ADD SWAP1 PUSH1 0x1 ADD PUSH2 0x3CC9 JUMP JUMPDEST PUSH1 0x0 PUSH1 0x20 DUP1 DUP4 ADD DUP2 DUP5 MSTORE DUP1 DUP6 MLOAD DUP1 DUP4 MSTORE PUSH1 0x40 DUP7 ADD SWAP2 POP PUSH1 0x40 DUP2 PUSH1 0x5 SHL DUP8 ADD ADD SWAP3 POP DUP4 DUP8 ADD PUSH1 0x0 JUMPDEST DUP3 DUP2 LT ISZERO PUSH2 0x3BB2 JUMPI PUSH1 0x3F NOT DUP9 DUP7 SUB ADD DUP5 MSTORE PUSH2 0x3D3A DUP6 DUP4 MLOAD PUSH2 0x3AA2 JUMP JUMPDEST SWAP5 POP SWAP3 DUP6 ADD SWAP3 SWAP1 DUP6 ADD SWAP1 PUSH1 0x1 ADD PUSH2 0x3D1E JUMP JUMPDEST PUSH1 0x0 DUP1 PUSH1 0x20 DUP4 DUP6 SUB SLT ISZERO PUSH2 0x3D5F JUMPI PUSH1 0x0 DUP1 REVERT JUMPDEST DUP3 CALLDATALOAD PUSH1 0x1 PUSH1 0x1 PUSH1 0x40 SHL SUB DUP2 GT ISZERO PUSH2 0x3D75 JUMPI PUSH1 0x0 DUP1 REVERT JUMPDEST PUSH2 0x3D81 DUP6 DUP3 DUP7 ADD PUSH2 0x38A5 JUMP JUMPDEST SWAP1 SWAP7 SWAP1 SWAP6 POP SWAP4 POP POP POP POP JUMP JUMPDEST PUSH4 0x4E487B71 PUSH1 0xE0 SHL PUSH1 0x0 MSTORE PUSH1 0x41 PUSH1 0x4 MSTORE PUSH1 0x24 PUSH1 0x0 REVERT JUMPDEST PUSH1 0x40 MLOAD PUSH2 0x160 DUP2 ADD PUSH1 0x1 PUSH1 0x1 PUSH1 0x40 SHL SUB DUP2 GT DUP3 DUP3 LT OR ISZERO PUSH2 0x3DC6 JUMPI PUSH2 0x3DC6 PUSH2 0x3D8D JUMP JUMPDEST PUSH1 0x40 MSTORE SWAP1 JUMP JUMPDEST PUSH1 0xFF DUP2 AND DUP2 EQ PUSH2 0x23F2 JUMPI PUSH1 0x0 DUP1 REVERT JUMPDEST DUP1 CALLDATALOAD PUSH2 0x1FCD DUP2 PUSH2 0x3DCC JUMP JUMPDEST PUSH1 0x1 PUSH1 0x1 PUSH1 0x48 SHL SUB DUP2 AND DUP2 EQ PUSH2 0x23F2 JUMPI PUSH1 0x0 DUP1 REVERT JUMPDEST DUP1 CALLDATALOAD PUSH2 0x1FCD DUP2 PUSH2 0x3DE6 JUMP JUMPDEST PUSH1 0x0 DUP3 PUSH1 0x1F DUP4 ADD SLT PUSH2 0x3E17 JUMPI PUSH1 0x0 DUP1 REVERT JUMPDEST DUP2 CALLDATALOAD PUSH1 0x1 PUSH1 0x1 PUSH1 0x40 SHL SUB DUP1 DUP3 GT ISZERO PUSH2 0x3E31 JUMPI PUSH2 0x3E31 PUSH2 0x3D8D JUMP JUMPDEST PUSH1 0x40 MLOAD PUSH1 0x1F DUP4 ADD PUSH1 0x1F NOT SWAP1 DUP2 AND PUSH1 0x3F ADD AND DUP2 ADD SWAP1 DUP3 DUP3 GT DUP2 DUP4 LT OR ISZERO PUSH2 0x3E59 JUMPI PUSH2 0x3E59 PUSH2 0x3D8D JUMP JUMPDEST DUP2 PUSH1 0x40 MSTORE DUP4 DUP2 MSTORE DUP7 PUSH1 0x20 DUP6 DUP9 ADD ADD GT ISZERO PUSH2 0x3E72 JUMPI PUSH1 0x0 DUP1 REVERT JUMPDEST DUP4 PUSH1 0x20 DUP8 ADD PUSH1 0x20 DUP4 ADD CALLDATACOPY PUSH1 0x0 PUSH1 0x20 DUP6 DUP4 ADD ADD MSTORE DUP1 SWAP5 POP POP POP POP POP SWAP3 SWAP2 POP POP JUMP JUMPDEST PUSH1 0x1 PUSH1 0x1 PUSH1 0x40 SHL SUB DUP2 AND DUP2 EQ PUSH2 0x23F2 JUMPI PUSH1 0x0 DUP1 REVERT JUMPDEST DUP1 CALLDATALOAD PUSH2 0x1FCD DUP2 PUSH2 0x3E92 JUMP JUMPDEST PUSH1 0x1 PUSH1 0x1 PUSH1 0xC0 SHL SUB DUP2 AND DUP2 EQ PUSH2 0x23F2 JUMPI PUSH1 0x0 DUP1 REVERT JUMPDEST DUP1 CALLDATALOAD PUSH2 0x1FCD DUP2 PUSH2 0x3EB2 JUMP JUMPDEST PUSH1 0x0 PUSH1 0x20 DUP3 DUP5 SUB SLT ISZERO PUSH2 0x3EE4 JUMPI PUSH1 0x0 DUP1 REVERT JUMPDEST DUP2 CALLDATALOAD PUSH1 0x1 PUSH1 0x1 PUSH1 0x40 SHL SUB DUP1 DUP3 GT ISZERO PUSH2 0x3EFB JUMPI PUSH1 0x0 DUP1 REVERT JUMPDEST SWAP1 DUP4 ADD SWAP1 PUSH2 0x160 DUP3 DUP7 SUB SLT ISZERO PUSH2 0x3F10 JUMPI PUSH1 0x0 DUP1 REVERT JUMPDEST PUSH2 0x3F18 PUSH2 0x3DA3 JUMP JUMPDEST PUSH2 0x3F21 DUP4 PUSH2 0x38FB JUMP JUMPDEST DUP2 MSTORE PUSH2 0x3F2F PUSH1 0x20 DUP5 ADD PUSH2 0x38FB JUMP JUMPDEST PUSH1 0x20 DUP3 ADD MSTORE PUSH2 0x3F40 PUSH1 0x40 DUP5 ADD PUSH2 0x3DDB JUMP JUMPDEST PUSH1 0x40 DUP3 ADD MSTORE PUSH2 0x3F51 PUSH1 0x60 DUP5 ADD PUSH2 0x3DFB JUMP JUMPDEST PUSH1 0x60 DUP3 ADD MSTORE PUSH2 0x3F62 PUSH1 0x80 DUP5 ADD PUSH2 0x3979 JUMP JUMPDEST PUSH1 0x80 DUP3 ADD MSTORE PUSH1 0xA0 DUP4 ADD CALLDATALOAD DUP3 DUP2 GT ISZERO PUSH2 0x3F79 JUMPI PUSH1 0x0 DUP1 REVERT JUMPDEST PUSH2 0x3F85 DUP8 DUP3 DUP7 ADD PUSH2 0x3E06 JUMP JUMPDEST PUSH1 0xA0 DUP4 ADD MSTORE POP PUSH2 0x3F97 PUSH1 0xC0 DUP5 ADD PUSH2 0x3EA7 JUMP JUMPDEST PUSH1 0xC0 DUP3 ADD MSTORE PUSH2 0x3FA8 PUSH1 0xE0 DUP5 ADD PUSH2 0x3EC7 JUMP JUMPDEST PUSH1 0xE0 DUP3 ADD MSTORE PUSH2 0x100 DUP4 DUP2 ADD CALLDATALOAD SWAP1 DUP3 ADD MSTORE PUSH2 0x120 DUP1 DUP5 ADD CALLDATALOAD SWAP1 DUP3 ADD MSTORE PUSH2 0x140 SWAP3 DUP4 ADD CALLDATALOAD SWAP3 DUP2 ADD SWAP3 SWAP1 SWAP3 MSTORE POP SWAP4 SWAP3 POP POP POP JUMP JUMPDEST PUSH1 0x0 DUP1 PUSH1 0x0 DUP1 PUSH1 0x80 DUP6 DUP8 SUB SLT ISZERO PUSH2 0x3FEF JUMPI PUSH1 0x0 DUP1 REVERT JUMPDEST DUP5 CALLDATALOAD PUSH2 0x3FFA DUP2 PUSH2 0x3964 JUMP JUMPDEST SWAP4 POP PUSH1 0x20 DUP6 ADD CALLDATALOAD PUSH2 0x400A DUP2 PUSH2 0x3964 JUMP JUMPDEST SWAP3 POP PUSH1 0x40 DUP6 ADD CALLDATALOAD PUSH2 0x401A DUP2 PUSH2 0x3964 JUMP JUMPDEST SWAP2 POP PUSH1 0x60 DUP6 ADD CALLDATALOAD PUSH2 0x3959 DUP2 PUSH2 0x3964 JUMP JUMPDEST DUP1 CALLDATALOAD PUSH3 0xFFFFFF DUP2 AND DUP2 EQ PUSH2 0x1FCD JUMPI PUSH1 0x0 DUP1 REVERT JUMPDEST PUSH1 0x0 DUP1 PUSH1 0x0 PUSH1 0x60 DUP5 DUP7 SUB SLT ISZERO PUSH2 0x4052 JUMPI PUSH1 0x0 DUP1 REVERT JUMPDEST DUP4 CALLDATALOAD SWAP3 POP PUSH1 0x20 DUP5 ADD CALLDATALOAD PUSH2 0x4064 DUP2 PUSH2 0x3964 JUMP JUMPDEST SWAP2 POP PUSH2 0x4072 PUSH1 0x40 DUP6 ADD PUSH2 0x402A JUMP JUMPDEST SWAP1 POP SWAP3 POP SWAP3 POP SWAP3 JUMP JUMPDEST PUSH1 0x0 PUSH1 0x20 DUP3 DUP5 SUB SLT ISZERO PUSH2 0x408D JUMPI PUSH1 0x0 DUP1 REVERT JUMPDEST DUP2 CALLDATALOAD PUSH1 0x1 PUSH1 0x1 PUSH1 0x40 SHL SUB DUP2 GT ISZERO PUSH2 0x40A3 JUMPI PUSH1 0x0 DUP1 REVERT JUMPDEST DUP3 ADD PUSH2 0x160 DUP2 DUP6 SUB SLT ISZERO PUSH2 0x2AD1 JUMPI PUSH1 0x0 DUP1 REVERT JUMPDEST PUSH1 0x20 DUP2 MSTORE PUSH1 0x0 DUP3 MLOAD PUSH2 0x100 DUP1 PUSH1 0x20 DUP6 ADD MSTORE PUSH2 0x40D5 PUSH2 0x120 DUP6 ADD DUP4 PUSH2 0x3AA2 JUMP JUMPDEST SWAP2 POP PUSH1 0x1 DUP1 PUSH1 0xA0 SHL SUB PUSH1 0x20 DUP7 ADD MLOAD AND PUSH1 0x40 DUP6 ADD MSTORE PUSH2 0xFFFF PUSH1 0x40 DUP7 ADD MLOAD AND PUSH1 0x60 DUP6 ADD MSTORE PUSH1 0x60 DUP6 ADD MLOAD PUSH2 0x410C PUSH1 0x80 DUP7 ADD DUP3 PUSH2 0xFFFF AND SWAP1 MSTORE JUMP JUMPDEST POP PUSH1 0x80 DUP6 ADD MLOAD PUSH4 0xFFFFFFFF DUP2 AND PUSH1 0xA0 DUP7 ADD MSTORE POP PUSH1 0xA0 DUP6 ADD MLOAD PUSH4 0xFFFFFFFF DUP2 AND PUSH1 0xC0 DUP7 ADD MSTORE POP PUSH1 0xC0 DUP6 ADD MLOAD PUSH1 0xE0 DUP6 ADD MSTORE PUSH1 0xE0 DUP6 ADD MLOAD DUP2 DUP6 ADD MSTORE POP DUP1 SWAP2 POP POP SWAP3 SWAP2 POP POP JUMP JUMPDEST PUSH1 0x0 DUP1 PUSH1 0x0 PUSH1 0x40 DUP5 DUP7 SUB SLT ISZERO PUSH2 0x4164 JUMPI PUSH1 0x0 DUP1 REVERT JUMPDEST DUP4 CALLDATALOAD PUSH2 0x416F DUP2 PUSH2 0x3964 JUMP JUMPDEST SWAP3 POP PUSH1 0x20 DUP5 ADD CALLDATALOAD PUSH1 0x1 PUSH1 0x1 PUSH1 0x40 SHL SUB DUP2 GT ISZERO PUSH2 0x418A JUMPI PUSH1 0x0 DUP1 REVERT JUMPDEST PUSH2 0x4196 DUP7 DUP3 DUP8 ADD PUSH2 0x38A5 JUMP JUMPDEST SWAP5 SWAP8 SWAP1 SWAP7 POP SWAP4 SWAP5 POP POP POP POP JUMP JUMPDEST PUSH1 0x20 DUP2 MSTORE PUSH1 0x0 PUSH2 0x2AD1 PUSH1 0x20 DUP4 ADD DUP5 PUSH2 0x3AE1 JUMP JUMPDEST PUSH1 0x0 DUP1 PUSH1 0x0 PUSH1 0x60 DUP5 DUP7 SUB SLT ISZERO PUSH2 0x41CB JUMPI PUSH1 0x0 DUP1 REVERT JUMPDEST DUP4 CALLDATALOAD PUSH2 0x41D6 DUP2 PUSH2 0x3964 JUMP JUMPDEST SWAP3 POP PUSH1 0x20 DUP5 ADD CALLDATALOAD PUSH2 0x41E6 DUP2 PUSH2 0x3964 JUMP JUMPDEST SWAP2 POP PUSH1 0x40 DUP5 ADD CALLDATALOAD PUSH2 0x41F6 DUP2 PUSH2 0x3964 JUMP JUMPDEST DUP1 SWAP2 POP POP SWAP3 POP SWAP3 POP SWAP3 JUMP JUMPDEST PUSH1 0x20 DUP2 MSTORE PUSH1 0x0 PUSH2 0x2AD1 PUSH1 0x20 DUP4 ADD DUP5 PUSH2 0x3BBF JUMP JUMPDEST PUSH1 0x0 DUP1 PUSH1 0x0 PUSH1 0x40 DUP5 DUP7 SUB SLT ISZERO PUSH2 0x4229 JUMPI PUSH1 0x0 DUP1 REVERT JUMPDEST DUP4 CALLDATALOAD PUSH1 0x1 PUSH1 0x1 PUSH1 0x40 SHL SUB DUP1 DUP3 GT ISZERO PUSH2 0x4240 JUMPI PUSH1 0x0 DUP1 REVERT JUMPDEST PUSH2 0x424C DUP8 DUP4 DUP9 ADD PUSH2 0x38A5 JUMP JUMPDEST SWAP1 SWAP6 POP SWAP4 POP PUSH1 0x20 DUP7 ADD CALLDATALOAD SWAP2 POP DUP1 DUP3 GT ISZERO PUSH2 0x4265 JUMPI PUSH1 0x0 DUP1 REVERT JUMPDEST POP PUSH2 0x4272 DUP7 DUP3 DUP8 ADD PUSH2 0x3A31 JUMP JUMPDEST SWAP2 POP POP SWAP3 POP SWAP3 POP SWAP3 JUMP JUMPDEST PUSH1 0x0 DUP1 PUSH1 0x0 DUP1 PUSH1 0x0 PUSH1 0xA0 DUP7 DUP9 SUB SLT ISZERO PUSH2 0x4294 JUMPI PUSH1 0x0 DUP1 REVERT JUMPDEST DUP6 CALLDATALOAD PUSH2 0x429F DUP2 PUSH2 0x3964 JUMP JUMPDEST SWAP5 POP PUSH1 0x20 DUP7 ADD CALLDATALOAD SWAP4 POP PUSH1 0x40 DUP7 ADD CALLDATALOAD SWAP3 POP PUSH1 0x60 DUP7 ADD CALLDATALOAD PUSH2 0x42BD DUP2 PUSH2 0x3964 JUMP JUMPDEST SWAP2 POP PUSH2 0x42CB PUSH1 0x80 DUP8 ADD PUSH2 0x402A JUMP JUMPDEST SWAP1 POP SWAP3 SWAP6 POP SWAP3 SWAP6 SWAP1 SWAP4 POP JUMP JUMPDEST PUSH1 0x20 DUP1 DUP3 MSTORE PUSH1 0x9 SWAP1 DUP3 ADD MSTORE PUSH9 0x858DBDB9D1C9858DD PUSH1 0xBA SHL PUSH1 0x40 DUP3 ADD MSTORE PUSH1 0x60 ADD SWAP1 JUMP JUMPDEST DUP2 DUP4 DUP3 CALLDATACOPY PUSH1 0x0 SWAP2 ADD SWAP1 DUP2 MSTORE SWAP2 SWAP1 POP JUMP JUMPDEST PUSH4 0x4E487B71 PUSH1 0xE0 SHL PUSH1 0x0 MSTORE PUSH1 0x11 PUSH1 0x4 MSTORE PUSH1 0x24 PUSH1 0x0 REVERT JUMPDEST DUP1 DUP3 ADD DUP1 DUP3 GT ISZERO PUSH2 0x1886 JUMPI PUSH2 0x1886 PUSH2 0x430A JUMP JUMPDEST PUSH1 0x20 DUP1 DUP3 MSTORE PUSH1 0xB SWAP1 DUP3 ADD MSTORE PUSH11 0x21676F7665726E616E6365 PUSH1 0xA8 SHL PUSH1 0x40 DUP3 ADD MSTORE PUSH1 0x60 ADD SWAP1 JUMP JUMPDEST DUP2 DUP2 SUB DUP2 DUP2 GT ISZERO PUSH2 0x1886 JUMPI PUSH2 0x1886 PUSH2 0x430A JUMP JUMPDEST PUSH1 0x0 DUP1 DUP4 CALLDATALOAD PUSH1 0x1E NOT DUP5 CALLDATASIZE SUB ADD DUP2 SLT PUSH2 0x4382 JUMPI PUSH1 0x0 DUP1 REVERT JUMPDEST DUP4 ADD DUP1 CALLDATALOAD SWAP2 POP PUSH1 0x1 PUSH1 0x1 PUSH1 0x40 SHL SUB DUP3 GT ISZERO PUSH2 0x439C JUMPI PUSH1 0x0 DUP1 REVERT JUMPDEST PUSH1 0x20 ADD SWAP2 POP CALLDATASIZE DUP2 SWAP1 SUB DUP3 SGT ISZERO PUSH2 0x38E6 JUMPI PUSH1 0x0 DUP1 REVERT JUMPDEST PUSH1 0x0 DUP2 CALLDATALOAD PUSH2 0x1886 DUP2 PUSH2 0x38ED JUMP JUMPDEST PUSH1 0x0 DUP2 CALLDATALOAD PUSH2 0x1886 DUP2 PUSH2 0x3E92 JUMP JUMPDEST PUSH1 0x0 DUP2 CALLDATALOAD PUSH2 0x1886 DUP2 PUSH2 0x3964 JUMP JUMPDEST PUSH1 0x1 DUP2 DUP2 SHR SWAP1 DUP3 AND DUP1 PUSH2 0x43EC JUMPI PUSH1 0x7F DUP3 AND SWAP2 POP JUMPDEST PUSH1 0x20 DUP3 LT DUP2 SUB PUSH2 0x3A44 JUMPI PUSH4 0x4E487B71 PUSH1 0xE0 SHL PUSH1 0x0 MSTORE PUSH1 0x22 PUSH1 0x4 MSTORE PUSH1 0x24 PUSH1 0x0 REVERT JUMPDEST PUSH1 0x1F DUP3 GT ISZERO PUSH2 0x1209 JUMPI PUSH1 0x0 DUP2 DUP2 MSTORE PUSH1 0x20 DUP2 KECCAK256 PUSH1 0x1F DUP6 ADD PUSH1 0x5 SHR DUP2 ADD PUSH1 0x20 DUP7 LT ISZERO PUSH2 0x4433 JUMPI POP DUP1 JUMPDEST PUSH1 0x1F DUP6 ADD PUSH1 0x5 SHR DUP3 ADD SWAP2 POP JUMPDEST DUP2 DUP2 LT ISZERO PUSH2 0xF8E JUMPI DUP3 DUP2 SSTORE PUSH1 0x1 ADD PUSH2 0x443F JUMP JUMPDEST PUSH1 0x0 NOT PUSH1 0x3 DUP4 SWAP1 SHL SHR NOT AND PUSH1 0x1 SWAP2 SWAP1 SWAP2 SHL OR SWAP1 JUMP JUMPDEST PUSH1 0x1 PUSH1 0x1 PUSH1 0x40 SHL SUB DUP4 GT ISZERO PUSH2 0x447E JUMPI PUSH2 0x447E PUSH2 0x3D8D JUMP JUMPDEST PUSH2 0x4492 DUP4 PUSH2 0x448C DUP4 SLOAD PUSH2 0x43D8 JUMP JUMPDEST DUP4 PUSH2 0x440C JUMP JUMPDEST PUSH1 0x0 PUSH1 0x1F DUP5 GT PUSH1 0x1 DUP2 EQ PUSH2 0x44C0 JUMPI PUSH1 0x0 DUP6 ISZERO PUSH2 0x44AE JUMPI POP DUP4 DUP3 ADD CALLDATALOAD JUMPDEST PUSH2 0x44B8 DUP7 DUP3 PUSH2 0x4452 JUMP JUMPDEST DUP5 SSTORE POP PUSH2 0x451A JUMP JUMPDEST PUSH1 0x0 DUP4 DUP2 MSTORE PUSH1 0x20 SWAP1 KECCAK256 PUSH1 0x1F NOT DUP7 AND SWAP1 DUP4 JUMPDEST DUP3 DUP2 LT ISZERO PUSH2 0x44F1 JUMPI DUP7 DUP6 ADD CALLDATALOAD DUP3 SSTORE PUSH1 0x20 SWAP5 DUP6 ADD SWAP5 PUSH1 0x1 SWAP1 SWAP3 ADD SWAP2 ADD PUSH2 0x44D1 JUMP JUMPDEST POP DUP7 DUP3 LT ISZERO PUSH2 0x450E JUMPI PUSH1 0x0 NOT PUSH1 0xF8 DUP9 PUSH1 0x3 SHL AND SHR NOT DUP5 DUP8 ADD CALLDATALOAD AND DUP2 SSTORE JUMPDEST POP POP PUSH1 0x1 DUP6 PUSH1 0x1 SHL ADD DUP4 SSTORE JUMPDEST POP POP POP POP POP JUMP JUMPDEST DUP2 CALLDATALOAD PUSH2 0x452C DUP2 PUSH2 0x38ED JUMP JUMPDEST DUP2 SLOAD PUSH1 0xFF NOT AND PUSH1 0xFF DUP3 ISZERO ISZERO AND OR DUP3 SSTORE POP PUSH1 0x20 DUP3 ADD CALLDATALOAD PUSH2 0x454A DUP2 PUSH2 0x3E92 JUMP JUMPDEST DUP2 SLOAD PUSH9 0xFFFFFFFFFFFFFFFF00 NOT AND PUSH1 0x8 SWAP2 SWAP1 SWAP2 SHL PUSH9 0xFFFFFFFFFFFFFFFF00 AND OR DUP2 SSTORE PUSH2 0x45C0 PUSH2 0x457B PUSH1 0x40 DUP5 ADD PUSH2 0x43CB JUMP JUMPDEST DUP3 DUP1 SLOAD PUSH32 0xFFFFFF0000000000000000000000000000000000000000FFFFFFFFFFFFFFFFFF AND PUSH1 0x48 SWAP3 SWAP1 SWAP3 SHL PUSH10 0x1000000000000000000 PUSH1 0x1 PUSH1 0xE8 SHL SUB AND SWAP2 SWAP1 SWAP2 OR SWAP1 SSTORE JUMP JUMPDEST PUSH2 0x45CD PUSH1 0x60 DUP4 ADD DUP4 PUSH2 0x436B JUMP JUMPDEST PUSH2 0x45DB DUP2 DUP4 PUSH1 0x1 DUP7 ADD PUSH2 0x4467 JUMP JUMPDEST POP POP PUSH1 0x80 DUP3 ADD CALLDATALOAD PUSH1 0x2 DUP3 ADD SSTORE PUSH1 0xA0 DUP3 ADD CALLDATALOAD PUSH1 0x3 DUP3 ADD SSTORE PUSH1 0xC0 DUP3 ADD CALLDATALOAD PUSH1 0x4 DUP3 ADD SSTORE PUSH1 0xE0 DUP3 ADD CALLDATALOAD PUSH1 0x5 DUP3 ADD SSTORE POP POP JUMP JUMPDEST PUSH4 0x4E487B71 PUSH1 0xE0 SHL PUSH1 0x0 MSTORE PUSH1 0x32 PUSH1 0x4 MSTORE PUSH1 0x24 PUSH1 0x0 REVERT JUMPDEST PUSH1 0x0 PUSH1 0x1 DUP3 ADD PUSH2 0x4631 JUMPI PUSH2 0x4631 PUSH2 0x430A JUMP JUMPDEST POP PUSH1 0x1 ADD SWAP1 JUMP JUMPDEST DUP1 DUP3 ADD DUP3 DUP2 SLT PUSH1 0x0 DUP4 SLT DUP1 ISZERO DUP3 AND DUP3 ISZERO DUP3 AND OR ISZERO PUSH2 0x4658 JUMPI PUSH2 0x4658 PUSH2 0x430A JUMP JUMPDEST POP POP SWAP3 SWAP2 POP POP JUMP JUMPDEST DUP2 MLOAD PUSH1 0x1 PUSH1 0x1 PUSH1 0x40 SHL SUB DUP2 GT ISZERO PUSH2 0x4679 JUMPI PUSH2 0x4679 PUSH2 0x3D8D JUMP JUMPDEST PUSH2 0x468D DUP2 PUSH2 0x4687 DUP5 SLOAD PUSH2 0x43D8 JUMP JUMPDEST DUP5 PUSH2 0x440C JUMP JUMPDEST PUSH1 0x20 DUP1 PUSH1 0x1F DUP4 GT PUSH1 0x1 DUP2 EQ PUSH2 0x46BC JUMPI PUSH1 0x0 DUP5 ISZERO PUSH2 0x46AA JUMPI POP DUP6 DUP4 ADD MLOAD JUMPDEST PUSH2 0x46B4 DUP6 DUP3 PUSH2 0x4452 JUMP JUMPDEST DUP7 SSTORE POP PUSH2 0xF8E JUMP JUMPDEST PUSH1 0x0 DUP6 DUP2 MSTORE PUSH1 0x20 DUP2 KECCAK256 PUSH1 0x1F NOT DUP7 AND SWAP2 JUMPDEST DUP3 DUP2 LT ISZERO PUSH2 0x46EB JUMPI DUP9 DUP7 ADD MLOAD DUP3 SSTORE SWAP5 DUP5 ADD SWAP5 PUSH1 0x1 SWAP1 SWAP2 ADD SWAP1 DUP5 ADD PUSH2 0x46CC JUMP JUMPDEST POP DUP6 DUP3 LT ISZERO PUSH2 0x4709 JUMPI DUP8 DUP6 ADD MLOAD PUSH1 0x0 NOT PUSH1 0x3 DUP9 SWAP1 SHL PUSH1 0xF8 AND SHR NOT AND DUP2 SSTORE JUMPDEST POP POP POP POP POP PUSH1 0x1 SWAP1 DUP2 SHL ADD SWAP1 SSTORE POP JUMP JUMPDEST PUSH1 0x0 PUSH1 0x20 DUP3 DUP5 SUB SLT ISZERO PUSH2 0x472B JUMPI PUSH1 0x0 DUP1 REVERT JUMPDEST POP MLOAD SWAP2 SWAP1 POP JUMP JUMPDEST PUSH1 0x0 PUSH1 0x20 DUP3 DUP5 SUB SLT ISZERO PUSH2 0x4744 JUMPI PUSH1 0x0 DUP1 REVERT JUMPDEST DUP2 CALLDATALOAD PUSH2 0x2AD1 DUP2 PUSH2 0x3DE6 JUMP JUMPDEST PUSH1 0x0 DUP2 CALLDATALOAD PUSH2 0x1886 DUP2 PUSH2 0x3DCC JUMP JUMPDEST PUSH1 0x0 DUP2 CALLDATALOAD PUSH2 0x1886 DUP2 PUSH2 0x3DE6 JUMP JUMPDEST PUSH1 0x0 DUP2 CALLDATALOAD PUSH2 0x1886 DUP2 PUSH2 0x3EB2 JUMP JUMPDEST PUSH2 0x4796 PUSH2 0x4782 DUP4 PUSH2 0x43B1 JUMP JUMPDEST DUP3 SLOAD SWAP1 ISZERO ISZERO PUSH1 0xFF AND PUSH1 0xFF NOT SWAP2 SWAP1 SWAP2 AND OR DUP3 SSTORE JUMP JUMPDEST PUSH2 0x47BF PUSH2 0x47A5 PUSH1 0x20 DUP5 ADD PUSH2 0x43B1 JUMP JUMPDEST DUP3 DUP1 SLOAD PUSH2 0xFF00 NOT AND SWAP2 ISZERO ISZERO PUSH1 0x8 SHL PUSH2 0xFF00 AND SWAP2 SWAP1 SWAP2 OR SWAP1 SSTORE JUMP JUMPDEST PUSH2 0x47E6 PUSH2 0x47CE PUSH1 0x40 DUP5 ADD PUSH2 0x474F JUMP JUMPDEST DUP3 SLOAD PUSH3 0xFF0000 NOT AND PUSH1 0x10 SWAP2 SWAP1 SWAP2 SHL PUSH3 0xFF0000 AND OR DUP3 SSTORE JUMP JUMPDEST PUSH2 0x481F PUSH2 0x47F5 PUSH1 0x60 DUP5 ADD PUSH2 0x475C JUMP JUMPDEST DUP3 SLOAD PUSH12 0xFFFFFFFFFFFFFFFFFF000000 NOT AND PUSH1 0x18 SWAP2 SWAP1 SWAP2 SHL PUSH12 0xFFFFFFFFFFFFFFFFFF000000 AND OR DUP3 SSTORE JUMP JUMPDEST PUSH2 0x4853 PUSH2 0x482E PUSH1 0x80 DUP5 ADD PUSH2 0x43CB JUMP JUMPDEST DUP3 SLOAD PUSH1 0x1 PUSH1 0x1 PUSH1 0x60 SHL SUB AND PUSH1 0x60 SWAP2 SWAP1 SWAP2 SHL PUSH12 0xFFFFFFFFFFFFFFFFFFFFFFFF NOT AND OR DUP3 SSTORE JUMP JUMPDEST PUSH2 0x4860 PUSH1 0xA0 DUP4 ADD DUP4 PUSH2 0x436B JUMP JUMPDEST PUSH2 0x486E DUP2 DUP4 PUSH1 0x1 DUP7 ADD PUSH2 0x4467 JUMP JUMPDEST POP POP PUSH1 0x2 DUP2 ADD PUSH2 0x48A1 PUSH2 0x4883 PUSH1 0xC0 DUP6 ADD PUSH2 0x43BE JUMP JUMPDEST DUP3 SLOAD PUSH8 0xFFFFFFFFFFFFFFFF NOT AND PUSH1 0x1 PUSH1 0x1 PUSH1 0x40 SHL SUB SWAP2 SWAP1 SWAP2 AND OR DUP3 SSTORE JUMP JUMPDEST PUSH2 0x48D1 PUSH2 0x48B0 PUSH1 0xE0 DUP6 ADD PUSH2 0x4769 JUMP JUMPDEST DUP3 SLOAD PUSH1 0x1 PUSH1 0x1 PUSH1 0x40 SHL SUB AND PUSH1 0x40 SWAP2 SWAP1 SWAP2 SHL PUSH8 0xFFFFFFFFFFFFFFFF NOT AND OR DUP3 SSTORE JUMP JUMPDEST POP PUSH2 0x100 DUP3 ADD CALLDATALOAD PUSH1 0x3 DUP3 ADD SSTORE PUSH2 0x120 DUP3 ADD CALLDATALOAD PUSH1 0x4 DUP3 ADD SSTORE PUSH2 0x140 DUP3 ADD CALLDATALOAD PUSH1 0x5 DUP3 ADD SSTORE POP POP JUMP JUMPDEST DUP1 DUP3 MUL DUP2 ISZERO DUP3 DUP3 DIV DUP5 EQ OR PUSH2 0x1886 JUMPI PUSH2 0x1886 PUSH2 0x430A JUMP JUMPDEST PUSH1 0x0 DUP3 PUSH2 0x492B JUMPI PUSH4 0x4E487B71 PUSH1 0xE0 SHL PUSH1 0x0 MSTORE PUSH1 0x12 PUSH1 0x4 MSTORE PUSH1 0x24 PUSH1 0x0 REVERT JUMPDEST POP DIV SWAP1 JUMP JUMPDEST PUSH4 0xFFFFFFFF DUP2 AND DUP2 EQ PUSH2 0x23F2 JUMPI PUSH1 0x0 DUP1 REVERT JUMPDEST PUSH1 0x0 PUSH1 0x20 DUP3 DUP5 SUB SLT ISZERO PUSH2 0x4954 JUMPI PUSH1 0x0 DUP1 REVERT JUMPDEST DUP2 CALLDATALOAD PUSH2 0x2AD1 DUP2 PUSH2 0x4930 JUMP JUMPDEST PUSH1 0x0 DUP2 CALLDATALOAD PUSH2 0xFFFF DUP2 AND DUP2 EQ PUSH2 0x1886 JUMPI PUSH1 0x0 DUP1 REVERT JUMPDEST PUSH1 0x0 DUP2 CALLDATALOAD PUSH2 0x1886 DUP2 PUSH2 0x4930 JUMP JUMPDEST PUSH2 0x498A DUP3 DUP4 PUSH2 0x436B JUMP JUMPDEST PUSH1 0x1 PUSH1 0x1 PUSH1 0x40 SHL SUB DUP2 GT ISZERO PUSH2 0x49A1 JUMPI PUSH2 0x49A1 PUSH2 0x3D8D JUMP JUMPDEST PUSH2 0x49B5 DUP2 PUSH2 0x49AF DUP6 SLOAD PUSH2 0x43D8 JUMP JUMPDEST DUP6 PUSH2 0x440C JUMP JUMPDEST PUSH1 0x0 PUSH1 0x1F DUP3 GT PUSH1 0x1 DUP2 EQ PUSH2 0x49E3 JUMPI PUSH1 0x0 DUP4 ISZERO PUSH2 0x49D1 JUMPI POP DUP4 DUP3 ADD CALLDATALOAD JUMPDEST PUSH2 0x49DB DUP5 DUP3 PUSH2 0x4452 JUMP JUMPDEST DUP7 SSTORE POP PUSH2 0x4A3D JUMP JUMPDEST PUSH1 0x0 DUP6 DUP2 MSTORE PUSH1 0x20 SWAP1 KECCAK256 PUSH1 0x1F NOT DUP5 AND SWAP1 DUP4 JUMPDEST DUP3 DUP2 LT ISZERO PUSH2 0x4A14 JUMPI DUP7 DUP6 ADD CALLDATALOAD DUP3 SSTORE PUSH1 0x20 SWAP5 DUP6 ADD SWAP5 PUSH1 0x1 SWAP1 SWAP3 ADD SWAP2 ADD PUSH2 0x49F4 JUMP JUMPDEST POP DUP5 DUP3 LT ISZERO PUSH2 0x4A31 JUMPI PUSH1 0x0 NOT PUSH1 0xF8 DUP7 PUSH1 0x3 SHL AND SHR NOT DUP5 DUP8 ADD CALLDATALOAD AND DUP2 SSTORE JUMPDEST POP POP PUSH1 0x1 DUP4 PUSH1 0x1 SHL ADD DUP6 SSTORE JUMPDEST POP POP POP POP PUSH1 0x1 DUP2 ADD PUSH2 0x4A71 PUSH2 0x4A54 PUSH1 0x20 DUP6 ADD PUSH2 0x43CB JUMP JUMPDEST DUP3 SLOAD PUSH1 0x1 PUSH1 0x1 PUSH1 0xA0 SHL SUB NOT AND PUSH1 0x1 PUSH1 0x1 PUSH1 0xA0 SHL SUB SWAP2 SWAP1 SWAP2 AND OR DUP3 SSTORE JUMP JUMPDEST PUSH2 0x4AA0 PUSH2 0x4A80 PUSH1 0x40 DUP6 ADD PUSH2 0x495F JUMP JUMPDEST DUP3 DUP1 SLOAD PUSH2 0xFFFF PUSH1 0xA0 SHL NOT AND PUSH1 0xA0 SWAP3 SWAP1 SWAP3 SHL PUSH2 0xFFFF PUSH1 0xA0 SHL AND SWAP2 SWAP1 SWAP2 OR SWAP1 SSTORE JUMP JUMPDEST PUSH2 0x4ACF PUSH2 0x4AAF PUSH1 0x60 DUP6 ADD PUSH2 0x495F JUMP JUMPDEST DUP3 DUP1 SLOAD PUSH2 0xFFFF PUSH1 0xB0 SHL NOT AND PUSH1 0xB0 SWAP3 SWAP1 SWAP3 SHL PUSH2 0xFFFF PUSH1 0xB0 SHL AND SWAP2 SWAP1 SWAP2 OR SWAP1 SSTORE JUMP JUMPDEST PUSH2 0x4B02 PUSH2 0x4ADE PUSH1 0x80 DUP6 ADD PUSH2 0x4973 JUMP JUMPDEST DUP3 DUP1 SLOAD PUSH4 0xFFFFFFFF PUSH1 0xC0 SHL NOT AND PUSH1 0xC0 SWAP3 SWAP1 SWAP3 SHL PUSH4 0xFFFFFFFF PUSH1 0xC0 SHL AND SWAP2 SWAP1 SWAP2 OR SWAP1 SSTORE JUMP JUMPDEST PUSH2 0x4B35 PUSH2 0x4B11 PUSH1 0xA0 DUP6 ADD PUSH2 0x4973 JUMP JUMPDEST DUP3 DUP1 SLOAD PUSH1 0x1 PUSH1 0x1 PUSH1 0xE0 SHL SUB AND PUSH1 0xE0 SWAP3 SWAP1 SWAP3 SHL PUSH1 0x1 PUSH1 0x1 PUSH1 0xE0 SHL SUB NOT AND SWAP2 SWAP1 SWAP2 OR SWAP1 SSTORE JUMP JUMPDEST POP PUSH1 0xC0 DUP3 ADD CALLDATALOAD PUSH1 0x2 DUP3 ADD SSTORE PUSH1 0xE0 DUP3 ADD CALLDATALOAD PUSH1 0x3 DUP3 ADD SSTORE POP POP JUMP JUMPDEST PUSH1 0x0 DUP1 DUP4 SLOAD PUSH2 0x4B5C DUP2 PUSH2 0x43D8 JUMP JUMPDEST PUSH1 0x1 DUP3 DUP2 AND DUP1 ISZERO PUSH2 0x4B74 JUMPI PUSH1 0x1 DUP2 EQ PUSH2 0x4B89 JUMPI PUSH2 0x4BB8 JUMP JUMPDEST PUSH1 0xFF NOT DUP5 AND DUP8 MSTORE DUP3 ISZERO ISZERO DUP4 MUL DUP8 ADD SWAP5 POP PUSH2 0x4BB8 JUMP JUMPDEST DUP8 PUSH1 0x0 MSTORE PUSH1 0x20 DUP1 PUSH1 0x0 KECCAK256 PUSH1 0x0 JUMPDEST DUP6 DUP2 LT ISZERO PUSH2 0x4BAF JUMPI DUP2 SLOAD DUP11 DUP3 ADD MSTORE SWAP1 DUP5 ADD SWAP1 DUP3 ADD PUSH2 0x4B96 JUMP JUMPDEST POP POP POP DUP3 DUP8 ADD SWAP5 POP JUMPDEST POP SWAP3 SWAP7 SWAP6 POP POP POP POP POP POP JUMP JUMPDEST PUSH1 0x1 PUSH1 0x1 PUSH1 0x60 SHL SUB NOT DUP5 PUSH1 0x60 SHL AND DUP2 MSTORE DUP2 DUP4 PUSH1 0x14 DUP4 ADD CALLDATACOPY PUSH1 0x0 SWAP2 ADD PUSH1 0x14 ADD SWAP1 DUP2 MSTORE SWAP3 SWAP2 POP POP JUMP JUMPDEST PUSH4 0x4E487B71 PUSH1 0xE0 SHL PUSH1 0x0 MSTORE PUSH1 0x31 PUSH1 0x4 MSTORE PUSH1 0x24 PUSH1 0x0 REVERT JUMPDEST PUSH1 0x0 PUSH1 0x20 DUP3 DUP5 SUB SLT ISZERO PUSH2 0x4C13 JUMPI PUSH1 0x0 DUP1 REVERT JUMPDEST DUP2 MLOAD PUSH2 0x2AD1 DUP2 PUSH2 0x38ED JUMP JUMPDEST PUSH1 0x0 DUP3 MLOAD PUSH2 0x4C30 DUP2 DUP5 PUSH1 0x20 DUP8 ADD PUSH2 0x3A7E JUMP JUMPDEST SWAP2 SWAP1 SWAP2 ADD SWAP3 SWAP2 POP POP JUMP INVALID LOG2 PUSH5 0x6970667358 0x22 SLT KECCAK256 0xD9 0x24 PUSH13 0xFACEC1B03EC4D918D07518394E NUMBER 0xBE PUSH25 0xE745B6288CB48A668F045D231F64736F6C6343000811003300 "
		},
		"gasEstimates": {
			"creation": {
				"codeDepositCost": "3913600",
				"executionCost": "infinite",
				"totalCost": "infinite"
			},
			"external": {
				"BPS_DIVIDER()": "317",
				"FUNDING_INTERVAL()": "252",
				"MAX_FEE()": "251",
				"MAX_KEEPER_FEE_SHARE()": "253",
				"MAX_POOL_WITHDRAWAL_FEE()": "251",
				"addOrUpdatePosition((bool,uint64,address,string,int256,uint256,uint256,uint256))": "infinite",
				"addOrder((bool,bool,uint8,uint72,address,string,uint64,uint192,uint256,uint256,uint256))": "infinite",
				"bufferBalance()": "2420",
				"bufferPayoutPeriod()": "2396",
				"burnCLP(address,uint256)": "infinite",
				"clp()": "2494",
				"currency()": "2492",
				"decrementBalance(address,uint256)": "31276",
				"decrementBufferBalance(uint256)": "28899",
				"decrementOI(string,uint256,bool)": "infinite",
				"decrementPoolBalance(uint256)": "28963",
				"getBalance(address)": "2652",
				"getCLPSupply()": "infinite",
				"getEstimatedOutputTokens(uint256,address,uint24)": "infinite",
				"getFundingFactor(string)": "infinite",
				"getFundingLastUpdated(string)": "infinite",
				"getFundingTracker(string)": "infinite",
				"getLockedMargin(address)": "2675",
				"getMarket(string)": "infinite",
				"getMarketList()": "infinite",
				"getOILong(string)": "infinite",
				"getOIShort(string)": "infinite",
				"getOrder(uint256)": "infinite",
				"getOrders()": "infinite",
				"getPosition(address,string)": "infinite",
				"getUserOrders(address)": "infinite",
				"getUserPoolBalance(address)": "infinite",
				"getUserPositions(address)": "infinite",
				"getUserWithLockedMargin(uint256)": "4829",
				"getUsersWithLockedMarginLength()": "2472",
				"gov()": "2406",
				"incrementBalance(address,uint256)": "29152",
				"incrementBufferBalance(uint256)": "28962",
				"incrementOI(string,uint256,bool)": "infinite",
				"incrementPoolBalance(uint256)": "28964",
				"keeperFeeShare()": "2352",
				"link(address,address,address,address)": "infinite",
				"linkUniswap(address,address,address)": "infinite",
				"lockMargin(address,uint256)": "infinite",
				"marketList(uint256)": "infinite",
				"minimumMarginLevel()": "2374",
				"mintCLP(address,uint256)": "infinite",
				"pool()": "2450",
				"poolBalance()": "2352",
				"poolFeeShare()": "2351",
				"poolLastPaid()": "2375",
				"poolWithdrawalFee()": "2418",
				"quoter()": "2492",
				"removeOrder(uint256)": "infinite",
				"removePosition(address,string)": "infinite",
				"setBufferPayoutPeriod(uint256)": "24576",
				"setFundingLastUpdated(string,uint256)": "infinite",
				"setKeeperFeeShare(uint256)": "24601",
				"setMarket(string,(string,address,uint16,uint16,uint32,uint32,uint256,uint256))": "infinite",
				"setMinimumMarginLevel(uint256)": "24620",
				"setPoolFeeShare(uint256)": "24555",
				"setPoolLastPaid(uint256)": "26720",
				"setPoolWithdrawalFee(uint256)": "24602",
				"swapExactInputSingle(address,uint256,uint256,address,uint24)": "infinite",
				"swapRouter()": "2470",
				"trade()": "2450",
				"transferIn(address,uint256)": "infinite",
				"transferOut(address,uint256)": "infinite",
				"unlockMargin(address,uint256)": "infinite",
				"updateFundingTracker(string,int256)": "infinite",
				"updateGov(address)": "28388",
				"updateOrder((bool,bool,uint8,uint72,address,string,uint64,uint192,uint256,uint256,uint256))": "infinite",
				"weth()": "2450"
			},
			"internal": {
				"_getPositionKey(address,string calldata)": "infinite"
			}
		},
		"methodIdentifiers": {
			"BPS_DIVIDER()": "7c4283bc",
			"FUNDING_INTERVAL()": "55efb287",
			"MAX_FEE()": "bc063e1a",
			"MAX_KEEPER_FEE_SHARE()": "194c119d",
			"MAX_POOL_WITHDRAWAL_FEE()": "cea97446",
			"addOrUpdatePosition((bool,uint64,address,string,int256,uint256,uint256,uint256))": "2313c231",
			"addOrder((bool,bool,uint8,uint72,address,string,uint64,uint192,uint256,uint256,uint256))": "8097f3f9",
			"bufferBalance()": "1298f13c",
			"bufferPayoutPeriod()": "59bca667",
			"burnCLP(address,uint256)": "569e6290",
			"clp()": "18dcdcfa",
			"currency()": "e5a6b10f",
			"decrementBalance(address,uint256)": "720ee37c",
			"decrementBufferBalance(uint256)": "16ee91bc",
			"decrementOI(string,uint256,bool)": "ad0e90ff",
			"decrementPoolBalance(uint256)": "7d86549f",
			"getBalance(address)": "f8b2cb4f",
			"getCLPSupply()": "afb1289d",
			"getEstimatedOutputTokens(uint256,address,uint24)": "8fedc603",
			"getFundingFactor(string)": "d80b32bd",
			"getFundingLastUpdated(string)": "626674f6",
			"getFundingTracker(string)": "7acbd18e",
			"getLockedMargin(address)": "ada16cce",
			"getMarket(string)": "ac2a067d",
			"getMarketList()": "5b9907a4",
			"getOILong(string)": "8b71cac6",
			"getOIShort(string)": "7da81352",
			"getOrder(uint256)": "d09ef241",
			"getOrders()": "2e2dc43e",
			"getPosition(address,string)": "b1ad0fa0",
			"getUserOrders(address)": "63c69f08",
			"getUserPoolBalance(address)": "ba124fe3",
			"getUserPositions(address)": "2a6bc2dd",
			"getUserWithLockedMargin(uint256)": "52e238fc",
			"getUsersWithLockedMarginLength()": "81f0ed78",
			"gov()": "12d43a51",
			"incrementBalance(address,uint256)": "384bc466",
			"incrementBufferBalance(uint256)": "fc629523",
			"incrementOI(string,uint256,bool)": "00922d0c",
			"incrementPoolBalance(uint256)": "95d65d11",
			"keeperFeeShare()": "af718bd4",
			"link(address,address,address,address)": "87137182",
			"linkUniswap(address,address,address)": "c247d909",
			"lockMargin(address,uint256)": "a5bce379",
			"marketList(uint256)": "232b956c",
			"minimumMarginLevel()": "8eea87aa",
			"mintCLP(address,uint256)": "0271fd0f",
			"pool()": "16f0115b",
			"poolBalance()": "96365d44",
			"poolFeeShare()": "a82a239d",
			"poolLastPaid()": "3e27c34b",
			"poolWithdrawalFee()": "71fb3145",
			"quoter()": "c6bbd5a7",
			"removeOrder(uint256)": "9645337a",
			"removePosition(address,string)": "eebac258",
			"setBufferPayoutPeriod(uint256)": "650b1b27",
			"setFundingLastUpdated(string,uint256)": "171167c7",
			"setKeeperFeeShare(uint256)": "acb6e3de",
			"setMarket(string,(string,address,uint16,uint16,uint32,uint32,uint256,uint256))": "d106e2fe",
			"setMinimumMarginLevel(uint256)": "5f80fed0",
			"setPoolFeeShare(uint256)": "1967fc07",
			"setPoolLastPaid(uint256)": "c2daf496",
			"setPoolWithdrawalFee(uint256)": "9cd4b71f",
			"swapExactInputSingle(address,uint256,uint256,address,uint24)": "e6d17ef4",
			"swapRouter()": "c31c9c07",
			"trade()": "1f0ba6c9",
			"transferIn(address,uint256)": "e8888915",
			"transferOut(address,uint256)": "76890c58",
			"unlockMargin(address,uint256)": "2f45580c",
			"updateFundingTracker(string,int256)": "3a0e81b0",
			"updateGov(address)": "0b33ba7a",
			"updateOrder((bool,bool,uint8,uint72,address,string,uint64,uint192,uint256,uint256,uint256))": "925bb476",
			"weth()": "3fc8cef3"
		}
	},
	"abi": [
		{
			"inputs": [
				{
					"internalType": "address",
					"name": "_gov",
					"type": "address"
				}
			],
			"stateMutability": "nonpayable",
			"type": "constructor"
		},
		{
			"anonymous": false,
			"inputs": [
				{
					"indexed": true,
					"internalType": "address",
					"name": "oldGov",
					"type": "address"
				},
				{
					"indexed": true,
					"internalType": "address",
					"name": "newGov",
					"type": "address"
				}
			],
			"name": "GovernanceUpdated",
			"type": "event"
		},
		{
			"inputs": [],
			"name": "BPS_DIVIDER",
			"outputs": [
				{
					"internalType": "uint256",
					"name": "",
					"type": "uint256"
				}
			],
			"stateMutability": "view",
			"type": "function"
		},
		{
			"inputs": [],
			"name": "FUNDING_INTERVAL",
			"outputs": [
				{
					"internalType": "uint256",
					"name": "",
					"type": "uint256"
				}
			],
			"stateMutability": "view",
			"type": "function"
		},
		{
			"inputs": [],
			"name": "MAX_FEE",
			"outputs": [
				{
					"internalType": "uint256",
					"name": "",
					"type": "uint256"
				}
			],
			"stateMutability": "view",
			"type": "function"
		},
		{
			"inputs": [],
			"name": "MAX_KEEPER_FEE_SHARE",
			"outputs": [
				{
					"internalType": "uint256",
					"name": "",
					"type": "uint256"
				}
			],
			"stateMutability": "view",
			"type": "function"
		},
		{
			"inputs": [],
			"name": "MAX_POOL_WITHDRAWAL_FEE",
			"outputs": [
				{
					"internalType": "uint256",
					"name": "",
					"type": "uint256"
				}
			],
			"stateMutability": "view",
			"type": "function"
		},
		{
			"inputs": [
				{
					"components": [
						{
							"internalType": "bool",
							"name": "isLong",
							"type": "bool"
						},
						{
							"internalType": "uint64",
							"name": "timestamp",
							"type": "uint64"
						},
						{
							"internalType": "address",
							"name": "user",
							"type": "address"
						},
						{
							"internalType": "string",
							"name": "market",
							"type": "string"
						},
						{
							"internalType": "int256",
							"name": "fundingTracker",
							"type": "int256"
						},
						{
							"internalType": "uint256",
							"name": "price",
							"type": "uint256"
						},
						{
							"internalType": "uint256",
							"name": "margin",
							"type": "uint256"
						},
						{
							"internalType": "uint256",
							"name": "size",
							"type": "uint256"
						}
					],
					"internalType": "struct IStore.Position",
					"name": "position",
					"type": "tuple"
				}
			],
			"name": "addOrUpdatePosition",
			"outputs": [],
			"stateMutability": "nonpayable",
			"type": "function"
		},
		{
			"inputs": [
				{
					"components": [
						{
							"internalType": "bool",
							"name": "isLong",
							"type": "bool"
						},
						{
							"internalType": "bool",
							"name": "isReduceOnly",
							"type": "bool"
						},
						{
							"internalType": "uint8",
							"name": "orderType",
							"type": "uint8"
						},
						{
							"internalType": "uint72",
							"name": "orderId",
							"type": "uint72"
						},
						{
							"internalType": "address",
							"name": "user",
							"type": "address"
						},
						{
							"internalType": "string",
							"name": "market",
							"type": "string"
						},
						{
							"internalType": "uint64",
							"name": "timestamp",
							"type": "uint64"
						},
						{
							"internalType": "uint192",
							"name": "fee",
							"type": "uint192"
						},
						{
							"internalType": "uint256",
							"name": "price",
							"type": "uint256"
						},
						{
							"internalType": "uint256",
							"name": "margin",
							"type": "uint256"
						},
						{
							"internalType": "uint256",
							"name": "size",
							"type": "uint256"
						}
					],
					"internalType": "struct IStore.Order",
					"name": "order",
					"type": "tuple"
				}
			],
			"name": "addOrder",
			"outputs": [
				{
					"internalType": "uint256",
					"name": "",
					"type": "uint256"
				}
			],
			"stateMutability": "nonpayable",
			"type": "function"
		},
		{
			"inputs": [],
			"name": "bufferBalance",
			"outputs": [
				{
					"internalType": "uint256",
					"name": "",
					"type": "uint256"
				}
			],
			"stateMutability": "view",
			"type": "function"
		},
		{
			"inputs": [],
			"name": "bufferPayoutPeriod",
			"outputs": [
				{
					"internalType": "uint256",
					"name": "",
					"type": "uint256"
				}
			],
			"stateMutability": "view",
			"type": "function"
		},
		{
			"inputs": [
				{
					"internalType": "address",
					"name": "user",
					"type": "address"
				},
				{
					"internalType": "uint256",
					"name": "amount",
					"type": "uint256"
				}
			],
			"name": "burnCLP",
			"outputs": [],
			"stateMutability": "nonpayable",
			"type": "function"
		},
		{
			"inputs": [],
			"name": "clp",
			"outputs": [
				{
					"internalType": "address",
					"name": "",
					"type": "address"
				}
			],
			"stateMutability": "view",
			"type": "function"
		},
		{
			"inputs": [],
			"name": "currency",
			"outputs": [
				{
					"internalType": "address",
					"name": "",
					"type": "address"
				}
			],
			"stateMutability": "view",
			"type": "function"
		},
		{
			"inputs": [
				{
					"internalType": "address",
					"name": "user",
					"type": "address"
				},
				{
					"internalType": "uint256",
					"name": "amount",
					"type": "uint256"
				}
			],
			"name": "decrementBalance",
			"outputs": [],
			"stateMutability": "nonpayable",
			"type": "function"
		},
		{
			"inputs": [
				{
					"internalType": "uint256",
					"name": "amount",
					"type": "uint256"
				}
			],
			"name": "decrementBufferBalance",
			"outputs": [],
			"stateMutability": "nonpayable",
			"type": "function"
		},
		{
			"inputs": [
				{
					"internalType": "string",
					"name": "market",
					"type": "string"
				},
				{
					"internalType": "uint256",
					"name": "size",
					"type": "uint256"
				},
				{
					"internalType": "bool",
					"name": "isLong",
					"type": "bool"
				}
			],
			"name": "decrementOI",
			"outputs": [],
			"stateMutability": "nonpayable",
			"type": "function"
		},
		{
			"inputs": [
				{
					"internalType": "uint256",
					"name": "amount",
					"type": "uint256"
				}
			],
			"name": "decrementPoolBalance",
			"outputs": [],
			"stateMutability": "nonpayable",
			"type": "function"
		},
		{
			"inputs": [
				{
					"internalType": "address",
					"name": "user",
					"type": "address"
				}
			],
			"name": "getBalance",
			"outputs": [
				{
					"internalType": "uint256",
					"name": "",
					"type": "uint256"
				}
			],
			"stateMutability": "view",
			"type": "function"
		},
		{
			"inputs": [],
			"name": "getCLPSupply",
			"outputs": [
				{
					"internalType": "uint256",
					"name": "",
					"type": "uint256"
				}
			],
			"stateMutability": "view",
			"type": "function"
		},
		{
			"inputs": [
				{
					"internalType": "uint256",
					"name": "amountIn",
					"type": "uint256"
				},
				{
					"internalType": "address",
					"name": "tokenIn",
					"type": "address"
				},
				{
					"internalType": "uint24",
					"name": "poolFee",
					"type": "uint24"
				}
			],
			"name": "getEstimatedOutputTokens",
			"outputs": [
				{
					"internalType": "uint256",
					"name": "amountOut",
					"type": "uint256"
				}
			],
			"stateMutability": "nonpayable",
			"type": "function"
		},
		{
			"inputs": [
				{
					"internalType": "string",
					"name": "market",
					"type": "string"
				}
			],
			"name": "getFundingFactor",
			"outputs": [
				{
					"internalType": "uint256",
					"name": "",
					"type": "uint256"
				}
			],
			"stateMutability": "view",
			"type": "function"
		},
		{
			"inputs": [
				{
					"internalType": "string",
					"name": "market",
					"type": "string"
				}
			],
			"name": "getFundingLastUpdated",
			"outputs": [
				{
					"internalType": "uint256",
					"name": "",
					"type": "uint256"
				}
			],
			"stateMutability": "view",
			"type": "function"
		},
		{
			"inputs": [
				{
					"internalType": "string",
					"name": "market",
					"type": "string"
				}
			],
			"name": "getFundingTracker",
			"outputs": [
				{
					"internalType": "int256",
					"name": "",
					"type": "int256"
				}
			],
			"stateMutability": "view",
			"type": "function"
		},
		{
			"inputs": [
				{
					"internalType": "address",
					"name": "user",
					"type": "address"
				}
			],
			"name": "getLockedMargin",
			"outputs": [
				{
					"internalType": "uint256",
					"name": "",
					"type": "uint256"
				}
			],
			"stateMutability": "view",
			"type": "function"
		},
		{
			"inputs": [
				{
					"internalType": "string",
					"name": "market",
					"type": "string"
				}
			],
			"name": "getMarket",
			"outputs": [
				{
					"components": [
						{
							"internalType": "string",
							"name": "symbol",
							"type": "string"
						},
						{
							"internalType": "address",
							"name": "feed",
							"type": "address"
						},
						{
							"internalType": "uint16",
							"name": "minSettlementTime",
							"type": "uint16"
						},
						{
							"internalType": "uint16",
							"name": "maxLeverage",
							"type": "uint16"
						},
						{
							"internalType": "uint32",
							"name": "fee",
							"type": "uint32"
						},
						{
							"internalType": "uint32",
							"name": "fundingFactor",
							"type": "uint32"
						},
						{
							"internalType": "uint256",
							"name": "maxOI",
							"type": "uint256"
						},
						{
							"internalType": "uint256",
							"name": "minSize",
							"type": "uint256"
						}
					],
					"internalType": "struct IStore.Market",
					"name": "_market",
					"type": "tuple"
				}
			],
			"stateMutability": "view",
			"type": "function"
		},
		{
			"inputs": [],
			"name": "getMarketList",
			"outputs": [
				{
					"internalType": "string[]",
					"name": "",
					"type": "string[]"
				}
			],
			"stateMutability": "view",
			"type": "function"
		},
		{
			"inputs": [
				{
					"internalType": "string",
					"name": "market",
					"type": "string"
				}
			],
			"name": "getOILong",
			"outputs": [
				{
					"internalType": "uint256",
					"name": "",
					"type": "uint256"
				}
			],
			"stateMutability": "view",
			"type": "function"
		},
		{
			"inputs": [
				{
					"internalType": "string",
					"name": "market",
					"type": "string"
				}
			],
			"name": "getOIShort",
			"outputs": [
				{
					"internalType": "uint256",
					"name": "",
					"type": "uint256"
				}
			],
			"stateMutability": "view",
			"type": "function"
		},
		{
			"inputs": [
				{
					"internalType": "uint256",
					"name": "id",
					"type": "uint256"
				}
			],
			"name": "getOrder",
			"outputs": [
				{
					"components": [
						{
							"internalType": "bool",
							"name": "isLong",
							"type": "bool"
						},
						{
							"internalType": "bool",
							"name": "isReduceOnly",
							"type": "bool"
						},
						{
							"internalType": "uint8",
							"name": "orderType",
							"type": "uint8"
						},
						{
							"internalType": "uint72",
							"name": "orderId",
							"type": "uint72"
						},
						{
							"internalType": "address",
							"name": "user",
							"type": "address"
						},
						{
							"internalType": "string",
							"name": "market",
							"type": "string"
						},
						{
							"internalType": "uint64",
							"name": "timestamp",
							"type": "uint64"
						},
						{
							"internalType": "uint192",
							"name": "fee",
							"type": "uint192"
						},
						{
							"internalType": "uint256",
							"name": "price",
							"type": "uint256"
						},
						{
							"internalType": "uint256",
							"name": "margin",
							"type": "uint256"
						},
						{
							"internalType": "uint256",
							"name": "size",
							"type": "uint256"
						}
					],
					"internalType": "struct IStore.Order",
					"name": "_order",
					"type": "tuple"
				}
			],
			"stateMutability": "view",
			"type": "function"
		},
		{
			"inputs": [],
			"name": "getOrders",
			"outputs": [
				{
					"components": [
						{
							"internalType": "bool",
							"name": "isLong",
							"type": "bool"
						},
						{
							"internalType": "bool",
							"name": "isReduceOnly",
							"type": "bool"
						},
						{
							"internalType": "uint8",
							"name": "orderType",
							"type": "uint8"
						},
						{
							"internalType": "uint72",
							"name": "orderId",
							"type": "uint72"
						},
						{
							"internalType": "address",
							"name": "user",
							"type": "address"
						},
						{
							"internalType": "string",
							"name": "market",
							"type": "string"
						},
						{
							"internalType": "uint64",
							"name": "timestamp",
							"type": "uint64"
						},
						{
							"internalType": "uint192",
							"name": "fee",
							"type": "uint192"
						},
						{
							"internalType": "uint256",
							"name": "price",
							"type": "uint256"
						},
						{
							"internalType": "uint256",
							"name": "margin",
							"type": "uint256"
						},
						{
							"internalType": "uint256",
							"name": "size",
							"type": "uint256"
						}
					],
					"internalType": "struct IStore.Order[]",
					"name": "_orders",
					"type": "tuple[]"
				}
			],
			"stateMutability": "view",
			"type": "function"
		},
		{
			"inputs": [
				{
					"internalType": "address",
					"name": "user",
					"type": "address"
				},
				{
					"internalType": "string",
					"name": "market",
					"type": "string"
				}
			],
			"name": "getPosition",
			"outputs": [
				{
					"components": [
						{
							"internalType": "bool",
							"name": "isLong",
							"type": "bool"
						},
						{
							"internalType": "uint64",
							"name": "timestamp",
							"type": "uint64"
						},
						{
							"internalType": "address",
							"name": "user",
							"type": "address"
						},
						{
							"internalType": "string",
							"name": "market",
							"type": "string"
						},
						{
							"internalType": "int256",
							"name": "fundingTracker",
							"type": "int256"
						},
						{
							"internalType": "uint256",
							"name": "price",
							"type": "uint256"
						},
						{
							"internalType": "uint256",
							"name": "margin",
							"type": "uint256"
						},
						{
							"internalType": "uint256",
							"name": "size",
							"type": "uint256"
						}
					],
					"internalType": "struct IStore.Position",
					"name": "position",
					"type": "tuple"
				}
			],
			"stateMutability": "view",
			"type": "function"
		},
		{
			"inputs": [
				{
					"internalType": "address",
					"name": "user",
					"type": "address"
				}
			],
			"name": "getUserOrders",
			"outputs": [
				{
					"components": [
						{
							"internalType": "bool",
							"name": "isLong",
							"type": "bool"
						},
						{
							"internalType": "bool",
							"name": "isReduceOnly",
							"type": "bool"
						},
						{
							"internalType": "uint8",
							"name": "orderType",
							"type": "uint8"
						},
						{
							"internalType": "uint72",
							"name": "orderId",
							"type": "uint72"
						},
						{
							"internalType": "address",
							"name": "user",
							"type": "address"
						},
						{
							"internalType": "string",
							"name": "market",
							"type": "string"
						},
						{
							"internalType": "uint64",
							"name": "timestamp",
							"type": "uint64"
						},
						{
							"internalType": "uint192",
							"name": "fee",
							"type": "uint192"
						},
						{
							"internalType": "uint256",
							"name": "price",
							"type": "uint256"
						},
						{
							"internalType": "uint256",
							"name": "margin",
							"type": "uint256"
						},
						{
							"internalType": "uint256",
							"name": "size",
							"type": "uint256"
						}
					],
					"internalType": "struct IStore.Order[]",
					"name": "_orders",
					"type": "tuple[]"
				}
			],
			"stateMutability": "view",
			"type": "function"
		},
		{
			"inputs": [
				{
					"internalType": "address",
					"name": "user",
					"type": "address"
				}
			],
			"name": "getUserPoolBalance",
			"outputs": [
				{
					"internalType": "uint256",
					"name": "",
					"type": "uint256"
				}
			],
			"stateMutability": "view",
			"type": "function"
		},
		{
			"inputs": [
				{
					"internalType": "address",
					"name": "user",
					"type": "address"
				}
			],
			"name": "getUserPositions",
			"outputs": [
				{
					"components": [
						{
							"internalType": "bool",
							"name": "isLong",
							"type": "bool"
						},
						{
							"internalType": "uint64",
							"name": "timestamp",
							"type": "uint64"
						},
						{
							"internalType": "address",
							"name": "user",
							"type": "address"
						},
						{
							"internalType": "string",
							"name": "market",
							"type": "string"
						},
						{
							"internalType": "int256",
							"name": "fundingTracker",
							"type": "int256"
						},
						{
							"internalType": "uint256",
							"name": "price",
							"type": "uint256"
						},
						{
							"internalType": "uint256",
							"name": "margin",
							"type": "uint256"
						},
						{
							"internalType": "uint256",
							"name": "size",
							"type": "uint256"
						}
					],
					"internalType": "struct IStore.Position[]",
					"name": "_positions",
					"type": "tuple[]"
				}
			],
			"stateMutability": "view",
			"type": "function"
		},
		{
			"inputs": [
				{
					"internalType": "uint256",
					"name": "i",
					"type": "uint256"
				}
			],
			"name": "getUserWithLockedMargin",
			"outputs": [
				{
					"internalType": "address",
					"name": "",
					"type": "address"
				}
			],
			"stateMutability": "view",
			"type": "function"
		},
		{
			"inputs": [],
			"name": "getUsersWithLockedMarginLength",
			"outputs": [
				{
					"internalType": "uint256",
					"name": "",
					"type": "uint256"
				}
			],
			"stateMutability": "view",
			"type": "function"
		},
		{
			"inputs": [],
			"name": "gov",
			"outputs": [
				{
					"internalType": "address",
					"name": "",
					"type": "address"
				}
			],
			"stateMutability": "view",
			"type": "function"
		},
		{
			"inputs": [
				{
					"internalType": "address",
					"name": "user",
					"type": "address"
				},
				{
					"internalType": "uint256",
					"name": "amount",
					"type": "uint256"
				}
			],
			"name": "incrementBalance",
			"outputs": [],
			"stateMutability": "nonpayable",
			"type": "function"
		},
		{
			"inputs": [
				{
					"internalType": "uint256",
					"name": "amount",
					"type": "uint256"
				}
			],
			"name": "incrementBufferBalance",
			"outputs": [],
			"stateMutability": "nonpayable",
			"type": "function"
		},
		{
			"inputs": [
				{
					"internalType": "string",
					"name": "market",
					"type": "string"
				},
				{
					"internalType": "uint256",
					"name": "size",
					"type": "uint256"
				},
				{
					"internalType": "bool",
					"name": "isLong",
					"type": "bool"
				}
			],
			"name": "incrementOI",
			"outputs": [],
			"stateMutability": "nonpayable",
			"type": "function"
		},
		{
			"inputs": [
				{
					"internalType": "uint256",
					"name": "amount",
					"type": "uint256"
				}
			],
			"name": "incrementPoolBalance",
			"outputs": [],
			"stateMutability": "nonpayable",
			"type": "function"
		},
		{
			"inputs": [],
			"name": "keeperFeeShare",
			"outputs": [
				{
					"internalType": "uint256",
					"name": "",
					"type": "uint256"
				}
			],
			"stateMutability": "view",
			"type": "function"
		},
		{
			"inputs": [
				{
					"internalType": "address",
					"name": "_trade",
					"type": "address"
				},
				{
					"internalType": "address",
					"name": "_pool",
					"type": "address"
				},
				{
					"internalType": "address",
					"name": "_currency",
					"type": "address"
				},
				{
					"internalType": "address",
					"name": "_clp",
					"type": "address"
				}
			],
			"name": "link",
			"outputs": [],
			"stateMutability": "nonpayable",
			"type": "function"
		},
		{
			"inputs": [
				{
					"internalType": "address",
					"name": "_swapRouter",
					"type": "address"
				},
				{
					"internalType": "address",
					"name": "_quoter",
					"type": "address"
				},
				{
					"internalType": "address",
					"name": "_weth",
					"type": "address"
				}
			],
			"name": "linkUniswap",
			"outputs": [],
			"stateMutability": "nonpayable",
			"type": "function"
		},
		{
			"inputs": [
				{
					"internalType": "address",
					"name": "user",
					"type": "address"
				},
				{
					"internalType": "uint256",
					"name": "amount",
					"type": "uint256"
				}
			],
			"name": "lockMargin",
			"outputs": [],
			"stateMutability": "nonpayable",
			"type": "function"
		},
		{
			"inputs": [
				{
					"internalType": "uint256",
					"name": "",
					"type": "uint256"
				}
			],
			"name": "marketList",
			"outputs": [
				{
					"internalType": "string",
					"name": "",
					"type": "string"
				}
			],
			"stateMutability": "view",
			"type": "function"
		},
		{
			"inputs": [],
			"name": "minimumMarginLevel",
			"outputs": [
				{
					"internalType": "uint256",
					"name": "",
					"type": "uint256"
				}
			],
			"stateMutability": "view",
			"type": "function"
		},
		{
			"inputs": [
				{
					"internalType": "address",
					"name": "user",
					"type": "address"
				},
				{
					"internalType": "uint256",
					"name": "amount",
					"type": "uint256"
				}
			],
			"name": "mintCLP",
			"outputs": [],
			"stateMutability": "nonpayable",
			"type": "function"
		},
		{
			"inputs": [],
			"name": "pool",
			"outputs": [
				{
					"internalType": "address",
					"name": "",
					"type": "address"
				}
			],
			"stateMutability": "view",
			"type": "function"
		},
		{
			"inputs": [],
			"name": "poolBalance",
			"outputs": [
				{
					"internalType": "uint256",
					"name": "",
					"type": "uint256"
				}
			],
			"stateMutability": "view",
			"type": "function"
		},
		{
			"inputs": [],
			"name": "poolFeeShare",
			"outputs": [
				{
					"internalType": "uint256",
					"name": "",
					"type": "uint256"
				}
			],
			"stateMutability": "view",
			"type": "function"
		},
		{
			"inputs": [],
			"name": "poolLastPaid",
			"outputs": [
				{
					"internalType": "uint256",
					"name": "",
					"type": "uint256"
				}
			],
			"stateMutability": "view",
			"type": "function"
		},
		{
			"inputs": [],
			"name": "poolWithdrawalFee",
			"outputs": [
				{
					"internalType": "uint256",
					"name": "",
					"type": "uint256"
				}
			],
			"stateMutability": "view",
			"type": "function"
		},
		{
			"inputs": [],
			"name": "quoter",
			"outputs": [
				{
					"internalType": "address",
					"name": "",
					"type": "address"
				}
			],
			"stateMutability": "view",
			"type": "function"
		},
		{
			"inputs": [
				{
					"internalType": "uint256",
					"name": "_orderId",
					"type": "uint256"
				}
			],
			"name": "removeOrder",
			"outputs": [],
			"stateMutability": "nonpayable",
			"type": "function"
		},
		{
			"inputs": [
				{
					"internalType": "address",
					"name": "user",
					"type": "address"
				},
				{
					"internalType": "string",
					"name": "market",
					"type": "string"
				}
			],
			"name": "removePosition",
			"outputs": [],
			"stateMutability": "nonpayable",
			"type": "function"
		},
		{
			"inputs": [
				{
					"internalType": "uint256",
					"name": "amount",
					"type": "uint256"
				}
			],
			"name": "setBufferPayoutPeriod",
			"outputs": [],
			"stateMutability": "nonpayable",
			"type": "function"
		},
		{
			"inputs": [
				{
					"internalType": "string",
					"name": "market",
					"type": "string"
				},
				{
					"internalType": "uint256",
					"name": "timestamp",
					"type": "uint256"
				}
			],
			"name": "setFundingLastUpdated",
			"outputs": [],
			"stateMutability": "nonpayable",
			"type": "function"
		},
		{
			"inputs": [
				{
					"internalType": "uint256",
					"name": "amount",
					"type": "uint256"
				}
			],
			"name": "setKeeperFeeShare",
			"outputs": [],
			"stateMutability": "nonpayable",
			"type": "function"
		},
		{
			"inputs": [
				{
					"internalType": "string",
					"name": "market",
					"type": "string"
				},
				{
					"components": [
						{
							"internalType": "string",
							"name": "symbol",
							"type": "string"
						},
						{
							"internalType": "address",
							"name": "feed",
							"type": "address"
						},
						{
							"internalType": "uint16",
							"name": "minSettlementTime",
							"type": "uint16"
						},
						{
							"internalType": "uint16",
							"name": "maxLeverage",
							"type": "uint16"
						},
						{
							"internalType": "uint32",
							"name": "fee",
							"type": "uint32"
						},
						{
							"internalType": "uint32",
							"name": "fundingFactor",
							"type": "uint32"
						},
						{
							"internalType": "uint256",
							"name": "maxOI",
							"type": "uint256"
						},
						{
							"internalType": "uint256",
							"name": "minSize",
							"type": "uint256"
						}
					],
					"internalType": "struct IStore.Market",
					"name": "marketInfo",
					"type": "tuple"
				}
			],
			"name": "setMarket",
			"outputs": [],
			"stateMutability": "nonpayable",
			"type": "function"
		},
		{
			"inputs": [
				{
					"internalType": "uint256",
					"name": "amount",
					"type": "uint256"
				}
			],
			"name": "setMinimumMarginLevel",
			"outputs": [],
			"stateMutability": "nonpayable",
			"type": "function"
		},
		{
			"inputs": [
				{
					"internalType": "uint256",
					"name": "amount",
					"type": "uint256"
				}
			],
			"name": "setPoolFeeShare",
			"outputs": [],
			"stateMutability": "nonpayable",
			"type": "function"
		},
		{
			"inputs": [
				{
					"internalType": "uint256",
					"name": "timestamp",
					"type": "uint256"
				}
			],
			"name": "setPoolLastPaid",
			"outputs": [],
			"stateMutability": "nonpayable",
			"type": "function"
		},
		{
			"inputs": [
				{
					"internalType": "uint256",
					"name": "amount",
					"type": "uint256"
				}
			],
			"name": "setPoolWithdrawalFee",
			"outputs": [],
			"stateMutability": "nonpayable",
			"type": "function"
		},
		{
			"inputs": [
				{
					"internalType": "address",
					"name": "user",
					"type": "address"
				},
				{
					"internalType": "uint256",
					"name": "amountIn",
					"type": "uint256"
				},
				{
					"internalType": "uint256",
					"name": "amountOutMin",
					"type": "uint256"
				},
				{
					"internalType": "address",
					"name": "tokenIn",
					"type": "address"
				},
				{
					"internalType": "uint24",
					"name": "poolFee",
					"type": "uint24"
				}
			],
			"name": "swapExactInputSingle",
			"outputs": [
				{
					"internalType": "uint256",
					"name": "amountOut",
					"type": "uint256"
				}
			],
			"stateMutability": "payable",
			"type": "function"
		},
		{
			"inputs": [],
			"name": "swapRouter",
			"outputs": [
				{
					"internalType": "address",
					"name": "",
					"type": "address"
				}
			],
			"stateMutability": "view",
			"type": "function"
		},
		{
			"inputs": [],
			"name": "trade",
			"outputs": [
				{
					"internalType": "address",
					"name": "",
					"type": "address"
				}
			],
			"stateMutability": "view",
			"type": "function"
		},
		{
			"inputs": [
				{
					"internalType": "address",
					"name": "user",
					"type": "address"
				},
				{
					"internalType": "uint256",
					"name": "amount",
					"type": "uint256"
				}
			],
			"name": "transferIn",
			"outputs": [],
			"stateMutability": "nonpayable",
			"type": "function"
		},
		{
			"inputs": [
				{
					"internalType": "address",
					"name": "user",
					"type": "address"
				},
				{
					"internalType": "uint256",
					"name": "amount",
					"type": "uint256"
				}
			],
			"name": "transferOut",
			"outputs": [],
			"stateMutability": "nonpayable",
			"type": "function"
		},
		{
			"inputs": [
				{
					"internalType": "address",
					"name": "user",
					"type": "address"
				},
				{
					"internalType": "uint256",
					"name": "amount",
					"type": "uint256"
				}
			],
			"name": "unlockMargin",
			"outputs": [],
			"stateMutability": "nonpayable",
			"type": "function"
		},
		{
			"inputs": [
				{
					"internalType": "string",
					"name": "market",
					"type": "string"
				},
				{
					"internalType": "int256",
					"name": "fundingIncrement",
					"type": "int256"
				}
			],
			"name": "updateFundingTracker",
			"outputs": [],
			"stateMutability": "nonpayable",
			"type": "function"
		},
		{
			"inputs": [
				{
					"internalType": "address",
					"name": "_gov",
					"type": "address"
				}
			],
			"name": "updateGov",
			"outputs": [],
			"stateMutability": "nonpayable",
			"type": "function"
		},
		{
			"inputs": [
				{
					"components": [
						{
							"internalType": "bool",
							"name": "isLong",
							"type": "bool"
						},
						{
							"internalType": "bool",
							"name": "isReduceOnly",
							"type": "bool"
						},
						{
							"internalType": "uint8",
							"name": "orderType",
							"type": "uint8"
						},
						{
							"internalType": "uint72",
							"name": "orderId",
							"type": "uint72"
						},
						{
							"internalType": "address",
							"name": "user",
							"type": "address"
						},
						{
							"internalType": "string",
							"name": "market",
							"type": "string"
						},
						{
							"internalType": "uint64",
							"name": "timestamp",
							"type": "uint64"
						},
						{
							"internalType": "uint192",
							"name": "fee",
							"type": "uint192"
						},
						{
							"internalType": "uint256",
							"name": "price",
							"type": "uint256"
						},
						{
							"internalType": "uint256",
							"name": "margin",
							"type": "uint256"
						},
						{
							"internalType": "uint256",
							"name": "size",
							"type": "uint256"
						}
					],
					"internalType": "struct IStore.Order",
					"name": "order",
					"type": "tuple"
				}
			],
			"name": "updateOrder",
			"outputs": [],
			"stateMutability": "nonpayable",
			"type": "function"
		},
		{
			"inputs": [],
			"name": "weth",
			"outputs": [
				{
					"internalType": "address",
					"name": "",
					"type": "address"
				}
			],
			"stateMutability": "view",
			"type": "function"
		}
	]
}